:020000040800F2
:10000000D80700202D020008CB2200088F2000080E
:10001000C922000823040008692A00080000000023
:10002000000000000000000000000000252500087E
:100030002504000800000000CD2200082725000844
:100040004702000847020008470200081925000877
:10005000470200084702000847020008470200085C
:10006000470200084702000847020008470200084C
:10007000470200084702000847020008470200083C
:10008000470200084702000847020008470200082C
:10009000470200084702000847020008270400083A
:1000A000470200084702000847020008470200080C
:1000B000470200080000000000000000470200089E
:1000C00047020008470200084702000847020008EC
:1000D00047020008470200085D2A0008470200089E
:1000E000470200084702000800000000000000006E
:1000F0000000000000000000000000000000000000
:10010000000000004702000800000000470200084D
:10011000000000000000000047020008470200083D
:10012000470200084702000847020008470200088B
:10013000470200080000000000000000000000006E
:1001400047020008470200084702000800000000BC
:10015000470200084702000847020008470200085B
:10016000470200084702000847020008000000009C
:1001700047020008470200080000000000000000DD
:1001800047020008470200084702000800F002F892
:1001900000F03CF80AA090E8000C82448344AAF1E5
:1001A0000107DA4501D100F031F8AFF2090EBAE8E3
:1001B0000F0013F0010F18BFFB1A43F0010318479B
:1001C0006829000088290000103A24BF78C878C147
:1001D000FAD8520724BF30C830C144BF04680C604D
:1001E000704700000023002400250026103A28BF95
:1001F00078C1FBD8520728BF30C148BF0B60704799
:100200001FB502F067FC1FBD10B510BD00F0CFF8A0
:100210001146FFF7F5FF02F039FC00F0EDF803B4EA
:10022000FFF7F2FF03BC00F0F5F800000948804733
:1002300009480047FEE7FEE7FEE7FEE7FEE7FEE7C8
:10024000FEE7FEE7FEE7FEE704480549054A064BE0
:1002500070470000F12500088D010008D80100203A
:10026000D8070020D8030020D803002053EA020C4E
:1002700000F069802DE9F04B4FF00006002B1FBF06
:10028000B3FA83F503FA05F424FA05F65E4012BFCB
:100290001643B2FA82F502FA05F4C5F120051EBF35
:1002A00022FA05FC44EA0C04203556EA044C4FEAD5
:1002B000144418BF641C4FF000084FF0000990422E
:1002C00071EB030C39D3002919BFB1FA81F701FA98
:1002D00007F6B0FA80F700FA07F6C7F120071EBF4D
:1002E00020FA07FC46EA0C062037B6FBF4FCA7EB25
:1002F0000507103F07F01F0BCBF120060CFA0BFB94
:100300002CFA06F644BFB3460026202FA4BF5E4653
:100310004FF0000B5BEA060C08BF4FF0010B19EB26
:100320000B09ABFB027C48EB0608C01B06FB02CCAA
:100330000BFB03CC71EB0C01C1E70B4602464146B7
:100340004846BDE8F08B13B54FF000004FF00001B8
:10035000AFF30080BDE81C4070474FF0000200B5CD
:10036000134694469646203922BFA0E80C50A0E8D8
:100370000C50B1F12001BFF4F7AF090728BFA0E886
:100380000C5048BF0CC05DF804EB890028BF40F852
:10039000042B08BF704748BF20F8022B11F0804F94
:1003A00018BF00F8012B70477047704770477546BB
:1003B00000F02CF8AE4605006946534620F00700D1
:1003C000854618B020B5FFF73FFFBDE820404FF04D
:1003D00000064FF000074FF000084FF0000B21F02F
:1003E0000701AC46ACE8C009ACE8C009ACE8C009FC
:1003F000ACE8C0098D46704710B50446AFF30080E5
:100400002046BDE81040FFF70ABF000000487047D3
:100410007401002001491820ABBEFEE7260002004F
:100420007047FEE770474FF4807000F065BB72B60E
:10043000FEE700002DE9F84F00270446009790F8EA
:100440005000DFF8AC930D46B846012811D00126C4
:1004500084F85060206801F025FE60B1606D40F0C6
:10046000200060655FF0010784F85080384600F096
:10047000D5B90220FBE76868052808D8022825D0EE
:10048000032825D0042825D0052825D0062021685A
:100490000C2303EA901319442A680B6B00F01F0029
:1004A0004FF01F0C0CFA00FCC2F3846223EA0C0329
:1004B000824013430B63206801F0F4FD82462068FC
:1004C00001F0ECFD5AEA000009D09AE00C20DEE7CA
:1004D0001220DCE71820DAE74FF48070D7E7AA682B
:1004E0002968206801F0E2FD20686969C268C2F3EA
:1004F000C102520091402A69042A0FD000EB820009
:100500002B68026EDFF8ECC203F0F84302EA0C023B
:100510000B431A4342F00041016672E0002101F0F2
:10052000B7FD400320684FF0000172D001F0B0FD2C
:1005300090FAA0F0B0FA80F1286842036ED090FAE9
:10054000A0F0B0FA80F0814204D100221146206868
:1005500001F0BBFD0121206801F09AFD40032068F5
:100560004FF001015DD001F093FD90FAA0F0B0FAD8
:1005700080F12868420359D090FAA0F0B0FA80F0D8
:10058000814204D100220121206801F09EFD022158
:10059000206801F07DFD400320684FF0020148D043
:1005A00001F076FD90FAA0F0B0FA80F128684203DD
:1005B00044D090FAA0F0B0FA80F0814204D1002239
:1005C0000221206801F081FD0321206801F060FD17
:1005D000400320684FF0030133D001F059FD90FA39
:1005E000A0F0B0FA80F1286842032FD090FAA0F072
:1005F000B0FA80F0814204D100220321206801F08A
:1006000064FD2068816811F0010F22D0ABE000E0AA
:1006100004E001F03DFDC0F384618DE7C0F3846028
:1006200091E701F035FDC0F38461A2E7C0F3846077
:10063000A6E701F02DFDC0F38461B7E7C0F3846045
:10064000BBE701F025FDC0F38461CCE7C0F3846013
:10065000D0E72A7B296850F8B03FC1F3120C23EA97
:100660000C0302F0180C644A22FA0CF20A401343FD
:100670000360E968494576D1286841031BD090FAA8
:10068000A0F1B1FA81F1491C01F01F0109294FEADB
:10069000403131D8002911D090FAA0F1B1FA81F19E
:1006A00001F1010101F01F0106FA01F609D100BFB5
:1006B000C0F3846109E0C0F38461E4E7C0F38461BE
:1006C000EEE790FAA0F1B1FA81F101F1010101F038
:1006D0001F0146EA816102D1C0F3846003E090FA11
:1006E000A0F0B0FA80F000F1010000F01F0000EB74
:1006F000400041EA005132E000290ED090FAA0F10A
:10070000B1FA81F101F1010101F01F0106FA01F6D0
:1007100006D100BFC0F3846106E0C0F38461F1E755
:1007200090FAA0F1B1FA81F101F1010101F01F018C
:1007300046EA816102D1C0F3846003E090FAA0F040
:10074000B0FA80F000F1010000F01F002B4A00EB2E
:10075000400002EB005041EA000141F00071AA683C
:10076000206801F0A3FC26482A6802423FF47CAED0
:1007700024488168244D254B01F0E071AA421BD129
:100780000D0219D422689A427FF46EAE826841F459
:10079000000122F0E0720A4382601D481D49006892
:1007A000B0FBF1F0401C00EB4000800000E0401E78
:1007B00000900028FBD157E6174DAA4207D1CD0182
:1007C00005D422689A42F6D141F080710AE06FF0B8
:1007D0000045EA42EFD14A02EDD422689A42EAD1BA
:1007E00041F48001826822F0E0720A4382603BE6B5
:1007F00000007F4000F0FF03FFFF0700000020FE25
:100800000000088000030450000052C7000004509C
:100810000C000020400D0300000084CB18BCBDE894
:10082000E08F0000F8B54FF0000504002E4600955B
:1008300002D0606D10B107E00120F8BD204600F045
:10084000C5F8A66584F8506020688168C1F34071DE
:1008500019B18168554A1140816020688168C1F3EF
:10086000007189B98168524A114041F0805181601C
:10087000504851490068B0FBF1F04000801C00E096
:10088000401E00900028FBD120688168C1F30071F0
:1008900041B9616D41F010016165A16D41F0010147
:1008A000A165012501F0FEFB616DC90600D430B1E0
:1008B000606D40F01000606501252846F8BD606D50
:1008C00020F4807040F0020060652068806810F0BD
:1008D000010F0BD13948806810F0010F06D138485C
:1008E0006168826822F47C120A438260E168606B6E
:1008F000627E0843A16841EA4231084394F820101F
:1009000040EA0140012904D1A18C2E4A02EB414169
:100910000843A16A29B101F47071E26A014342EA15
:1009200001002168CA68284B1A400243CA60206847
:1009300001F0B4FBA8B9207E94F83010800340EA9F
:1009400041022068C16844F2020399431143C16027
:1009500094F8380001280CD02068016921F00101C9
:100960000161206901282068016B21F00F0111D07D
:1009700013E0D4E90F010843D4E9111211430843ED
:1009800021680A6940F2FC739A43104340F0010069
:100990000861E6E7E269521E11430163606D20F0D1
:1009A000020040F00100606587E70000C0FFFF5FC4
:1009B000C0FFFF7F0C000020400D0300000004502A
:1009C000000304500000FEFF07C0F0FF10B59EB00A
:1009D0000446142117A8FFF7C0FC5C216846FFF706
:1009E000BCFC1C492068884231D14FF48040009003
:1009F0008003012414901020CDE9024007200490C8
:100A00000220019405900690C0050790684600F00A
:100A100069FB08B1FFF70BFD0F48C16C41F40051B1
:100A2000C164C16C01F400511C91C16C41F0010121
:100A3000C164C06C17A900F001001C900B20CDE927
:100A40001740002019904FF0904000F061F81EB060
:100A500010BD0000000004500010024010B540B16D
:100A600090F825100022022905D00421C16380F8E6
:100A70002420012010BD01680B6823F001030B60E6
:100A800001680B6823F00E030B6090F84410046CAF
:100A900001F01C03012101FA03F3636080F82510C3
:100AA00080F82420002010BD10B590F825100024F7
:100AB000022903D00421C16301241AE001680A68F5
:100AC00022F001020A6001680A6822F00E020A6040
:100AD00090F84410036C01F01C02012101FA02F2AB
:100AE0005A6080F82510002180F82410816B01B134
:100AF0008847204610BD7047044910B50A68024275
:100B000002D00860FFF7F7FF10BD00001404014099
:100B10002DE9F04FDFF8AC9100230325A9F1040B78
:100B200085B04FF0010C0F2709F1040AABF1040E58
:100B3000BFE000BF0CFA03F6324075D00C7904F028
:100B40000304012C01D0022C1BD1846800945C00AA
:100B500005FA04F80494009C24EA08040094D1F8EF
:100B60000C80049C08FA04F8009C48EA0408C0F8C9
:100B700008804468B4430E79C6F300169E402643AD
:100B800046600C79E443A4070AD0C4684FEA4308DE
:100B900005FA08F6B4438E6806FA08F62643C660DE
:100BA0000C7904F00304022C10D1DC0800EB84045F
:100BB0000294246A5E074FEAD66807FA08F6B4433F
:100BC0000E6906FA08F62643029C266204684FEA7C
:100BD000430805FA08F6B4430E7906F0030606FA50
:100BE00008F6264306604C6814F4403F60D0364C4B
:100BF000266E46F001062666246E23F0030604F0F6
:100C000001040094314C34440294A4689E074FEAD6
:100C1000167807FA08F6B443B0F1904F05D02C4E81
:100C2000B04204D1012612E042E000260FE0294E36
:100C3000B04201D102260AE0274EB04201D103267C
:100C400005E0264EB04201D1042600E0072606FA50
:100C500008F62643029CA660D9F800604C46D1F8FD
:100C6000048096435FEAC82800D516432660DAF868
:100C700000405646D1F8048094435FEA882800D5A6
:100C800014433460DBF800405E46D1F8048094439E
:100C90005FEA883800D514433460DEF800407646B9
:100CA000D1F8048094435FEAC83800D51443346017
:100CB0005B1C0A6832FA03F47FF43CAF05B000F025
:100CC0000FB800000804014000100240000001407D
:100CD0000004004800080048000C004800100048CC
:100CE00030BCBDE8C08F0AB1816170478162704736
:100CF00001488068704700000000002090F8412003
:100D0000202A24D190F84020012A20D0012280F806
:100D10004020242280F841200268136823F0010358
:100D200013600268136823F4805313600268136829
:100D30000B43136001680A6842F001020A60202137
:100D400080F84110002180F84010084670470220CA
:100D5000704790F84120202A22D190F84020012AA3
:100D60001ED0012280F84020242280F84120026811
:100D7000136823F0010313600268136823F470639F
:100D800043EA0121116001680A6842F001020A6029
:100D9000202180F84110002180F84010084670475B
:100DA0000220704770B5040004D094F8410000257B
:100DB00010B106E0012070BD84F84050204600F0DC
:100DC0004FF8242084F841002068016821F00101D7
:100DD00001606068216820F07060086120688168A7
:100DE00021F400418160E0680128A06830D040F41F
:100DF000044021688860E0680228206841682AD0A1
:100E000021F40061416020684168144A1143416047
:100E10002068C16821F40041C160D4E9040108439D
:100E2000A16940EA01202168C860D4E907010843AC
:100E3000216808602068016841F001010160656473
:100E4000202084F84100256384F84250002070BDC2
:100E500040F40040CDE741F40061D3E70080000298
:100E600030B59DB00446142117A8FFF776FA5C212F
:100E70006846FFF772FA17492068884228D1402057
:100E8000002500900C95684600F02CF908B1FFF79A
:100E9000CEFA114CE06C40F00200E064E06C17A95F
:100EA00000F002001C904FF4407017901220CDE922
:100EB000180503201A9004201B900848FFF728FE0D
:100EC000A06D40F40010A065A06D00F400101C900F
:100ED0001DB030BD00540040001002400004004826
:100EE0000248816802781144816070470000002048
:100EF00010B50024032000F071F80F2000F008F86E
:100F000008B1012401E000F025F8204610BD0000E2
:100F100070B50E4E05460024307898B14FF47A71C2
:100F2000B1FBF0F00A490968B1FBF0F000F0BAFE3D
:100F300040B9102D06D200222946501E00F02EF88E
:100F4000756000E00124204670BD00000000002014
:100F50000C000020094808B5016E41F0010101664E
:100F6000016E01F001010091816D41F080518165B8
:100F7000806D00F08050009008BD0000001002401D
:100F8000002809DB00F01F02012191404009800088
:100F900000F1E020C0F8001170470000F0B40E4BE3
:100FA0001B680C46C3F30223C3F10705042D00D9C7
:100FB0000425191D072901D2002300E0DB1E0126AC
:100FC00006FA05F1491E214099409E40761E1640C2
:100FD0003143F0BC01F049BD0CED00E0064900F0E2
:100FE000070208684FF6FF03184040EA0220034A50
:100FF00010430860704700000CED00E00000FA05A7
:101000001649B0F5007F0868C0F3412009D00228D6
:1010100005D0086820F4C06040F4806008600020BB
:1010200070470128FBD0086820F4C06040F40070CD
:1010300008600B483222006850430A4AB0FBF2F0C5
:10104000401C00E0401E4A69520501D50028F9D134
:1010500048694005E3D50320704700000070004058
:101060000C00002040420F000248006800F4C060FD
:1010700070470000007000400248016841F4807130
:10108000016070470070004010498A6B42F0807226
:101090008A638A6B22F080728A63D0E9001211435E
:1010A00082681143C2680A43018A42EA0142084940
:1010B0004A600A68406922F47C5242EA00200860D3
:1010C000086840F0600008607047000000100240AF
:1010D000006000400248016841F00401016070476F
:1010E000001002402DE9F84F044600270088A84D63
:1010F0003E46000515D5606C60B1B0F5000F04D018
:10110000B0F5400F2BD001270AE0E86840F48030AA
:10111000E86024E00021201D01F0DAF807001ED06D
:101120003E46206880033AD5A86D4FF00008C00005
:1011300009D4A86D40F08050A865A86D4FF0010853
:1011400000F080500090DFF84CA2DAF8001041F473
:101150008071CAF80010FFF7CBFD814610E0D5F88A
:101160008800616C20F440000843C5F88800D8E787
:10117000FFF7BEFDA0EB0900022801D9032705E017
:10118000DAF80000C005F3D5002F7DD04FEA07063E
:10119000B8F1000F03D0A86D20F08050A86520782A
:1011A000C00707D0D5F88800216A20F00300084363
:1011B000C5F888002078800707D5D5F88800616ACF
:1011C00020F00C000843C5F888002078400707D5B8
:1011D000D5F88800A16A20F030000843C5F88800DF
:1011E0002078800607D5D5F88800E16A20F44060B1
:1011F0000843C5F888002088800507D5D5F8880001
:10120000E16B20F440200843C5F8880020884005A1
:1012100007D5D5F88800216C20F440100843C5F8A4
:1012200088002078400607D5D5F88800216B20F487
:1012300040500843C5F888002078000607D5D5F847
:101240008800616B20F440400843C5F8880020887E
:10125000C00507D5D5F88800A16B20F440300843BD
:10126000C5F8880020684FF0006700034FF08068E1
:1012700050D5D5F88800A16C20F040600843C5F82F
:101280008800A06CB84200E005E03BD1E86840F47B
:101290008010E8603EE0D5F8900010F4407014D063
:1012A000A16D814211D0D5F89000D5F8901020F4AE
:1012B000407041F48031C5F89010D5F8901021F4B9
:1012C0008031C5F89010C5F89000C00711D0FFF725
:1012D0000FFD074641F2883907E000BFFFF708FD20
:1012E000C11B494501D9032652E7D5F89000800774
:1012F000F4D5D5F89000A16D20F440700843C5F8EE
:10130000900045E7404505D10121201D00F0E0FF98
:1013100000B106462068400317D5D5F88800E16C77
:1013200020F040600843C5F88800E06CB84204D162
:10133000E86840F48010E86007E0404505D10121ED
:10134000201D00F0C5FF00B106462088400411D5DD
:10135000D5F88800216D20F040500843C5F888007A
:10136000206DB0F1805F05D10221201D00F0B0FF9B
:1013700000B106462088000406D555F8880F616D37
:1013800020F0804008432860304600F005B8000097
:10139000001002400070004018BCBDE8E08F000063
:1013A0002DE9F0470F4605006BD0494E306800F03C
:1013B0000700B84209D2306820F007003843306097
:1013C000306800F00700B8425BD12878414C8007B4
:1013D0000AD5A868A16801F0F001884204D9A16883
:1013E00021F0F0010143A1602878C0072CD0686883
:1013F000032811D0022812D0216898B1490500298C
:101400003FDAA16821F003010143A160FFF770FCFE
:10141000804641F2883910E021688901EFE72168B0
:101420008903ECE78907EAE7FFF762FCA0EB080114
:10143000494502D90320BDE8F087A068696800F03B
:101440000C00B0EB810FEFD1287880070AD5A8688F
:10145000A16801F0F001884204D2A16821F0F001F6
:101460000143A160306800F00700B8420BD9306832
:1014700020F0070038433060306800F00700B842C1
:1014800001D00120D7E72878400705D5A068E96892
:1014900020F4E0600843A0602878000706D5A06823
:1014A000296920F4605040EAC100A06000F03EF8D5
:1014B000A168094AC1F30311515C01F01F01C84042
:1014C0000649086006480068BDE8F047FFF720BD00
:1014D0000020024000100240E02A00080C0000201A
:1014E000040000200548064900688968054AC1F3E0
:1014F0000221515C01F01F01C84070470C00002020
:1015000000100240202B0008054806490068896841
:10151000054AC1F3C221515C01F01F01C840704768
:101520000C00002000100240202B000870B5254957
:10153000002318468A68CC6812F00C0204F00306F7
:10154000214C4FEA640509D00C2A05D0042A32D078
:10155000082A00D1284670BD012E10D10B681B0748
:1015600004D4D1F89430C3F3032302E00B68C3F32F
:101570000313164E56F82330DAB10C2AEBD1C868A3
:1015800000F00300022818D0032818D01846CA68B3
:10159000CB68C2F30212C3F306234343521CB3FBCE
:1015A000F2F2C868C0F34160401C4000B2FBF0F0AA
:1015B00070BD184670BD204670BD2046E7E728463E
:1015C000E5E70000001002400024F400F02A0008C3
:1015D0002DE9F84304006FD0FA4DA86800F00C061E
:1015E000E86800F003072078C00664D576B10C2EB9
:1015F00001D1012F0AD0A069002828687AD040F0D4
:1016000001002860FFF774FB80465DE028688007D2
:1016100002D5A0690028DED0216A2868000703D51A
:10162000286800F0F00004E0D5F89400F02202EA07
:101630001010814216D9084600F0E0FE00283BD188
:10164000286840F0080028602868216A20F0F0002F
:10165000084328606868E16920F47F4040EA01207F
:10166000686016E0286840F0080028602868216A51
:1016700020F0F000084328606868E16920F47F40AA
:1016800040EA0120686026B9206A00F0B7FE002811
:10169000D5D1FFF74BFFA968CB4AC1F30311515CC9
:1016A00001F01F01C840C9490860C9480068FFF738
:1016B0002FFC00287ED12EE0CAE000BFFFF718FB08
:1016C000A0EB0800022876D828688007F6D528689D
:1016D00040F0080028602868216A20F0F0000843E4
:1016E00028606868E16920F47F4040EA0120686072
:1016F00011E0FFE720F001002860FFF7F9FA8046CB
:1017000006E000BFFFF7F4FAA0EB08000228DAD8E1
:1017100028688007F6D42078C00740D0082E18D05B
:101720000C2E01D1032F14D06068B0F5803F17D084
:10173000B0F5A02F286817D020F4803028602868E2
:1017400020F4802028606068E0B1FFF7D1FA80467D
:1017500014E02868800322D56068002878D01EE055
:10176000286840F48030EDE740F480202860F7E7F7
:10177000FFF7BEFAA0EB08006428A4D8286880030D
:10178000F6D50CE0FFF7B4FA804605E0FFF7B0FAB3
:10179000A0EB0800642896D828688003F6D4207847
:1017A00080073BD5042E11D00C2E01D1022F0DD075
:1017B000E06801E0AAE1FFE0002828681ED040F4BC
:1017C00080702860FFF794FA07460CE0286840050F
:1017D0000CD5E0680028C1D008E000BFFFF788FA08
:1017E000C01B022893D828684005F7D56868217C7B
:1017F00020F0F85040EA016068600FE020F480704B
:101800002860FFF775FA074605E000BFFFF770FA9A
:10181000C01B0228B1D828684005F7D420780007FB
:1018200029D560690028D5F8940012D040F0010055
:10183000C5F89400FFF75CFA074604E0FFF758FA92
:10184000C01B022899D8D5F894008007F6D512E07D
:101850002BE120F00100C5F89400FFF749FA074694
:1018600005E000BFFFF744FAC01B022885D8D5F871
:1018700094008007F6D42078400766D5A86D00272D
:10188000C00008D4A86D40F08050A865A86D01275D
:1018900000F0805000904F480168C90512D40168DB
:1018A000814641F480710160FFF722FA804605E02D
:1018B000FFF71EFAA0EB080002287DD8D9F8000037
:1018C000C005F5D5A068012816D00528D5F89000E8
:1018D00017D020F00100C5F89000D5F8900020F056
:1018E000040000BFC5F89000A06841F28839C0B17B
:1018F000FFF7FEF980460FE0D5F8900040F00100B8
:10190000F0E740F00400C5F89000F5E7FFF7F0F9C4
:10191000A0EB080149454FD8D5F890008007F5D5D0
:101920000EE0FFF7E5F9804606E000BFFFF7E0F9BB
:10193000A0EB080149453FD8D5F890008007F5D4C1
:101940001FB1A86D20F08050A8652078800628D5AA
:10195000606A0028D5F8980012D040F00100C5F860
:101960009800FFF7C5F9074605E000BFFFF7C0F98B
:10197000C01B022820D8D5F898008007F6D510E0C3
:1019800020F00100C5F89800FFF7B2F9074604E01F
:10199000FFF7AEF9C01B02280ED8D5F898008007D3
:1019A000F6D4A06AF0B3022816D00C2E7DD0286899
:1019B00020F08070286000E0A7E0FFF799F9044666
:1019C000A6E0000000100240E02A00080C00002001
:1019D0000400002000700040E868E26A00F00301A3
:1019E000914228D1216B00F0700209011039914217
:1019F00021D1626B00F4FE41B1EB022F1BD194F8B0
:101A0000382000F07841B1EBC26F14D1A18F00F4FF
:101A1000C00249084905A1F5001191420BD194F883
:101A2000401000E06AE04908490600F0C060A1F1FA
:101A3000007181424BD00C2E73D02868400170D4C5
:101A4000286820F080702860FFF752F9064604E00D
:101A5000FFF74EF9801B022857D828688001F7D479
:101A6000F4E90B016FF00F0202EB01110843218A28
:101A70005204490802EB4151A26841EA022108439D
:101A8000217D4FF07E42490802EB41610843217BF2
:101A900040EAC160E968244A11400843E8602868C8
:101AA00040F080702860E86800E03AE040F0807024
:101AB000E860FFF71DF9044605E000BFFFF718F9DD
:101AC000001B022821D828688001F7D527E0286864
:101AD000800124D4286840F080702860E86840F0D5
:101AE0008070E860FFF704F9044604E0FFF700F9AE
:101AF000001B022809D828688001F7D50FE000BF35
:101B0000FFF7F6F8001B022802D90320BDE8F8838E
:101B100028688001F4D4E86804490840E86000209F
:101B2000F4E70120F2E700008C809D01FCFFEEFE4F
:101B30007047000010B50B4904464FF48010086050
:101B40002068C168490508D5C16801F0800161F4C9
:101B50009061C1602046FFF7EBFF012084F821006F
:101B600010BD00001404014010B504004FF0010046
:101B700048D094F8210028B9002084F8200020469D
:101B800000F04AF8022084F821002068C168C943A7
:101B9000C90638D5CA2141622168532048622046CF
:101BA00000F06AFCB0B9206881681A4A114081606F
:101BB000216888686268A369104322691A43104348
:101BC00088602168E068086120680169228941EA2B
:101BD00002410161204600F073FC00280DD121680C
:101BE000CA6C22F00302CA646269E16941EA020137
:101BF0002268D36C41EA0301D16422684FF0FF01EF
:101C0000516202D010BD4FF000004FF0010184F886
:101C1000211010BDBFFF8FFF10B598B004465C21A6
:101C20006846FEF79AFB0F492068884218D14FF4A6
:101C300000300090401216906846FFF753FA08B142
:101C4000FEF7F5FB084850F8901F41F40041016091
:101C5000002201210320FFF7A1F90320FFF790F9EB
:101C600018B010BD002800400010024070B50446B6
:101C70000B482168C860FFF73BF805464FF47A76B9
:101C800007E000BFFFF734F8401BB04201D9032042
:101C900070BD2068C0688006F4D5002070BD0000CB
:101CA0005FFF030010B5401EB0F1807F01D301201B
:101CB00010BD4FF0E02460610F21601700F0D5FEE9
:101CC0000020A06107202061002010BD70477047F0
:101CD000704700002DE9F04102680446D0691168A0
:101CE000936840F60F0528424FF000054FF00206BA
:101CF00005D187067ED58F067CD5A16E33E1DFF84E
:101D000094C203F0010701EA0C0C57EA0C0C71D0E5
:101D10005FEAC07C0CD05FEAC15C09D54FF0010CD2
:101D2000C2F820C0D4F8842042F00102C4F8842014
:101D3000820709D5DA0707D022681662D4F8842012
:101D400042F00402C4F8842042070AD5DA0708D01A
:101D5000236804221A62D4F8842042F00202C4F8F4
:101D6000842002070CD501F020023A4308D02368F2
:101D700008221A62D4F8842042F00802C4F88420B1
:101D800002050BD54A0109D523684FF400621A6297
:101D9000D4F8842042F02002C4F88420D4F88420AF
:101DA000002A36D0800605D5880603D5A16E09B174
:101DB00020468847D4F8840021688968490602D4FF
:101DC00010F0280F27D0204600F0D7FC206880684C
:101DD00040061BD52068083050E8001F21F0400164
:101DE00040E80012002AF5D1606F78B16A4981633A
:101DF000606F00E015E0FEF757FE002809D0606F25
:101E0000816B00E02046BDE8F04108472046FFF71F
:101E10005FFFBDE8F0812046FFF75AFFC4F8845009
:101E2000F7E7D4F860C02027BCF1010F7ED15FEA4C
:101E3000C06C7BD55FEAC16C78D510201062206839
:101E4000806840064FD5616F0A6850680004000C36
:101E50003DD0B4F85830834239D9A4F85A00086804
:101E6000006880062BD4206850E8001F21F48071A0
:101E700040E80012002AF6D12068083050E8001F20
:101E800021F0010140E80012002AF5D12068083055
:101E900050E8001F21F0400140E80012002AF5D16F
:101EA000C4F880702566206850E8001F21F01001FA
:101EB00040E80012002AF6D1606FFEF7CFFD66669B
:101EC000B4F85800B4F85A10401A81B207E0B4F8D8
:101ED000581081429DD1106880069AD566662046CA
:101EE000FFF7F4FE95E7B4F85800B4F85A10401A1A
:101EF00081B2B4F85A0000288BD0002989D022681A
:101F000052E8000F20F4907042E80003002BF6D155
:101F10002068083050E8002F22F0010240E800233A
:101F2000002BF5D1C4F88070256600E00AE0A566B4
:101F3000226852E8000F20F0100042E80003002B56
:101F4000F6D1CBE7C60209D55B0207D54FF4801066
:101F500010622046BDE8F041FFF7B9BE020606D583
:101F60000A0604D5E16E00297FF44CAF51E7400624
:101F7000B8D54806B6D52046026852E8001F21F0C1
:101F8000400142E80013002BF6D1C767C56600F098
:101F90007DF83EE7200100047127000810B5040019
:101FA00002D0E06F10B107E0012010BD002084F8DE
:101FB0007800204600F026F82420E06720680168B9
:101FC00021F001010160606A10B1204600F018FBA9
:101FD000204600F0F9FB0128E7D02068416821F491
:101FE000904141602068816821F02A018160206869
:101FF000016841F0010101602046BDE8104000F099
:1020000063BB000030B59DB00446142117A8FEF74D
:10201000A4F95C216846FEF7A0F91A4920688842B5
:102020002ED102240025684609950094FFF75AF83E
:1020300008B1FEF7FCF91448816D41F40031816567
:10204000816D01F400311C91C16C41F00101C1644A
:10205000C06C17A900F001001C900C2081E8310031
:1020600003201A9007201B904FF09040FEF750FD80
:10207000002202212620FEF791FF2620FEF780FF96
:102080001DB030BD00440040001002407047FEE724
:1020900000EB8100006E00F0F84070478068C0F3EC
:1020A000C00070478068C0F380007047042303EAD3
:1020B000D15310B518444369C1F3045107248C402F
:1020C000A3438A401343436110BD00EB8100016EBE
:1020D00021F00041114301667047000030B587B020
:1020E00018216846FEF739F9184817490024C0E955
:1020F000001484600425C460C0E904450476447675
:102100000121C16180F820408462C46280F83040BF
:10211000446380F83840FEF785FB08B172B6FEE7ED
:102120000B4800900620CDE901047F200594CDE9FD
:10213000030569460548FEF77DF9002801D072B60F
:10214000FEE707B030BD0000000004501000002082
:102150002000F014F0B587B014216846FEF7FDF8B2
:102160003348C16C41F00401C164C16C01F0040149
:102170000591C16C41F08001C164C16C01F0800126
:102180000591C16C41F00101C164C16C01F0010114
:102190000591C16C41F00201C164C06C4FF09046E2
:1021A00000F002000590002240213046FEF79BFD22
:1021B000204F012203213846FEF795FD4020009074
:1021C00001250024CDE90154694630460394FEF709
:1021D0009FFC8020CDE90004694630460294FEF75A
:1021E00097FC2020CDE900040220029069461248A5
:1021F000FEF78EFC03200090CDE901546946384675
:102200000394FEF785FC280200904FF40410CDE9FA
:10221000010469463046FEF77BFC00221146172078
:10222000FEF7BCFE1720FEF7ABFE07B0F0BD0000C6
:10223000001002400004004800080048124810B591
:10224000104901601149416000210122C0E90212D8
:10225000016141618161C1610162FEF7A3FD08B1C5
:1022600072B6FEE700210848FEF748FD08B172B6D5
:10227000FEE700210448FEF76CFD002801D072B68D
:10228000FEE710BD0054004074000020E49CD11013
:102290000C4810B50A4901604FF4E131416000215A
:1022A00081600C22C160C0E904128161C1610162D8
:1022B0004162FFF773FE002801D072B6FEE710BD41
:1022C00000440040EC000020FEE7FEE770470000FD
:1022D0002DE9F041444C05468846E0680026810718
:1022E00028680DD0E16801F00301814216D1A8B140
:1022F000E0686968C0F30210401C88420ED120E0FB
:10230000012804D0022805D0032807D108E021685D
:10231000890701E021684905002907DB01265FE004
:102320002168890302D421684903F5E7E1686A68F6
:102330006FF00F0321F0730103EB0212114301430D
:10234000E160206820F080602060FEF7D1FC074645
:1023500005E000BFFEF7CCFCC01B022837D8206880
:102360000001F7D4B8F1000F18D0B8F1010F1DD05B
:10237000287D4FF07E41400801EB4060A96840EAAB
:1023800001202169194A114008432061206840F06A
:1023900080602060FEF7ACFC07461AE0A868297B45
:1023A000000240EAC1602169114AECE7288A11491C
:1023B000400801EB4050A96840EA012021690E4A1B
:1023C000E1E700BFFEF794FCC01B022801D90326F9
:1023D00006E020680001F5D52069A969084320615D
:1023E0003046BDE8F081000000100240FF80FFF998
:1023F000FF80FF070000E0FFFF809FFFF8B51C4D46
:1024000006460024A86DC00002D5FEF72DFE0DE0A3
:10241000A86D40F08050A865A86D00F08050009035
:10242000FEF722FEA96D21F08051A965B0F5007F6D
:1024300004D0802E07D94FF003040AE0802E08D97B
:10244000A02E01D804E001D1022402E0702E00D1B8
:1024500001240848016821F0070121430160006858
:1024600000F00700A04201D00120F8BD0020F8BD17
:1024700000100240002002402DE9F04104460068AF
:102480000025C168490617D4691EC160FEF730FCFB
:1024900006464FF47A78032708E000BFFEF728FCD1
:1024A000801B404502D9032584F821702068C0684C
:1024B000400601D4032DF1D12846BDE8F08100008B
:1024C0002DE9F041064613480025016821F08001FE
:1024D0000160041F20684FF00307800607D43046D0
:1024E000FFF7C4FB90B186F8217003250EE0206849
:1024F00020F0200020603046FFF7B8FB10B186F8CE
:1025000021700325206840F0200020602846BDE8A7
:10251000F08100000C2800400148FFF70BBB0000D1
:10252000C80000207047FEF7DBBC000030B59DB04E
:1025300044216846FDF711FF142117A8FDF70DFF90
:10254000182111A8FDF709FF4FF40070FEF758FDA0
:1025500008B172B6FEE7FEF78FFD244DD5F8900066
:1025600020F01800C5F8900014200090012002907F
:10257000002460210690CDE907410221CDE90A102F
:102580000C9028200D900720CDE90E01684610918F
:10259000FFF71EF808B172B6FEE70F201790032070
:1025A000CDE918041A94042117A81B94FEF7F8FE2D
:1025B00008B172B6FEE7FEF78DFDA86D40F08070A1
:1025C000A865A86D00F080701C904FF08050CDE998
:1025D000114040F2B750CDE9134022201590202041
:1025E000169011A8FEF750FD1DB030BD001002403E
:1025F0000248016841F470010160704788ED00E015
:1026000090F82410090706D501684A68436B22F444
:1026100000421A434A6090F82410C90706D00168A6
:102620004A68836A22F400321A434A6090F8241000
:10263000890706D501684A68C36A22F480321A43C2
:102640004A6090F82410490706D501684A68036B70
:1026500022F480221A434A6090F82410C90606D555
:1026600001688A68836B22F480521A438A6090F86A
:102670002410890606D501688A68C36B22F40052CB
:102680001A438A6090F82410490611D501684A68F7
:10269000036C22F480121A434A60016CB1F5801F6A
:1026A00006D101684A68436C22F4C0021A434A60AA
:1026B00090F82410090606D501684A68806C22F457
:1026C000002202434A6070472DE9F8430026044681
:1026D000C0F88460FEF70CFB8046206800684FF06D
:1026E000200500076FF07E4712D5434600222904DB
:1026F0002046009700F068F950B1216851E8000FBA
:1027000020F0800041E80002002AF6D1E56721E0D0
:1027100020680068400722D5434600224FF480011C
:102720002046009700F050F9C8B1216851E8000F29
:1027300020F4907041E80002002AF6D120680830A9
:1027400050E8001F21F0010140E80012002AF5D1F5
:10275000C4F8805084F878600320BDE8F883E5670A
:10276000C4F8805044F8606F666026760020F4E775
:1027700010B5806AFFF7ACFA10BD016851E8002F70
:1027800022F4907241E80023002BF6D10168083151
:1027900051E8002F22F0010241E80023002BF5D17F
:1027A000016E012908D1026852E8001F21F01001D2
:1027B00042E80013002BF6D12021C0F88010002140
:1027C00001668166704700002DE9F041044601680A
:1027D00080682269E3691043626900251A43104347
:1027E000714F0A68714B1A4002430A6020684168C1
:1027F000E26821F44051114341602168A069B94267
:1028000001D0226A10438A6822F4306202438A604F
:102810006749236867488B420DD1D0F8880010F0D3
:10282000030006D0012847D0022843D0032830D126
:1028300044E001212EE060498B420BD1D0F88800A2
:1028400010F00C0034D0042836D0082832D00C28E0
:102850001FD133E059498B420BD1D0F8880010F0DA
:10286000300025D0102827D0202823D0302810D1A0
:1028700024E0BB420DD1D0F8880010F4406017D09E
:10288000B0F5806F18D0B0F5006F13D0B0F5406F81
:1028900014D010214A4A00264FF40040BB422FD1E9
:1028A00071B102290FD004290FD0082973D10FE08C
:1028B0000021EFE70221EDE70421EBE70821E9E73A
:1028C000FEF710FE03E0104602E0FEF72FFEE8B32D
:1028D000626802EB420181425DD8B0EB023F5AD8F8
:1028E000010E03025008181871410023FDF7BEFCC9
:1028F000344AA0F5407191424DD82168C8604BE040
:10290000E3694FF6EF77834228D1092943D2DFE804
:1029100001F005080B420D4242421000FEF7E2FDB5
:1029200006E0FEF7F1FD03E0104602E0FEF7FEFDD3
:1029300060B14100606801EB5001B1FBF0F0A0F123
:102940001001B94227D84FF6F07100E024E00140B1
:10295000C0F3420001432068C1601DE009291AD27A
:10296000DFE801F005080B190D1919191000FEF721
:10297000B9FD06E0FEF7C8FD03E0104602E0FEF7F1
:10298000D5FD48B1616800EB5100B0FBF1F0A0F15A
:102990001001B94205D90125A6662846E666BDE8BC
:1029A000F08180B2A9E7000000800040F369FFEFEA
:1029B0000038014000100240004400400048004040
:1029C0000024F400FFFC0F002DE9F047994617465C
:1029D0000D4604464FF00008089E33E0701C31D0CD
:1029E000FEF786F9A0EB0900B04218D8BEB1206806
:1029F0000168490726D5802D24D0402D22D0C169F9
:102A0000C94309070DD4082505622046FFF7B5FE26
:102A1000C4F8845084F878800120BDE8F087032052
:102A2000FBE7C069C04300050CD421684FF4006087
:102A300008622046FFF7A1FE2020C4F8840084F835
:102A40007880ECE72068C06935EA000004D00020F7
:102A5000B842C3D00020E0E70120F9E70148FFF7C2
:102A600039B90000EC000020FEE70907090E002834
:102A700004DB00F1E02080F80014704700F00F0044
:102A800000F1E02080F8141D70470000FEF730FAD6
:102A9000FFF74CFDFFF75EFBFFF720FBFFF7CEFBD8
:102AA0000B480A497F2201600021C0E90112FF2280
:102AB000C0E9032141618161C161FFF755F808B1A7
:102AC00072B6FEE7FFF7E4FBFEE7000000280040D7
:102AD000C80000204FF04070E1EE100A704700007F
:102AE00000000000000000000102030406070809BE
:102AF000A0860100400D0300801A060000350C007E
:102B000040420F0080841E0000093D0000127A0040
:102B10000024F40000366E010048E801006CDC027D
:102B20000000000001020304482B00080000002000
:102B300010000000C8010008582B000810000020F9
:102B4000C8070000E40100080100000010000000B8
:082B50000000000000093D0037
:040000050800018D61
:00000001FF
