:020000040800F2
:1000000080130020313800080D0300080F0300089A
:1000100013030008170300081B030008000000007A
:100020000000000000000000000000001F030008A6
:100030002103000800000000230300082503000836
:100040004B3800084B3800084B3800084B38000884
:100050004B3800084B3800084B3800084B38000874
:100060004B3800084B380008AF0700084B38000831
:100070004B3800084B3800084B3800084B38000854
:100080004B3800084B3800084B3800084B38000844
:100090004B3800084B3800084B3800084B38000834
:1000A0004B3800084B3800084B3800084B38000824
:1000B0008D070008630500084B3800084B3800081E
:1000C0004B3800084B3800084B3800084B38000804
:1000D0004B380008B13700084F2200084B380008A1
:1000E0004B3800084B3800084B3800084B380008E4
:1000F0004B3800084B3800084B3800084B380008D4
:100100004B3800084B3800084B3800084B380008C3
:100110004B3800084B3800084B3800084B380008B3
:100120004B3800084B3800084B3800084B380008A3
:1001300000F002F800F079F80AA090E8000C824480
:100140008344AAF10107DA4501D100F06EF8AFF25D
:10015000090EBAE80F0013F0010F18BFFB1A43F0A5
:1001600001031847B0A60000D0A600000A444FF0D3
:10017000000C10F8013B13F0070408BF10F8014B06
:100180001D1108BF10F8015B641E05D010F8016B4B
:10019000641E01F8016BF9D113F0080F1EBF10F8AF
:1001A000014BAD1C0C1B09D16D1E58BF01F801CBD2
:1001B000FAD505E014F8016B01F8016B6D1EF9D555
:1001C0009142D6D37047000000230024002500266A
:1001D000103A28BF78C1FBD8520728BF30C148BFAA
:1001E0000B607047662909F04484642905F06C832C
:1001F000782905F0A583632905F07B87732905F02D
:100200008087002070471FB506F028F80400002002
:10021000002108F015F9401C60600020002108F062
:10022000F9F8E0601FBD10B510BD06F061F9114688
:10023000FFF7E9FF00F008F806F0DAFB03B4FFF778
:10024000F2FF03BC03F034FA03F0C2F94FF4FA7082
:1002500003F0FBF903F026FA4FF4E13003F036FA2D
:10026000472140F2E73000F04FF905F02CFA00F09A
:100270004DFB00F0DDF900F0FDFB02E0642003F02F
:10028000E4F901F0F5FB0028F8D14FF4165001F025
:10029000ADFE01F00FFF01F069FF03F0ADFA02F0CF
:1002A000A6FC00F0EBF94FF47A7003F0CEF923E0EE
:1002B0001248007820B103F0EEF800200F490870D2
:1002C0000F48007820B101F07AFD00200C49087039
:1002D0000C48007830B100F08EFB02F0EEFD0020FB
:1002E000084908700848007830B102F01AF800F0A8
:1002F00090FA002004490870DAE70000140000209A
:10030000150000201600002017000020704700BFD5
:10031000FEE700BFFEE700BFFEE700BFFEE7704755
:1003200070477047704700000CB5002001900090A6
:100330006C48006840F480306A49086000BF694832
:10034000006800F4003000900198401C0190009873
:1003500018B90198B0F5A06FF1D16248006800F4B7
:10036000003010B10120009001E0002000900098C2
:10037000012843D15C48006840F010005A490860E9
:100380000846006820F0030008600846006840F056
:100390000200086053484068524948600846406877
:1003A00048600846406840F48060486008464068FD
:1003B00020F47C1048600846406840F4E81048602B
:1003C0000846006840F08070086000BF454800683B
:1003D00000F000700028F9D04248406820F0030087
:1003E000404948600846406840F00200486000BF4D
:1003F0003C48406800F00C000828F9D10CBD10B54D
:10040000FFF792FF10BD10B53648006840F00100BC
:10041000344908600846406834490840314948601A
:1004200008460068324908402E49086008460068BE
:1004300020F4802008600846406820F4FE004860F0
:100440004FF41F008860FFF7DAFF4FF00060294982
:10045000086010BD10B5002100200022214B5B6810
:1004600003F00C0121B1042906D0082928D107E0A6
:10047000214B224C236027E01F4B204C236023E0BC
:10048000184B5B6803F47010164B5B6803F4803202
:10049000022303EB904022B9194B4343174C2360CE
:1004A0000DE0104B5B6803F4003323B1144B43435E
:1004B000124C236003E0104B4343104C236003E0D5
:1004C0000D4B0E4C236000BF00BF064B5B68C3F3AF
:1004D00003130C4CE15C094B1B68CB40074C2360B9
:1004E00010BD000000100240002002400000FFF894
:1004F000FFFFF6FE08ED00E000127A000000002089
:1005000000093D00040000207FB505460C4601218E
:10051000022003F044FDADF80850ADF8044000207F
:10052000ADF80A00ADF8060001A9364804F066F8F7
:1005300001221146334804F0D8FB1D208DF800003D
:1005400000208DF8010003208DF8020001208DF8B5
:100550000300684603F091F901212A4804F0AAFB40
:100560007FBD10B50121274804F06DFE002844D05E
:1005700001202549087025480088401C80B2234985
:100580000880322804DB0020088001202049087000
:1005900020480088401C80B21E490880B0F5FA7FD0
:1005A00004DB0020088001201B4908701B480088DC
:1005B000401C80B219490880B0F57A7F04DB002026
:1005C000088001201649087016480088401C80B237
:1005D0001449088041F28831884205DB0020114926
:1005E000088001201049087010480068401C0F491D
:1005F00008600121034804F037FE10BD0B48006875
:10060000704700000004004014000020200000207B
:1006100015000020220000201600002024000020E9
:100620001700002026000020180000201C000020D9
:1006300008B50121082003F0A5FC0121084603F0BC
:10064000A1FC01210B4803F0B2FA4FF48040ADF851
:10065000000010208DF8030003208DF80200694689
:10066000054803F0D3F900224FF48041024803F01B
:100670007EFA08BD00023000000C014000B589B0D0
:100680000121082003F07EFC0121084603F07AFCDA
:100690000121954803F08BFA10208DF823000820E3
:1006A000ADF8200003208DF8220008A98F4803F040
:1006B000ADF948208DF823001020ADF8200008A9DE
:1006C0008A4803F0A3F90121084603F05BFC0421EA
:1006D000012003F0B1FA1020069001208DF81E00D1
:1006E00000208DF81C0010208DF81D0006A804F0D5
:1006F000CDFD4FF4A06003F0BBF80A208DF8140084
:1007000001208DF8170002208DF815008DF81600D5
:1007100005A803F0B2F80121084603F040FC0020D0
:10072000ADF80E00ADF80A004720ADF80C006320CC
:10073000ADF8080000208DF8100002A94FF08040AD
:1007400003F05CFF01221146900704F0CEFA4FF04F
:10075000804004F0E3FA1C208DF8040001208DF89D
:10076000070002208DF8050001208DF8060001A881
:1007700003F083F8002208215C4803F0F8F9002216
:1007800010215A4803F0F3F909B000BD10B501215A
:10079000880704F058FD012808D155480068401C1E
:1007A000534908600121880704F05EFD10BD10B5B3
:1007B000102004F0D1FD01282AD14E48007870B9EC
:1007C00000204B49086001204A4908700021800739
:1007D00004F004FD0121880704F06CFA15E0002103
:1007E0004FF0804004F066FA0020424908704FF054
:1007F000804004F016FD3E49096801EBC10202EB9E
:10080000011100EB81003C490860102004F0B5FDA7
:1008100010BD2DE9FC47002240F22551374803F076
:10082000F0FC0020364908603349086082462EE01B
:10083000012208212D4803F09AF9142002F0E1FE6C
:1008400000220821294803F092F9412002F0FDFE20
:100850002948006808F000F906464FF03332294B6A
:1008600007F0F2FE04460D462548006808F0F4F84B
:10087000804622462B4607F02BFECDE9000108F00A
:10088000A7F81F4908600AF1010000F0FF0ABAF159
:10089000020FCDDB1A480068400819490860084675
:1008A000006808F0D9F804460022174B07F0CCFE88
:1008B000064608F08DF812490860012240F22551E1
:1008C0000E4803F09EFC0E480068C82803D3C820D9
:1008D0000B49086005E00A480068C0F1C8000849F3
:1008E0000860BDE8FC87000000023000000C0140F9
:1008F00028000020340000202C000020004400408C
:1009000030000020333317400000244008B5012197
:10091000082003F037FB0121084603F033FB0121D7
:100920004B4803F044F90220ADF8000048208DF850
:10093000030003208DF802006946464803F066F87C
:1009400008BD10B50221434803F0F3F810BD70B59F
:10095000FFF7F7FF0446FFF751FE05463E480078D3
:10096000B0B93E4804600CB1012000E000203C49D1
:10097000087008460078012801D1284600E00020D0
:10098000384908600120344908703548007870BD46
:1009900032480068844203D0334805602F48046021
:1009A00031480068281A322813D30CB1012100E025
:1009B000002108462A490978814209D0284908704F
:1009C0000978012901D1294600E00021254A11605A
:1009D00000BF2348007801280AD12248006838B1B6
:1009E00020480068281AB0F5FA6F01D30220CEE73C
:1009F0001B480078CBE710B5FFF7A9FF044624B1E8
:100A0000012C06D0022C09D104E0002017490870FF
:100A100004E003E001201549087000BF00BF13483F
:100A2000007870B1012291030A4803F0A0F8104841
:100A3000007860B100200E4908700A2000F044F8E8
:100A400005E000224FF48041024803F090F810BD09
:100A500000023000000C01404C0000203C0000204F
:100A60004400002048000020400000203800002002
:100A70001800002008B50121082003F083FA0121A5
:100A8000084603F07FFA01214B4803F090F84FF439
:100A90000050ADF8000010208DF8030003208DF801
:100AA00002006946454802F0B1FF4FF48050ADF8AE
:100AB000000048208DF8030003208DF802006946ED
:100AC0003E4802F0A3FF08BD70B5044600224FF473
:100AD00000513A4803F04BF8052002F0B6FD00251E
:100AE00023E001225103354803F041F804F00100EE
:100AF00060B1032002F0A9FD00224FF400512F48FD
:100B000003F035F8012002F0A0FD0BE0012002F017
:100B10009CFD00224FF40051284803F028F80320E0
:100B200002F093FD6410681CC5B2082DD9DB0122C8
:100B30005103224803F01BF800BF4FF480511F48B7
:100B400002F0F7FF0028F8D070BD2DE9F04104460F
:100B5000B4F57A7F2DDA642094FBF0F0C5B26420FE
:100B600094FBF0F100FB11400A2190FBF1F0C6B2BA
:100B70000A2094FBF0F100FB1140C7B23DB105F132
:100B80000C01C8B2FFF7A0FF1720FFF79DFF05B9C2
:100B90003EB106F10C01C8B2FFF796FF1620FFF731
:100BA00093FF07F10C01C8B2FFF78EFF1820FFF783
:100BB0008BFFBDE8F081000000023000000C014016
:100BC0002DE9F04704464FF07C51204608F07EFDA9
:100BD000814625462E46FE48A0EB66063546294648
:100BE000484608F073FD8246294608F06FFD8046AE
:100BF0004FF07F5108F036FE0746294608F066FDA3
:100C000005462846BDE8F0872DE9F04104460D462B
:100C10002169206808F054FB60606169606808F031
:100C20004FFB06463146606808F006FCE060284647
:100C3000A16808F0A9FE0746E16808F047FD0646EE
:100C4000A16808F03DFBA0604FF07E50E16808F01D
:100C50009BFE0646616808F039FD2060A068BDE88B
:100C6000F0810FB5A1B0DB480168006808F02EFDE7
:100C70001590D9480168D748006808F027FD1490FE
:100C8000D6480168D348006808F020FD1390D24888
:100C90000168006808F01AFD1290D1480168CE483A
:100CA000006808F013FD1190CC480168006808F056
:100CB0000DFD1090CA480168C848006808F006FD9C
:100CC0000F90C7480168006808F000FD0E90269953
:100CD000249808F0FBFC0C90279908F0F7FC002101
:100CE0000D9008F06BFC01D125B000BD2799084696
:100CF00008F0ECFC08902699084608F0E7FC0690FE
:100D00002499084608F0E2FC0590069908F0D8FA04
:100D10000790089908F0D4FA099008F0A5FACDE9EF
:100D20000A0107F03BFBCDE90C0107F09FFB1C908B
:100D30001C99249808F080FB24901C99269808F0B0
:100D40007BFB26901C99279808F076FB2790139937
:100D5000119808F019FE4FF080410D9008F0B6FC94
:100D60001B900F99149808F0ABFA4FF080410D904A
:100D700008F0ACFC1A901299159808F005FE0C903A
:100D8000109908F001FE0D900E9908F099FA19904B
:100D90001A99279808F09AFC0D901999269808F04E
:100DA00095FC0C900D9908F0EFFD18901999249876
:100DB00008F08CFC0D901B99279808F087FC0C908C
:100DC0000D9908F0E1FD17901B99269808F07EFC1C
:100DD0000D901A99249808F079FC0C900D9908F060
:100DE000D3FD16900021189808F070FC0D907D48F6
:100DF00001680D9808F064FA7A4908600021179894
:100E000008F064FC0D90784801680D9808F058FAD5
:100E1000754908600021169808F058FC0D90734839
:100E200001680D9808F04CFA7049086070481899EC
:100E300008F04CFC0C90219908F042FA0D9069489A
:100E400001680D9808F03CFA21906948179908F05C
:100E50003DFC0C90229908F033FA0D90624801682D
:100E60000D9808F02DFA22906148169908F02EFC92
:100E70000C90239908F024FA0D905C4801680D98B5
:100E800008F01EFA239053480068209052480068EA
:100E90001F90524800681E90514800681D90239989
:100EA0001D9808F013FC0B9022991E9808F00EFC78
:100EB00009901F9880F000400790219908F006FCE7
:100EC0000890099908F060FD0A900B9908F05CFD04
:100ED00048490C9008F0FAFB0D90209908F0F0F9C1
:100EE0003C49086022991D9808F0F0FB0B9023996B
:100EF0001E9808F0EBFB0990DDE9201008F0E6FBF6
:100F00000890099908F0DCF90A900B9908F03CFD6B
:100F100038490C9008F0DAFB0D901F9908F0D0F9D1
:100F20002D4908601D99219808F0D0FB0B9023995A
:100F30001F9808F0CBFB09902299209808F0C6FB77
:100F40000890099908F020FD0A900B9908F0B8F96B
:100F500028490C9008F0BAFB0D901E9908F0B0F9E2
:100F60001E4908601E99219808F0B0FB0B90229949
:100F70001F9808F0ABFB09902399209808F0A6FB76
:100F80000890099908F09CF90A900B9908F0FCFC6C
:100F900018490C9008F09AFB0D901D9908F090F9F3
:100FA0000F49086008460168006808F08FFB089048
:100FB0000A480168006808F089FB06900648016845
:100FC000006808F083FB049002480168006813E0A1
:100FD000DF59375FEC000020F0000020F400002013
:100FE000F8000020FC000020000100200401002087
:100FF000000020410AD7233C08F068FB03900499C5
:1010000008F05EF90590069908F05AF907900899DA
:1010100008F056F9099008F027F9CDE90A0107F020
:10102000BDF9CDE90C0107F021FA1C90FE481C998E
:10103000006808F001FAFC490860FC481C99006847
:1010400008F0FAF9F9490860F9481C99006808F0B5
:10105000F3F9F7490860F7481C99006808F0ECF9C3
:10106000F4490860F449239808F030FB4FF08041C0
:101070000B9008F02BFBF1490C9008F027FB0D902A
:10108000EF4801680D9808F01BF9ED490860E64843
:1010900001684FF0804008F019FB0490E4480168B3
:1010A000049808F013FB0690E04801684FF04040B8
:1010B00008F00CFB0490DF480168049808F006FB78
:1010C0000590069908F0FCF8079008F0CDF8CDE9F6
:1010D000080106F031FC4FF0C042DA4BCDE90A01BD
:1010E00007F00AFDCDE90C0107F0C0F9D649086008
:1010F000CF4801684FF0804008F0E8FA0190CC48F2
:101100000168019808F0E2FA0390C84801684FF0BE
:10111000404008F0DBFA0190C4480168019808F0EB
:10112000D5FA0290039908F02FFC4FF07E510490FD
:1011300008F0C6F8059008F097F8CDE90801BA481C
:1011400001684FF0804008F0C1FA0290B74801688A
:10115000029808F0BBFA0490B54801684FF080404F
:1011600008F0B4FA0290B3480168029808F0AEFAA9
:101170000390049908F0A4F8059008F075F8CDE9FB
:101180000601DDE9082306F0B1FE4FF0C042AD4B89
:10119000CDE90A0107F0B0FCCDE90C0107F066F9D2
:1011A000AA49086000BF9FE50FB599B000201190D3
:1011B00010900F90A6491C9808F088FA1C90A4493A
:1011C0001E9808F083FA1E90A1491F9808F07EFA35
:1011D0001F901B99084608F079FA08901A9908465A
:1011E00008F074FA06901999084608F06FFA05900D
:1011F000069908F065F80790089908F061F80990D9
:10120000FFF7DEFC18908A4801688748006808F0FC
:101210005DFA0890874801688448006808F056FA2B
:101220000790089908F0B0FB4FF08041099008F052
:101230004DFA17907F4801687D48006808F046FA2B
:1012400008907A4801687848006808F03FFA0790EB
:10125000089908F035F84FF08041099008F036FA07
:101260001690734801684FF0804008F02FFA0790FD
:101270006F480168079808F029FA09906B480168DF
:101280004FF0804008F022FA0690684801680698FE
:1012900008F01CFA4FF07E51079008F0E3FA08902E
:1012A000099908F071FB159016991B9808F00EFA31
:1012B000099015991A9808F009FA0890099908F008
:1012C00063FB14901599199808F000FA0990179982
:1012D0001B9808F0FBF90890099908F055FB13904A
:1012E00017991A9808F0F2F909901699199808F0C8
:1012F000EDF90890099908F047FB12900021149825
:1013000008F0E4F9019007F0AFFF524A524BCDE9E3
:10131000020107F0F1FBCDE90601119807F0A4FFE7
:10132000CDE90401DDE9062307F0D2F8CDE9080193
:1013300007F09CF811900021139808F0C7F901906C
:1013400007F092FF434A444BCDE9020107F0D4FB7A
:10135000CDE90601109807F087FFCDE90401DDE92A
:10136000062307F0B5F8CDE9080107F07FF81090E3
:101370000021129808F0AAF9019007F075FF354A8C
:10138000354BCDE9020107F0B7FBCDE906010F9817
:1013900007F06AFFCDE90401DDE9062307F098F8BC
:1013A000CDE9080107F062F80F902C48149908F075
:1013B0008DF908901C9907F083FF0990119907F0A7
:1013C0007FFF1C902548139908F080F908901E991A
:1013D00007F076FF0990109907F072FF1E901F48E2
:1013E000129908F073F908901F9907F069FF0990A6
:1013F0000F9907F065FF1F901C9807F035FF154AFD
:10140000174BCDE9060107F077FBCDE9080107F09E
:101410002DF81C901E9807F027FF0E4A104BCDE9BF
:10142000060107F069FB1DE0EC000020F000002041
:10143000F4000020F80000200AD7233C3333654233
:101440001001002066A64C400C010020080100207D
:10145000728A8E3C7B14AE47E17A743F00002041D3
:10146000E17A643FCDE9080107F000F81E901F986B
:1014700007F0FAFEC44AC54BCDE9060107F03CFB74
:10148000CDE9080106F0F2FF1F90C1481F990068DE
:1014900008F01CF90890BF481E99006808F016F97A
:1014A0000690BD48006880F0004004901C9908F048
:1014B0000DF90590069908F067FA0790089908F069
:1014C00063FA0990B5480168099807F0F9FEB34935
:1014D0000860AF481E99006808F0F8F80890AD4819
:1014E0001F99006808F0F2F80690AC481C99006853
:1014F00008F0ECF80590069907F0E2FE07900899CD
:1015000008F042FA0990A4480168099807F0D8FE4B
:10151000A14908609E481C99006808F0D7F8089017
:101520009D481F99006808F0D1F806909B481E99C5
:10153000006808F0CBF80590069908F025FA0790A6
:10154000089907F0BDFE099092480168099807F0D4
:10155000B7FE904908608F481C99006808F0B6F8FB
:1015600008908D481E99006808F0B0F806908B48E6
:101570001F99006808F0AAF80590069907F0A0FEE8
:101580000790089908F000FA0990814801680998C5
:1015900007F096FE7E49086008460168006808F07A
:1015A00095F808907B480168006808F08FF806906D
:1015B00079480168006808F089F804907748016864
:1015C000006808F083F80390049907F079FE05900D
:1015D000069907F075FE0790089907F071FE0990CB
:1015E000FFF7EEFA18906D481899006808F06EF849
:1015F0006A49086068481899006808F067F8664901
:10160000086064481899006808F060F8614908604B
:101610005F481899006808F059F85D4908605D480E
:1016200001685E48006808F051F808905848016861
:101630005948006808F04AF80790089908F0A4F99A
:101640004FF08041099008F041F80E905048016831
:101650005048006808F03AF808904F4801684F4831
:10166000006808F033F80790089907F029FE4FF05A
:101670008041099008F02AF80D90454801680068FB
:1016800008F024F8099043480168006808F01EF843
:10169000079041480168006808F018F805903F4835
:1016A0000168006808F012F80490059908F06CF9D8
:1016B0000690079908F068F90890099907F000FE6C
:1016C0000C90334801683548006807F0FFFF089028
:1016D000304801683048006807F0F8FF0790089923
:1016E00007F0EEFD4FF08041099007F0EFFF0B90FF
:1016F00027480168006807F0E9FF0990254801685C
:10170000006807F0E3FF079023480168006807F0CE
:10171000DDFF059021480168006807F0D7FF0490BD
:10172000059907F0CDFD0690079908F02DF908906E
:10173000099908F029F90A900E9806F035FA80F018
:1017400000401749099007F0C1FF16490860DDE91C
:101750000C1007F071FE089006F088FC1049099003
:1017600007F0B4FF10490860DDE90A1007F064FED5
:10177000089006F07BFC0A49099007F0A7FF0B4987
:1017800008601DB000BD00007B14AE47E17A643FE5
:10179000F8000020F4000020F0000020EC00002001
:1017A00033336542500000205400002058000020D0
:1017B00008B501210C2002F0E5FB1020ADF8000077
:1017C0008DF8030003208DF802006946FE4802F000
:1017D0001DF90120ADF8000048208DF8030003201A
:1017E0008DF802006946F94802F010F908BD70B59D
:1017F00004460D46002600BF06E0207800F07EFB80
:101800002070641C701CC6B2AE42F6DB70BD01B520
:1018100082B0002001901021EB4802F0A6F99DF85B
:10182000080040F080000290012102A8FFF7DFFFCE
:10183000012101A8FFF7DBFF1021E34802F093F933
:101840009DF804000EBD37B50C4615469DF8000006
:1018500040F0800000901021DB4802F086F9012161
:101860006846FFF7C4FFE9B22046FFF7C0FF10212A
:10187000D54802F078F93EBD13B51021D24802F0E8
:1018800074F901216846FFF7B2FF012101A8FFF7B3
:10189000AEFF1021CC4802F066F900201CBD0146C5
:1018A00089B101290BD0022905D003290FD1C848DD
:1018B000C84A10600BE0C848C64A106007E0C74835
:1018C000C44A106003E0C648C24A106000BF00BFAF
:1018D000C048006870470146082925D2DFE801F0BA
:1018E000201C1814100C0804BE48BF4A10601BE0EE
:1018F000BE48BD4A106017E0BD48BB4A106013E007
:10190000BC48B94A10600FE0BB48B74A10600BE012
:10191000BA48B54A106007E0B948B34A106003E01E
:10192000AB48B14A106000BF00BFAF4800687047C5
:1019300010B500247520FFF76AFF04462146B1A0C8
:1019400003F076FF00217620FFF796FF0121762035
:10195000FFF792FF642001F078FE062003F03CFFC1
:10196000AC490860062003F037FFAB490860472CFC
:101970007BD101217620FFF77FFF02217A20FFF73C
:101980007BFF00217620FFF777FF40211620FFF72D
:1019900073FF6520FFF73BFF044600216520FFF73A
:1019A0006BFF00216020FFF767FF02216120FFF736
:1019B00063FF21466520FFF75FFF63215F20FFF78C
:1019C0005BFF00217620FFF757FF36211420FFF739
:1019D00053FF00217620FFF74FFF6520FFF717FF29
:1019E000044644F0040421466520FFF745FF01202A
:1019F000FFF755FF00217620FFF73EFF5020FFF74D
:101A000006FF044644F0200444F009042146502017
:101A1000FFF732FF0120FFF75EFF00217620FFF77E
:101A20002BFF4F20FFF7F3FE044644F0200444F060
:101A3000090421464F20FFF71FFF00217620FFF702
:101A40001BFF4E20FFF7E3FE044624F0200444F081
:101A50000C0444F0030421464E20FFF70DFF012043
:101A600001F0F3FD002010BDFFE74FF0FF30FAE773
:101A700010B5FFF79DFE00F05AFAFFF759FF10BDB1
:101A80002DE9F84F824600200090022269461D2071
:101A9000FFF7D9FE9DF801109DF8002041EA0221D0
:101AA00008B206F0C2FF06465C4A5D4B06F0CCFD6C
:101AB000044600225B4B06F00BFD804606F058FF03
:101AC00000B2AAF800000020BDE8F88F7CB50446FB
:101AD000002000900190062269461F20FFF7B3FE08
:101AE0009DF801009DF8001040EA012000B220801E
:101AF0009DF803009DF8021040EA012000B26080CA
:101B00009DF805009DF8041040EA012000B2A08075
:101B1000B4F9000007F0C2FD06462E4801683046C1
:101B200007F0D4FD054607F07DFD00B22080B4F932
:101B3000020007F0B3FD064626480168304607F06C
:101B4000C5FD054607F06EFD00B26080B4F90400E3
:101B500007F0A4FD06461F480168304607F0B6FDB1
:101B6000054607F05FFD00B2A08000207CBD7CB57B
:101B70000446002000900190062269462520FFF7C8
:101B800062FE9DF801009DF8001040EA012000B2BD
:101B900020809DF803009DF8021040EA012000B269
:101BA00060809DF805009DF8041040EA012000B215
:101BB000A080B4F9000007F071FD06460A480168EC
:101BC000304607F083FD2FE000080140000C014083
:101BD00000007A3D140100200000FA3D00007A3E2A
:101BE0000000FA3E0000F2391801002000007A3AA5
:101BF0000000FA3A00007A3B0000FA3B00007A3C11
:101C00000000FA3C7265675F76616C3A307825783F
:101C10000A000000200100201C0100208FC2F528CE
:101C20005C8F604000003940054607F0FBFC00B2C5
:101C30002080B4F9020007F031FD0646A54801688E
:101C4000304607F043FD054607F0ECFC00B260802B
:101C5000B4F9040007F022FD06469E4801683046AC
:101C600007F034FD054607F0DDFC00B2A08000203F
:101C70007CBDFEB504460D46002000900190029008
:101C80000C2269461F20FFF7DEFD9DF801009DF83C
:101C9000001040EA012000B220809DF803009DF86A
:101CA000021040EA012000B260809DF805009DF816
:101CB000041040EA012000B2A0809DF807009DF8C2
:101CC000061040EA012000B228809DF809009DF826
:101CD000081040EA012000B268809DF80B009DF8D2
:101CE0000A1040EA012000B2A880B4F9000007F011
:101CF000D5FC074678480168384607F0E7FC0646F9
:101D000007F090FC00B22080B4F9020007F0C6FC96
:101D1000074671480168384607F0D8FC064607F0C8
:101D200081FC00B26080B4F9040007F0B7FC0746FC
:101D300069480168384607F0C9FC064607F072FC9E
:101D400000B2A080B5F9000007F0A8FC0746614882
:101D50000168384607F0BAFC064607F063FC00B29B
:101D60002880B5F9020007F099FC07465948016838
:101D7000384607F0ABFC064607F054FC00B268801A
:101D8000B5F9040007F08AFC074652480168384656
:101D900007F09CFC064607F045FC00B2A880002036
:101DA000FEBD2DE9F04104460D4625F0004624F025
:101DB00000473146384606F02CFABDE8F0812DE99F
:101DC000FC5F4648016846480068FFF752FF012063
:101DD00001F03BFC42490968B1F9040007F05EFCE0
:101DE0008346404907F072FC82464FF08D4107F070
:101DF00023FB04463A490968B1F9020007F04EFC9A
:101E00008346384907F062FC82464FF08D4107F067
:101E100013FB054632490968B1F9000007F03EFCA2
:101E20008346304907F052FC82464FF08D4107F05F
:101E300003FB064629490968B1F9040007F02EFCA6
:101E40002949019007F042FC8346284907F0F4FA3B
:101E500082464FF08F4107F0EFFA07461F490968A5
:101E6000B1F9020007F01AFC1F49019007F02EFC9F
:101E700083461E4907F0E0FA82464FF08F4107F093
:101E8000DBFA804615490968B1F9000007F006FC45
:101E90001549019007F01AFC8346144907F0CCFA63
:101EA00082464FF08F4107F0C7FA814633463A46E3
:101EB0004146CDE90054FEF7D4FE0D4801680D48B7
:101EC0000068FFF76EFF044607F0C8FB0A49087078
:101ED000BDE8FC9F18010020140100201C01002017
:101EE00020010020CDCC1C410000FA433333654271
:101EF0000C010020080100202401002010B5044638
:101F000000BF0221374803F090FB0028F9D021469A
:101F1000344803F037FB00BF0121324803F085FB52
:101F20000028F9D02F4803F02FFBC0B210BD00B538
:101F300087B00121042002F025F80121080302F0F6
:101F400021F8E020ADF8180018208DF81B000320C0
:101F50008DF81A0006A9244801F058FD0121080354
:101F600002F02AF800214FF4805002F025F80020FA
:101F7000ADF804004FF48270ADF806000020ADF813
:101F800008000220ADF80A000120ADF80C00400264
:101F9000ADF80E003820ADF810000020ADF81200AA
:101FA0000720ADF8140001A90E4803F015FA01212D
:101FB0000C4803F0B6FAFF20FFF7A0FF07B000BD02
:101FC00010B50446074800884FF6C7710840054918
:101FD000088008460088204308800121014803F05A
:101FE000A0FA10BD003001400008014010B586B0D5
:101FF00004460121480401F0D2FF0121042001F030
:10200000C1FF0420ADF8140003208DF8160018203D
:102010008DF8170005A9FE4801F0F8FC0820ADF87E
:10202000140004208DF8170005A9F94801F0EEFC12
:1020300026208DF8000003208DF801008DF80200A5
:1020400001208DF80300684601F017FC0194002080
:10205000ADF80800ADF80A00ADF80C00ADF81000BE
:102060000C20ADF80E0001A9EA4802F032F8012276
:1020700040F22551E74802F0C4F80121E54802F09A
:10208000B4F80121102001F07DFF4FF40050ADF8AD
:10209000140010208DF8170003208DF8160005A9F4
:1020A000DD4801F0B3FC4FF40051DB4801F05BFD6B
:1020B00006B010BD10B50020D84908604FF4FA7082
:1020C00001F0C3FA0120D649C1F8B4014FF4FA7007
:1020D00001F0BBFA10BD70B505460C4612E000BF1A
:1020E0008021284602F05CF90028F9D014F8011B81
:1020F000284602F0E7F800BF4021284602F050F9D8
:102100000028F9D020780028E9D170BD2DE9F041F0
:1021100005460E460024FEF771FA804619E0C148D4
:102120000078012815D10020BE490870BE48077804
:102130002046641C2F54012C0BDD701EA04207DDCD
:10214000A01E285C4F2804D1601E285C4B2800D1BB
:1021500006E0FEF753FAA0EB0800B0F57A6FDED385
:1021600000BF002028552046BDE8F08130B5A1B061
:10217000002435E0002528E0AC4850F82410A5489C
:10218000FFF7A9FF802101A8FFF7C0FF00280EDD9F
:10219000A7A101A803F08EFC48B1A6A1AB48FFF7A8
:1021A0009AFF032C02DB642001F04FFA0FE080213C
:1021B00001A803F0B0FC00209A4908709B4850F831
:1021C0002410A248FFF787FF6D1C032DD4DB00BF4E
:1021D000032D04D19EA19D48FFF77DFF02E0641C02
:1021E0000A2CC7D300BF0A2221469FA003F020FB80
:1021F0000A2C2AD100224FF48041A04801F0B7FCFC
:10220000642001F022FA012291039C4801F0AFFC06
:10221000642001F01AFA00224FF48041974801F03F
:10222000A6FC642001F011FA01229103934801F009
:102230009EFC642001F009FA00224FF480418F488F
:1022400001F095FC642001F000FA21B030BD10B51A
:1022500040F225516F4802F0B9F8002860D0012003
:10226000704908706B4802F031F86F4908700846F1
:1022700000780A2803D082480088F92847DB00212B
:1022800080487F4A1288815400207D4908807D481B
:10229000407847280FD17B4880784E280BD1794869
:1022A000C078522807D1774800794D2803D1754866
:1022B0004079432827D07348407842280FD171488D
:1022C000807844280BD16F48C078472807D16D48E3
:1022D0000079532803D16B484079562813D06948B8
:1022E000407847281CD1674880784E2818D1654827
:1022F000C078562814D163480079542810D1614819
:10230000407947280CD101205F49088008E0464900
:102310000A785B490888411C594B198059490A546D
:1023200010BD70B5FEB0002401A9081957490A680C
:1023300057A103F089FA044401A9081955A254A130
:1023400003F082FA044401A9081956490A7856A1F3
:1023500003F07AFA044401A9081954A24CA103F02D
:1023600073FA044401A9081954490A784EA103F0EC
:102370006BFA044401A908194CA245A103F064FAC0
:10238000044401A908194D490A7847A103F05CFAF1
:10239000044401A908194AA23DA103F055FA0444D6
:1023A00001A9081949490A683FA103F04DFA0444FC
:1023B00001A9081946A236A103F046FA044401A96E
:1023C000081947A232A103F03FFA044448480068C4
:1023D00006F04AFF05460B4601A908192A4645A101
:1023E00003F032FA044401A9081944A228A103F019
:1023F0002BFA04444448006806F036FF05460B46B5
:1024000001A908192A4641A103F01EFA044481E0FB
:10241000000801400044004000100140B401224285
:102420000000224229010020280100203401002060
:102430004F4B000045632D30316620415420496EDA
:102440006974204F6B210D0A000000000038014024
:1024500045632D30316620415420496E6974204611
:1024600061696C210D0A000069203D2025642C2043
:1024700070203D2025640D0A00000000000C014082
:102480005C010020A80100205E0100202C0100203A
:102490002573000022436F76657253746174652260
:1024A0003A0000003800002025642C002254696C9A
:1024B0007456616C7565223A00000000240100200A
:1024C00022486569676874223A00000030000020E5
:1024D0002247656F4C6F636174696F6E223A7B00AF
:1024E000224C6F6E676974756465223A00000000C3
:1024F00068010020252E32662C000000224C6174F9
:102500006974756465223A0064010020252E3266E4
:102510007D00000001A9081906490A68AFF2900180
:1025200003F092F9044401A90348FFF7D4FD7EB0FB
:1025300070BD0000300100200044004010B5402173
:10254000F74801F010FB2021F54801F00CFB202199
:10255000F34801F00AFB4021F14801F006FB10BDF1
:1025600010B54021EE4801F0FEFA2021EC4801F0C0
:10257000FCFA2021EA4801F0F6FA10BD10B540211E
:10258000E74801F0F0FA4021E54801F0EEFA10BD0D
:102590002DE9F04105462C464021E14801F0E5FADD
:1025A000002619E0274607F08007802F04D120215C
:1025B000DB4801F0D8FA03E02021D94801F0D5FA30
:1025C0006006040E4021D64801F0CDFA4021D448DF
:1025D00001F0CBFA701CC6B2082EE3DBBDE8F08137
:1025E00010B50446FFF7AAFF7820FFF7D1FFFFF7E9
:1025F000C5FF0020FFF7CCFFFFF7C0FF2046FFF725
:10260000C7FFFFF7BBFFFFF7ABFF10BD10B50446D8
:10261000FFF794FF7820FFF7BBFFFFF7AFFF4020E5
:10262000FFF7B6FFFFF7AAFF2046FFF7B1FFFFF75E
:10263000A5FFFFF795FF10BD70B504460D461DB10F
:10264000E0B2FFF7E3FF02E0E0B2FFF7C9FF70BDC1
:1026500070B50646002418E004F1B0000021FFF731
:10266000EBFF00210846FFF7E7FF00211020FFF7EE
:10267000E3FF002505E001213046FFF7DDFF681C80
:10268000C5B2802DF7DB601CC4B2082CE4DB70BD42
:1026900070B504460D4605F1B0000021FFF7CCFFF0
:1026A000102141EA14100021FFF7C6FF04F00F00CB
:1026B0000021FFF7C1FF70BD10B500218D20FFF78D
:1026C000BBFF00211420FFF7B7FF0021AF20FFF769
:1026D000B3FF10BD10B500218D20FFF7ADFF002125
:1026E0001020FFF7A9FF0021AE20FFF7A5FF10BDC6
:1026F00070B5002418E004F1B0000021FFF79CFF42
:1027000000210846FFF798FF00211020FFF794FFF3
:10271000002505E001210020FFF78EFF681CC5B2EF
:10272000802DF7DB601CC4B2082CE4DB70BD70B5F3
:10273000022418E004F1B0000021FFF77DFF002122
:102740000846FFF779FF00211020FFF775FF0025ED
:1027500005E001210020FFF76FFF681CC5B2802D46
:10276000F7DB601CC4B2082CE4DB70BD70B5044616
:1027700004F1B0000021FFF75FFF00210846FFF7DA
:102780005BFF00211020FFF757FF002505E0012126
:102790000020FFF751FF681CC5B2802DF7DB70BD2C
:1027A00070B5002418E004F1B0000021FFF744FFE9
:1027B00000210846FFF740FF00211020FFF73CFFF3
:1027C000002505E001210846FFF736FF681CC5B269
:1027D000802DF7DB601CC4B2082CE4DB70BD2DE952
:1027E000F04707460E469046994600250024A8F17A
:1027F0002000C5B27F2F02DD0027B01CC6B2B9F1A0
:10280000080F24D131463846FFF742FF002408E084
:1028100004EB0511434A505C0121FFF70DFF601CDA
:10282000C4B2082CF4DB701CC1B23846FFF730FF8D
:10283000002409E004EB051108313A4A505C0121FB
:10284000FFF7FAFE601CC4B2082CF3DB12E031463D
:102850003846FFF71DFF00240AE005EB4501324A28
:1028600002EB4101085D0121FFF7E6FE601CC4B2E6
:10287000062CF2DBBDE8F0872DE9F04707460E464F
:102880009046994600250024A8F12000C5B27F2F6C
:1028900002DD0027B01CC6B2B9F1080F26D13146BF
:1028A0003846FFF7F5FE002409E004EB05111D4A48
:1028B000515CC8430121FFF7BFFE601CC4B2082C65
:1028C000F3DB701CC1B23846FFF7E2FE00240AE0D9
:1028D00004EB05110831134A515CC8430121FFF78D
:1028E000ABFE601CC4B2082CF2DB13E03146384664
:1028F000FFF7CEFE00240BE005EB45010A4A02EB90
:102900004101095DC8430121FFF796FE601CC4B276
:10291000062CF1DBBDE8F08710B50246012006E089
:10292000000C0140E69D0008BE9B000850430B1EB2
:10293000A1F10104E1B2F9D110BD2DE9F05F064625
:102940008A4691461D460A9F4FF0000B00242DE059
:10295000281B401EC1B20A20FFF7DEFFB9FBF0F0D2
:102960000A21B0FBF1F201FB1208BBF1000F10D1FC
:10297000681EA0420DDDB8F1000F08D107FB04610D
:10298000C8B23B4620225146FFF729FF0CE04FF02A
:10299000010B08F13001CAB207FB0461C8B23B4623
:1029A0005146FFF71CFF00BF601CC4B2AC42CFDB36
:1029B000BDE8F09F2DE9F05F06468A4691461D4628
:1029C0000A9F4FF0000B00242DE0281B401EC1B2CF
:1029D0000A20FFF7A1FFB9FBF0F00A21B0FBF1F2EA
:1029E00001FB1208BBF1000F10D1681EA0420DDDE3
:1029F000B8F1000F08D107FB0461C8B23B462022A2
:102A00005146FFF739FF0CE04FF0010B08F13001A0
:102A1000CAB207FB0461C8B23B465146FFF72CFF20
:102A200000BF601CC4B2AC42CFDBBDE8F09F2DE913
:102A3000F04104460F461546984600260FE0AA5D71
:102A4000434639462046FFF7CAFE04EB0800C4B2ED
:102A5000782C02DD0024B81CC7B2701CC6B2A85D79
:102A60000028ECD1BDE8F0812DE9F04104460F4685
:102A70001546984600260FE0AA5D43463946204693
:102A8000FFF7FAFE04EB0800C4B2782C02DD002444
:102A9000B81CC7B2701CC6B2A85D0028ECD1BDE856
:102AA000F0812DE9F04107460E461546314638467D
:102AB000FFF7EEFD002408E09E4A02EB4511085D99
:102AC0000121FFF7B9FD601CC4B2102CF4DB701CAF
:102AD000C1B23846FFF7DCFD00240AE06900491C5A
:102AE000944A02EB0111085D0121FFF7A5FD601C6E
:102AF000C4B2102CF2DBBDE8F0812DE9F041804634
:102B00000F4615461E4639464046FFF7C1FD0024D4
:102B100007E005EB4611085D0121FFF78DFD601C04
:102B2000C4B2072CF5DB781CC1B24046FFF7B0FDFC
:102B3000002409E07100491C05EB0111085D012129
:102B4000FFF77AFD601CC4B2072CF3DBBDE8F0810F
:102B50002DE9F04105460F461646002408E005EB36
:102B60000411C8B222463946FFF79BFF601CC4B26D
:102B7000B442F4DBBDE8F0812DE9F05F06460F4674
:102B800090461C46DDF828A04FF0000BE11704EB3F
:102B90005171C910A4EBC10131B92046E11704EB12
:102BA0005171C1F3C70506E02046E11704EB5171EE
:102BB000C910491CCDB23D4615E029463046FFF705
:102BC00067FDB1460BE059460BF1010B1AF8010005
:102BD0000121FFF731FD09F1010000F0FF09C145B6
:102BE000F1DB681CC5B2A542E7DBBDE8F09F08B584
:102BF0000121082001F0C6F90121084601F0C2F9BF
:102C000001214D4800F0D3FF4020ADF80000102016
:102C10008DF8030001208DF802006946474800F056
:102C2000F5FE2020ADF8000010208DF803000120F3
:102C30008DF802006946414800F0E8FE40213F4817
:102C400000F091FF20213D4800F08DFF642000F04E
:102C5000FCFC0021AE20FFF7EFFC00210846FFF747
:102C6000EBFC00211020FFF7E7FC00214020FFF7DC
:102C7000E3FC0021B020FFF7DFFC00218120FFF7FB
:102C8000DBFC0021FF20FFF7D7FC0021A120FFF78C
:102C9000D3FC0021A620FFF7CFFC0021A820FFF7DE
:102CA000CBFC00213F20FFF7C7FC0021C820FFF725
:102CB000C3FC0021D320FFF7BFFC00210846FFF72B
:102CC000BBFC0021D520FFF7B7FC00218020FFF7D7
:102CD000B3FC0021D820FFF7AFFC00210520FFF74F
:102CE000ABFC0021D920FFF7A7FC0021F120FFF762
:102CF000A3FC0021DA20FFF79FFC00211220FFF740
:102D00009BFC0021DB20FFF797FC00213020FFF720
:102D100093FC00218D20FFF78FFC00211420FFF78A
:102D20008BFC0021AF20FFF787FCFFF7C5FCFFF706
:102D3000DFFC08BDF6A3000800023000000C0140D3
:102D40002DE9F0410546642095FBF0F0C7B2642000
:102D500095FBF0F100FB11500A2190FBF1F0C6B297
:102D60000A2095FBF0F100FB115000F0FF08502401
:102D7000082362A204210020FFF759FE97B107F152
:102D80003001CAB2E0B208230421FFF728FD08345D
:102D900006F13001CAB2E0B208230421FFF71FFD9B
:102DA000083409E046B106F13001CAB2E0B20823A6
:102DB0000421FFF714FD083408F13001CAB2E0B273
:102DC00008230421FFF70BFD0834E0B20823432257
:102DD0000421FFF704FD0834E0B208234D2204214A
:102DE000FFF7FDFC0834E0B2082320220421FFF79E
:102DF000F6FC0834E0B2082320220421FFF7EFFCA0
:102E0000BDE8F0812DE9F0410546642095FBF0F026
:102E1000C7B2642095FBF0F100FB11500A2190FB32
:102E2000F1F0C6B20A2095FBF0F100FB115000F062
:102E3000FF083624082334A206210020FFF7F7FDFF
:102E400097B107F13001CAB2E0B208230621FFF7BB
:102E5000C6FC083406F13001CAB2E0B208230621EC
:102E6000FFF7BDFC083409E046B106F13001CAB2F3
:102E7000E0B208230621FFF7B2FC083408F1300164
:102E8000CAB2E0B208230621FFF7A9FC0834E0B279
:102E9000082380220621FFF7A2FC0834E0B20823B1
:102EA00020220621FFF79BFC0834E0B208232022F1
:102EB0000621FFF794FCBDE8F08110B5082314A2A9
:102EC00000210846FFF7B3FD1548007830B108230C
:102ED00014A202210020FFF7AAFD05E0082315A295
:102EE00002210020FFF7A3FD1649098888B2FFF7E9
:102EF00027FF15480078FFF785FF10BD44697374FC
:102F0000616E63653A000000416E676C653A2000AF
:102F10004D616E686F6C6520636F766572000000AE
:102F2000380000204D61676E65743A416273656ECA
:102F3000742000004D61676E65743A507265736568
:102F40006E740000300000202401002001460020A3
:102F500003E000220A54421CD0B20428F9D370477F
:102F600000BFFE49098801F040010029F9D0FB4962
:102F7000091D0880704730B502460020114624E044
:102F80000C78303C0A2C1AD2DFE804F00507090B54
:102F90000D0F11131517002311E001230FE0022379
:102FA0000DE003230BE0042309E0052307E00623DB
:102FB00005E0072303E0082301E0092300BF00BF69
:102FC00000EB800403EB4400491C0C78002CD7D1A3
:102FD00030BD2DE9F04106460D460027284602F097
:102FE0007BFD804600240CE0285D2C2801D1781C54
:102FF000C7B2B74203D1601CC0B2BDE8F081601C0B
:10300000C4B24445F0DB0020F7E7FEB5054629468B
:103010000120FFF7DEFF0446601EC4B222462946A7
:10302000684602F09FFD00200DF804006846FFF797
:10303000A2FF06463046FEBD2DE9F05F054600269C
:103040004FF001092C4653E020782E380C2821D26D
:10305000DFE800F01E2006080B0E10131517191CD0
:10306000002717E04FF07E5714E04FF0804711E043
:10307000BB4F0FE04FF081470CE0BA4F0AE0BA4F68
:1030800008E0BA4F06E04FF0824703E0B84F01E096
:10309000B84F00BF00BFB749384606F08FFA05D1D8
:1030A0004FF000094FF00108641C21E0B9F1010F55
:1030B00009D1B149304606F009FB8246394606F08F
:1030C000FFF8064612E008EB8801480006F0E6FA31
:1030D00083465946384606F0AFF98246314606F037
:1030E000EFF8064608EB88004FEA4008641C00BF72
:1030F00020780028A8D13046BDE8F09FFEB50546EF
:1031000029460120FFF765FF0446601EC4B222462F
:103110002946684602F026FD00200DF804006846A6
:10312000FFF78AFF06463046FEBD2DE9FF5F814668
:1031300000210F4688464FF0010B4E4668E030787C
:103140002E380C2829D2DFE800F0252806090C10BB
:103150001316191C1F22002425461EE00024874D4B
:103160001BE000244FF0804517E00024844D14E05C
:103170000024844D11E00024834D0EE00024834D93
:103180000BE00024824D08E00024824D05E000247D
:10319000814D02E00024814D00BF00BF00227F4B23
:1031A0002046294605F0A8FB05D14FF0000B4FF053
:1031B000010A761C2CE0BBF1010F0ED10022784BE6
:1031C0003846414605F098FC22462B46CDE90201DF
:1031D00005F07EF90746884618E00AEB8A014800A8
:1031E00005F023FC02460B46CDE9000120462946A6
:1031F00005F02AFA3A464346CDE9020105F068F99E
:10320000074688460AEB8A004FEA400A761C00BF50
:103210003078002893D13846414604B0BDE8F09F8D
:10322000FEB5054629460120FFF7D3FE0446601E81
:10323000C4B222462946684602F094FC00200DF8EC
:1032400004006846FFF771FF06460F4630463946D0
:1032500003B0F0BDFCB502460B46002118460A2A11
:1032600007DA302500F8015B02F1300500F8015B58
:1032700019E00DE00A2592FBF5F605FB162492FBFA
:10328000F5F204F13005EFB20D46491C0DF805705A
:10329000002AEFDC491E04E01DF8015000F8015B34
:1032A000491E0029F8DA00250570FCBD2DE9F34F11
:1032B00087B00C464FF000083AA1079802F0FAFBDD
:1032C000C0B93AA1079802F0F5FB98B939A107985F
:1032D00002F0F0FB70B939A1079802F0EBFB48B996
:1032E00038A1079802F0E6FB20B90020A07209B0CF
:1032F000BDE8F08F35A1079802F0D6FB0546C5E082
:10330000A8F1020005280BD2DFE800F0030B7E8154
:10331000B2002878412801D1012000E00020A072ED
:10332000A9E0284602F0D8FBB0B1284604F05CFFC3
:10333000064605F09BF80690069805F095FF0022DA
:10334000234BCDE9000104F079FF0022214BCDE9A8
:10335000020105F079F93FE055E00000004400402B
:10336000000040400000A0400000C0400000E040DD
:103370000000104100003842000020410000F03FF2
:1033800000000840000010400000144000001840F9
:1033900000001C4000002040000022400000474088
:1033A00000002440244750524D430000244244472B
:1033B0005356000024474E524D43000024474E56BA
:1033C0005447000024475047474100002C000000AC
:1033D0000000594000004E4081468A4660490698E8
:1033E00006F02AF8039006F01DF9834605F01DFB50
:1033F0004A465346CDE9040105F06AF8064605F051
:1034000035F8206000BF36E02878207233E0284687
:1034100002F062FB58B3284604F0E6FE064605F0CB
:1034200025F88346584605F01FFF814600224D4B84
:1034300004F004FF064600224B4B05F005F9CDE9E8
:1034400002014749584605F0F7FF074606F0EAF83B
:10345000064605F0EAFACDE90001DDE9022305F0B0
:1034600037F8CDE9040105F001F8606000BF02E023
:103470002878607200BF00BFAFF2B001002002F0F8
:1034800013FB054608F1010000F0FF08002D7FF452
:1034900037AF00BF2BE770B5FEB00024334800887B
:1034A00000285AD032493348FFF700FF3048807A6D
:1034B00000284FD02E4800682F4908602C484068EB
:1034C0002E4908602A49086805F0CEFE05462848BE
:1034D000007A2A460B46009029A002F0A9F9244957
:1034E000486805F0C1FE05462148407A2A460B4649
:1034F000009028A002F09CF901A908192AA232A183
:1035000002F0A2F904441A49086805F0ADFE054628
:103510000B461748007A01A9009008192A4618A1FD
:1035200002F092F904441249486805F09DFE0546F0
:103530000B460F48407A01A9009008192A4615A1A8
:1035400002F082F9044401A9081920A21EA102F088
:103550007BF904440020054908807EB070BD00005E
:103560000000C8420000594000004E405E010020AB
:10357000C8030020A8010020640100206801002089
:103580004C617469747564653A20252E3666202571
:10359000630A00004C6F6E6769747564653A202594
:1035A0002E36662025630A00596F75722066616D9C
:1035B000696C79206D656D6265722066656C6C2042
:1035C000646F776E2100000025730000000000008A
:1035D00010B56FF0040000F09AF92E4800682E49EB
:1035E000B0FBF1F02D4908700846007800EB40016F
:1035F000C1EBC0104FF6FF7101EAC00028490880F6
:1036000010BD0146254A12784A434FF0E0235A6123
:1036100000229A611A46126942F001021A6100BF43
:103620004FF0E022106900F001021AB100F480327C
:10363000002AF5D04FF0E022126922F001024FF08B
:10364000E0231A6100229A6170470146144A1288E9
:103650004A434FF0E0235A6100229A611A461269E8
:1036600042F001021A6100BF4FF0E022106900F041
:1036700001021AB100F48032002AF5D04FF0E022A6
:10368000126922F001024FF0E0231A6100229A61D0
:10369000704700000000002000127A006C0100203A
:1036A0006E01002010B54FF4A06000F0E1F810BDED
:1036B00000BF704700BF4C4A128802F04002002A47
:1036C000F9D0C2B2484B1B1D1A80704710B586B0A6
:1036D0000446012144F2040000F054FC424800F08A
:1036E000B5FC4FF40070ADF8140003208DF81600FF
:1036F00018208DF8170005A93C4800F087F925200F
:103700008DF8000003208DF801008DF802000120E3
:103710008DF80300684600F0B0F801940020ADF881
:103720000800ADF80A00ADF80C00ADF810000C2050
:10373000ADF80E0001A92C4800F0CBFC002240F2AD
:103740002551294800F05DFD0121274800F04DFD7D
:1037500006B010BD70B504460D462946204600F05F
:10376000B1FD00BF4021204600F01AFE0028F9D02C
:1037700070BD70B505460C4604E021782846FFF779
:10378000E9FF641C20780028F7D170BD2DE9F041D5
:1037900007460C461546002606E014F8011B38467D
:1037A000FFF7D8FF701CC6B2AE42F6DBBDE8F08171
:1037B00010B540F225510C4800F008FE90B10A48BF
:1037C00000F084FDC4B20A480088C7280ADA084815
:1037D0000088C0F30D0007490C5405480088401CC0
:1037E0000349088010BD0000003801400008014076
:1037F00074010020D403002000200B4908800B49ED
:103800000880704702880A430280704702888A4312
:1038100002807047024610880840884201D101208A
:1038200070470020FCE700007601002078010020AE
:103830000948804709480047FEE7FEE7FEE7FEE744
:10384000FEE7FEE7FEE7FEE7FEE7FEE70448054980
:10385000054A064B704700000704000831010008C4
:10386000800D002080130020800F0020800F00209A
:1038700031490143314A1160704770B5002100237E
:103880000F22C47804B32D4C246804F4E064C4F51A
:10389000E064210AC1F10403CA40447804FA03F148
:1038A0008478144021430901254C0678A1550478F9
:1038B00004F01F050124AC4005786D11AD0005F141
:1038C000E025C5F8004109E0047804F01F05012453
:1038D000AC401C4D0678761145F8264070BD1A4A5A
:1038E0000A400243154B1B1F1A60704739B1134A37
:1038F000121D12680243114B1B1D1A6006E00F4A8D
:10390000121D126882430D4B1B1D1A60704704285C
:1039100008D14FF0E021096941F004014FF0E022A5
:10392000116107E04FF0E021096921F004014FF037
:10393000E0221161704700000000FA050CED00E084
:1039400000E400E080E100E080FFFF1F10B50446C6
:10395000CC48844208D10121042000F02DFB002135
:10396000042000F029FB46E0C748844208D1012129
:10397000082000F021FB0021082000F01DFB3AE0A8
:10398000C248844208D10121102000F015FB00211B
:10399000102000F011FB2EE0BD48844208D1012127
:1039A000202000F009FB0021202000F005FB22E090
:1039B000B848844208D10121402000F0FDFA0021DE
:1039C000402000F0F9FA16E0B348844208D1012102
:1039D000802000F0F1FA0021802000F0EDFA0AE0EA
:1039E000AE48844207D10121801500F0E5FA00219C
:1039F000A01500F0E1FA10BD10B50121084600F055
:103A0000DBFA0021012000F0D7FA10BD2DE9F041CA
:103A1000024600250026002000230024002791F8FC
:103A200003C00CF00F0591F803C00CF0100CBCF1B2
:103A3000000F03D091F802C04CEA050591F800C0D0
:103A4000BCF1000F31D0146800202BE04FF0010CC6
:103A50000CFA00F3B1F800C00CEA03069E4220D134
:103A600083004FF00F0C0CFA03F7BC4305FA03FC7C
:103A70004CEA040491F803C0BCF1280F06D14FF0C2
:103A8000010C0CFA00FCC2F814C00AE091F803C063
:103A9000BCF1480F05D14FF0010C0CFA00FCC2F844
:103AA00010C0401C0828D1D31460B1F800C0BCF18C
:103AB000FF0F34DD546800202EE000F1080C4FF0B9
:103AC000010808FA0CF3B1F800C00CEA03069E42A4
:103AD00021D183004FF00F0C0CFA03F7BC4305FA19
:103AE00003FC4CEA040491F803C0BCF1280F05D193
:103AF00000F1080C08FA0CF8C2F8148091F803C021
:103B0000BCF1480F07D100F1080C4FF0010808FA8A
:103B10000CF8C2F81080401C0828CED35460BDE8D1
:103B2000F0814FF6FF710180022181700421C17084
:103B300070470246002093680B400BB1012000E063
:103B4000002070470146886880B270470246002016
:103B5000D3680B400BB1012000E000207047014604
:103B6000C86880B2704701617047416170470AB10F
:103B7000016100E041617047C16070474FF48032DD
:103B80000A4382618161826182698269704702466B
:103B90000020434B18684FF68073184040EA02102B
:103BA00008433F4B186070473E49C8617047F0B505
:103BB0000A46002300240021002500F00046B6F14B
:103BC000004F02D1364EF16901E0354E7168C0F305
:103BD000034583B200F44016B6F5401F08D121F02A
:103BE00070612F4E766826F070662D4F7E6012E071
:103BF00000F48016B6F5801F06D1032606FA05F4F8
:103C0000A14341F0706106E0460D360103FA06F665
:103C1000B14341F0706122B1460D360103FA06F658
:103C2000314300F00046B6F1004F02D11C4EF16165
:103C300001E01B4E7160F0BD30B500228B071C0FF8
:103C40000F2303FA04F2164B08338C1053F8243078
:103C50009343134C08348D1044F8253023468C10C0
:103C600053F824308C07240F00FA04F423430C4C3F
:103C700008348D1044F8253030BD0A49DC31086025
:103C80007047000000080140000C01400010014096
:103C90000014014000180140001C014000200140B8
:103CA0000000014000002042DF48006840F00100B1
:103CB000DD49086008464068DC490840DA49486048
:103CC00008460068DA490840D74908600846006895
:103CD00020F4802008600846406820F4FE00486018
:103CE0004FF41F0088607047CF49096821F4803184
:103CF000CD4A11601146096821F480211160B0F5A8
:103D0000803F03D0B0F5802F0ED106E0C649096888
:103D100041F48031C44A116007E0C349096841F4A5
:103D2000A021C14A116000E000BF00BF704710B57C
:103D300001460022002300204A11012A02D1BA4C78
:103D4000236806E0022A02D1B74C236A01E0B64C90
:103D5000636A01F01F02012494401C400CB1012051
:103D600000E0002010BD38B50020009000240025A0
:103D700000BF3120FFF7DBFF05460098401C009094
:103D80000098B0F5A06F01D0002DF2D03120FFF7E0
:103D9000CEFF08B1012400E00024204638BD0146D2
:103DA0000020A14A106820F0F80040EAC10010602D
:103DB0007047A04908607047024600209A4B586837
:103DC00020F47C1042EA01031843974B5860704777
:103DD00098490866704701460020934A506820F0D1
:103DE00003000843506070478F48406800F00C00A3
:103DF0007047014600208C4A506820F0F0000843CC
:103E00005060704701460020874A506820F4E06007
:103E100008435060704701460020834A506820F4F0
:103E2000605040EAC1005060704729B17E4A527A22
:103E300002437D4B5A7204E07B4A527A82437A4BAA
:103E40005A7270477B49D83108607047014600209C
:103E5000754A506820F44040084350607047002184
:103E6000714A20321170704A82F82010012802D065
:103E700004280AD104E001216B4A2032117005E0C8
:103E80000521694A2032117000E000BF00BF704771
:103E90006949086070476449096A0143624A1162CE
:103EA0007047654944390860704730B500210022E9
:103EB000002400235C4D6D6805F00C0121B104293C
:103EC00005D0082923D105E05C4D056022E05B4D5B
:103ED00005601FE0544D6D6805F47012524D6D6819
:103EE00005F48034022505EB92421CB9544D55432C
:103EF00005600BE04C4D6D6805F400351DB1504D6B
:103F00005543056002E04D4D5543056002E04B4DC1
:103F1000056000BF00BF444D6D6805F0F001090960
:103F2000484D6B5C0568DD4045603F4D6D6805F4AC
:103F3000E061090A434D6B5C4568DD4085603A4DA0
:103F40006D6805F46051C90A3E4D6B5C4568DD4003
:103F5000C560354D6D6805F44041890B3A4D6B5C89
:103F6000C568B5FBF3F5056130BD29B12E4A52692C
:103F700002432D4B5A6104E02B4A526982432A4B7B
:103F80005A61704729B1284A92690243264B9A61C7
:103F900004E0254A92698243234B9A61704729B114
:103FA000214AD2690243204BDA6104E01E4AD269F9
:103FB00082431D4BDA61704729B11B4AD268024324
:103FC000194BDA6004E0184AD2688243164BDA6073
:103FD000704729B1144A12690243134B1A6104E075
:103FE000114A12698243104B1A61704712494039D5
:103FF000086070470F49C86470470B49C871704723
:104000000948406A40F0807007494862704701469D
:104010000020054A92680A400AB1012000E0002011
:104020007047014988727047001002400000FFF895
:10403000FFFFF6FE000042428004424200127A0076
:1040400000093D007A0100208A01002010B50446D5
:10405000FB48844209D101218803FFF7ADFF00210D
:104060004FF48040FFF7A8FF32E0F648844209D1C0
:1040700001214804FFF7ADFF00214FF40030FFF7A6
:10408000A8FF25E0F048844209D101218804FFF708
:10409000A0FF00214FF48020FFF79BFF18E0EB48C2
:1040A000844209D10121C804FFF793FF00214FF496
:1040B0000020FFF78EFF0BE0E548844208D1012184
:1040C0000805FFF786FF00214FF48010FFF781FFFE
:1040D00010BD2DE9F04786B005460E460024A246E5
:1040E00000BFA1460027B08900B100BF2F462C8A2F
:1040F0004CF6FF700440F08804432C82AC894EF6E5
:10410000F3100440B088318908437189084304439F
:10411000AC81AC8A4FF6FF400440B0890443AC82C6
:1041200001A8FFF7C2FEC648874202D1DDF810A001
:1041300001E0DDF80CA0A88900F4004040B10AEBD2
:10414000CA0000EB0A1031684900B0FBF1F807E043
:104150000AEBCA0000EB0A1031688900B0FBF1F8E5
:104160006420B8FBF0F004012009642101FB1089F0
:10417000A88900F4004040B1322000EBC900B0FB38
:10418000F1F000F00700044308E0322000EB0910D2
:104190006421B0FBF1F000F00F0004432C8106B065
:1041A000BDE8F0874FF41651016000218180C18085
:1041B00001810C21418100218181704710B50246A7
:1041C0000020108A4FF2FF0318400B884C882343CD
:1041D0008C882343CC8823431843108210BD0021D0
:1041E000018041808180C180704721B1828942F481
:1041F0000052828104E082894DF6FF731A40828169
:104200007047F0B50346002400260025002040F644
:104210006A17B94200D100BF1846C1F3421401F039
:104220001F06012707FA06F5012C01D10C3004E026
:10423000022C01D1103000E014301AB107682F436E
:10424000076002E00768AF430760F0BD1AB1838AD8
:104250000B43838202E0838A8B4383827047028A06
:104260004FF6F0731A400282028A0A4302827047B4
:1042700082894FF2FF731A40828182890A438281C8
:10428000704721B1828942F00202828104E0828972
:104290004FF6FD731A4082817047028A4FF6DF7332
:1042A0001A400282028A0A430282704721B1028ABE
:1042B00042F48042028204E0028A4BF6FF731A4005
:1042C00002827047C1F308028280704701468888E5
:1042D000C0F308007047818941F001018181704776
:1042E000028BD2B20283028B42EA01220283704720
:1042F000028B02F47F420283028B0A4302837047DF
:1043000021B1828A42F02002828204E0828A4FF642
:10431000DF731A408282704721B1828A42F0100214
:10432000828204E0828A4FF6EF731A4082827047DD
:1043300021B1828A42F00802828204E0828A4FF62A
:10434000F7731A408282704721B1828942F4004299
:10435000828103E08289C2F30E028281704721B11B
:10436000828A42F40062828204E0828A4FF2FF7302
:104370001A4082827047828A4FF6FB731A4082820B
:10438000828A0A438282704721B1828A42F0020205
:10439000828204E0828A4FF6FD731A40828270475F
:1043A00002460020B1F5007F00D100BF13880B400A
:1043B0000BB1012000E00020704701F40072B2F55B
:1043C000007F00D100BFCA430280704770B502462B
:1043D000002400230025002040F66A16B14200D1D7
:1043E00000BFC1F3421501F01F03012606FA03F3D3
:1043F000012D02D19689334006E0022D02D1168AA2
:10440000334001E0968A33400C12012606FA04F488
:104410001688344013B10CB1012000E0002070BDBB
:1044200010B50022002340F66A14A14200D100BF5B
:104430000A1201249440A3B2DC43048010BD0000A2
:10444000003801400044004000480040004C00405B
:104450000050004010B50446FE48844208D10121B6
:10446000C014FFF7A9FD0021E014FFF7A5FDC4E08B
:10447000B4F1804F08D101210846FFF7AAFD0021C1
:104480000120FFF7A6FDB8E0F348844208D10121DE
:104490000220FFF79EFD00210220FFF79AFDACE00D
:1044A000EE48844208D101210420FFF792FD00214B
:1044B0000420FFF78EFDA0E0E948844208D10121E5
:1044C0000820FFF786FD00210820FFF782FD94E019
:1044D000E448844208D101211020FFF77AFD002131
:1044E0001020FFF776FD88E0DF48844208D10121E3
:1044F0002020FFF76EFD00212020FFF76AFD7CE001
:10450000DA48844208D101214014FFF755FD00210B
:104510006014FFF751FD70E0D548844209D10121B4
:10452000C804FFF749FD00214FF40020FFF744FDC8
:1045300063E0D048844209D101210805FFF73CFD22
:1045400000214FF48010FFF737FD56E0CA4884423F
:1045500009D101214805FFF72FFD00214FF400107C
:10456000FFF72AFD49E0C548844208D101214020D7
:10457000FFF72FFD00214020FFF72BFD3DE0C04855
:10458000844208D101218020FFF723FD00218020F3
:10459000FFF71FFD31E0BB48844208D1012180159F
:1045A000FFF717FD0021A015FFF713FD25E0B64822
:1045B000844209D101210804FFF7FEFC00214FF4D9
:1045C0008030FFF7F9FC18E0B048844209D101219E
:1045D0004804FFF7F1FC00214FF40030FFF7ECFC3A
:1045E0000BE0AB48844208D101218804FFF7E4FCCA
:1045F00000214FF48020FFF7DFFC10BD002202886D
:10460000944B98420ED0994B98420BD0B0F1804F0A
:1046100008D0914B984205D0904B984202D0904BD5
:10462000984204D14FF68F731A404B881A438D4B32
:10463000984207D08C4B984204D04FF6FF431A4063
:10464000CB881A4302808B8883850B880385814B36
:1046500098420BD0854B984208D08B4B984205D09E
:104660008A4B984202D08A4B984201D10B7A03863A
:1046700001238382704770B5002400220023058C3B
:104680004FF6FE7635400584028C8388048B4FF606
:104690008F752C40B51E2C400D882C43751E2A406A
:1046A0000D892A434D882A436A4DA8420BD06F4D8D
:1046B000A84208D0744DA84205D0744DA84202D03B
:1046C000734DA84213D14FF6F7752A404D892A43FE
:1046D0004FF6FB752A408D882A434FF6FF652B4025
:1046E0004FF6FF552B408D892B43CD892B4383807B
:1046F0000483CD888586028470BD70B500240022B5
:104700000023058C4FF6EF7635400584028C8388B4
:10471000048B48F6FF752C404FF6FF452C400D8862
:104720004FF6FF7606EA05252C434FF6DF752A4043
:104730000D8906EA05152A434D8806EA05152A4320
:10474000444DA84202D0494DA8421DD14FF67F7575
:104750002A404D894FF6FF7606EA05152A434FF6A3
:10476000BF752A408D8806EA05152A434FF6FF35A6
:104770002B404FF2FF752B408D8906EA85052B43B0
:10478000CD8906EA85052B4383800483CD88058780
:10479000028470BD70B5002400220023058C4FF602
:1047A000FF6635400584028C8388848B4FF68F75B5
:1047B0002C404FF6FC752C400D882C434FF6FF55CE
:1047C0002A400D894FF6FF7606EA05252A434D88D3
:1047D00006EA05252A431F4DA84202D0234DA842D0
:1047E0001DD14FF2FF752A404D894FF6FF7606EA3C
:1047F00005252A434FF6FF352A408D8806EA052510
:104800002A434EF6FF752B404DF6FF752B408D89E0
:1048100006EA05152B43CD8906EA05152B4383804F
:104820008483CD888587028470BD70B50022002303
:104830000024058C4EF6FF7635400584038C848871
:10484000828B48F6FF752A404FF6FF452A400D88B7
:1048500020E00000002C014000040040000800405F
:10486000000C0040001000400014004000340140E3
:10487000004C01400050014000540140001800402D
:10488000001C004000200040004001400044014066
:10489000004801404FF6FF7606EA05252A434DF60B
:1048A000FF752B400D8906EA05352B434D8806EA36
:1048B00005352B43FA4DA84202D0FA4DA84208D143
:1048C0004BF6FF752C408D894FF6FF7606EA85156D
:1048D0002C4384808283CD88A0F84050038470BD2F
:1048E000828B4FF2FF331A408283828B4FF6FF7325
:1048F00003EA01231A4382837047F0B50C4615463C
:10490000002200210026078C4EF6FF7C07EA0C07E8
:104910000784828B018C4FF6FF7707EA043640F656
:10492000FF473A404FF6FF7707EA05273A434FF62D
:10493000FF7707EA03373A43D94FB8420ED0D94F31
:10494000B8420BD0B0F1804F08D0D74FB84205D055
:10495000D64FB84202D0D64FB84206D14DF6FF77B7
:10496000394046F48057394305E047F6FF57394050
:1049700044F48057394382830184F0BD828B4FF623
:10498000F3731A408283828B0A4382837047F0B5A7
:104990000C461546002200210026078C4FF6FF6CBE
:1049A00007EA0C070784828B018C4FF6FF7707EA32
:1049B00004264FF60C773A404FF6FF7707EA0317C5
:1049C0002F433A43B64FB8420ED0B64FB8420BD041
:1049D000B0F1804F08D0B44FB84205D0B34FB842C1
:1049E00002D0B34FB84206D14FF6FF57394046F4D4
:1049F0008077394305E04FF2FF57394044F4807720
:104A0000394382830184F0BD028B4FF2FF331A4099
:104A10000283028B4FF6FF7303EA01231A430283DA
:104A20007047F0B50C461546002200210026078C81
:104A30004FF6EF7C07EA0C070784028B018C4FF6D8
:104A4000FF7707EA041640F6FF473A404FF6FF7734
:104A500007EA03373A434FF6FF7707EA05273A4359
:104A60008F4FB8420ED08F4FB8420BD0B0F1804F6D
:104A700008D08D4FB84205D08C4FB84202D08C4F31
:104A8000B84206D14FF6DF77394046F01007394378
:104A900005E04FF65F77394044F010073943028351
:104AA0000184F0BD028B4FF6F3731A400283028B30
:104AB0000A4302837047F0B50C46154600220021D8
:104AC000068C4FF6FE773E400684028B018C4FF633
:104AD0000C7632407E1C06EA03162E433243704E9B
:104AE000B0420ED06F4EB0420BD0B0F1804F08D024
:104AF0006D4EB04205D06D4EB04202D06C4EB04209
:104B000006D14FF6FD76314044F00106314305E011
:104B10004FF6F576314044F00106314302830184BB
:104B2000F0BD70B505460C465D4885420ED05D4827
:104B300085420BD0B5F1804F08D05B48854205D047
:104B40005A48854202D05A48854200D100E000BF51
:104B5000208850B92389A28861882846FFF7ABFFD7
:104B6000E1882846FFF79EFF25E0208804280AD127
:104B70002389A28861882846FFF753FFE1882846E9
:104B8000FFF742FF17E0208808280AD12389A2886E
:104B900061882846FFF7FBFEE1882846FFF7EEFE16
:104BA00009E02389A28861882846FFF7A6FEE188EC
:104BB0002846FFF795FE70BD2DE9F04105460C46ED
:104BC00000260127608808B9022600E00026A08898
:104BD000012801D1022700E001272088A0B92389FC
:104BE000A28861882846FFF766FFE1882846FFF71C
:104BF00059FF23893A4631462846FFF712FFE188DC
:104C00002846FFF701FF13E02389A2886188284620
:104C1000FFF707FFE1882846FFF7F6FE23893A46AB
:104C200031462846FFF747FFE1882846FFF73AFF5D
:104C3000BDE8F0810A884B881A438B881A43CB88D9
:104C40001A430B891A434B891A438B891A43A0F8DC
:104C5000442070474FF6FF71818000210180C180A0
:104C60004180017270470021018041808180C180B4
:104C7000018141818181C181704700210180418092
:104C8000012181800021C1800181704700210180C4
:104C900041808180C1800181418181817047000014
:104CA000002C014000340140000400400008004096
:104CB000000C004021B1028842F00102028004E0B1
:104CC00002884FF6FE731A400280704731B1B0F887
:104CD000442042F40042A0F8442005E0B0F844200B
:104CE000C2F30E02A0F8442070471AB183890B4327
:104CF000838102E083898B4383817047818270477F
:104D000041EA0203A0F8483070471AB183890B4387
:104D1000838102E083898B438381704701894FF649
:104D2000F8721140018170470A46002101894FF64F
:104D30008F73194011430181704730B504460D4609
:104D400029462046FFF7F0FF208940F00700208128
:104D500030BD2DE9F04104460D4616461F46602D34
:104D600006D13B46012231462046FFF75AFE05E0B8
:104D70003B46012231462046FFF79DFE294620464C
:104D8000FFF7D2FF208940F007002081BDE8F081C5
:104D900030B50C4600210189C9B24FF6FF7505EA0E
:104DA0000325154325432943018130BD2DE9F041F9
:104DB00005460E4617469846002443463A46314675
:104DC0002846FFF7E5FF2C894FF6F870044044F0C1
:104DD00007044FF68F70044044F070042C81BDE846
:104DE000F081F0B504460D4616461F463B46324656
:104DF00029462046FFF7CCFF208940F480402081DF
:104E0000F0BD0185828270470A46002101884FF675
:104E10008F731940114301807047F0B50C46154659
:104E20001E460021002200230189028B038C4FF6CD
:104E3000F877394021434FF6FC473A4040F20117DA
:104E40003A434FF6DD773B404FF6FF7707EA061708
:104E50002F433B43018102830384F0BD0A460021B6
:104E6000018B4FF68F7319401143018370470A4637
:104E70000021018B48F6FF7319404FF6FF7303EAD8
:104E800002231943018370470A460021818B4FF6A4
:104E90008F7319401143818370470A460021818B2B
:104EA00048F6FF7319404FF6FF7303EA02231943D4
:104EB0008183704721B1028842F08002028004E0C1
:104EC00002884FF67F731A400280704721B18288B2
:104ED00042F00402828004E082884FF6FB731A409D
:104EE0008280704721B1828842F00802828004E00B
:104EF00082884FF6F7731A408280704721B182880A
:104F000042F00102828004E082884FF6FE731A406C
:104F1000828070470A460021018B4FF6F7731940D3
:104F20001143018370470A460021018B4FF2FF7342
:104F300019404FF6FF7303EA0223194301837047B8
:104F40000A460021818B4FF6F77319401143818384
:104F500070470A460021818B4FF2FF7319404FF6CC
:104F6000FF7303EA02231943818370470A46002135
:104F7000018B4FF6FB7319401143018370470A46BA
:104F80000021018B4FF6FF3319404FF6FF7303EA00
:104F900002231943018370470A460021818B4FF693
:104FA000FB7319401143818370470A460021818BAE
:104FB0004FF6FF3319404FF6FF7303EA02231943FC
:104FC000818370470A460021018B4FF67F73194099
:104FD0001143018370470A460021018BC1F30E0182
:104FE0004FF6FF7303EA02231943018370470A4611
:104FF0000021818B4FF67F731940114381837047E5
:105000000A460021818BC1F30E014FF6FF7303EABC
:1050100002231943818370470A460021018C4FF611
:10502000FD7319401143018470470A460021018C29
:105030004FF6F77319401143018470470A46002167
:10504000018C4FF6DF7319404FF6FF7303EA02132A
:105050001943018470470A460021018C4FF67F7383
:1050600019404FF6FF7303EA021319430184704796
:105070000A460021018C4FF6FF5319404FF6FF738B
:1050800003EA02231943018470470A460021018C78
:105090004FF2FF7319404FF6FF7303EA02231943DF
:1050A000018470470A460021018C4DF6FF731940B8
:1050B0004FF6FF7303EA023319430184704730B59A
:1050C000002301248C40A3B2048C9C430484048CF0
:1050D00002FA01F5ADB22C43048430BD30B5002393
:1050E00004248C40A3B2048C9C430484048C02FAF4
:1050F00001F5ADB22C43048430BD70B503460020E9
:1051000000241846183001258D40ACB21D8CA543F3
:105110001D8409B1082909D100EB6100056825F05B
:10512000700505600568154305600EE00D1FC5F3A9
:105130004E052844056825F4E045056005684FF6EE
:10514000FF7606EA02263543056070BD21B102886C
:1051500042F00202028004E002884FF6FD731A401A
:105160000280704721B1028842F00402028004E00C
:1051700002884FF6FB731A400280704721B1828883
:1051800042F08002828004E082884FF67F731A40EA
:105190008280704702884FF6F7731A4002800288B7
:1051A0000A430280704782884FF68F731A408280CC
:1051B00082880A438280704702894FF6F8731A404A
:1051C000028102890A430281704702894FF67F7388
:1051D0001A40028102890A43028170478184704724
:1051E0008185704781867047018770478187704746
:1051F000A0F84010704702884FF6FF431A40028023
:1052000002880A43028070470146888E7047014633
:10521000088F70470146888F70470146B1F84000FB
:1052200070470146888C70470146088D70470246DA
:105230000020138A0B400BB1012000E000207047D2
:10524000CA430282704730B5024600200023002482
:10525000158A05EA0103958905EA010413B10CB129
:10526000012000E0002030BDCA43028270470000E8
:10527000002044490860091D0860091D0860091DD7
:10528000086041483F4914310860704700213D499A
:105290008279002A3AD00A46126803689A430B467C
:1052A0001A600A1D126803689A430B1D1A6002797E
:1052B00011440A6803681A430A60324A08321268C5
:1052C00003689A432F4B08331A601A1D126803684B
:1052D0009A432C4B0C331A604279102A0ED11A1FB4
:1052E000126803681A43274B08331A601A1D1268A4
:1052F00003681A43234B0C331A600DE021494279AD
:1053000011440A6803681A430A6005E002791144EF
:105310000A6803689A430A607047002101600171BE
:105320000C214171002181717047164910310968C3
:105330000143144A10321160704701460020114A9F
:10534000143212680A400AB1012000E000207047C0
:105350000C49143108607047014600200022094BB7
:105360001B6803EA0102074B14331B680B4013B19F
:105370000AB1012000E000207047024914310860A2
:105380007047000000040140FFFF0F0010B5044605
:10539000BE48844208D101218014FEF70DFE002191
:1053A000A014FEF709FE16E0B948844208D1012195
:1053B0000014FEF70EFE00212014FEF70AFE0AE09C
:1053C000B448844207D10121C013FEF702FE002138
:1053D000E013FEF7FEFD10BD10B50022028802F4B6
:1053E00041520B884C8823438C882343CC88234329
:1053F0000C8923434C8923438C892343CC89234341
:105400001A430280838B4FF2FF74234083830B8AFD
:10541000038210BD2DE9F04F85B005460C464FF0D4
:10542000000902274FF000084FF0010B0026B2469A
:10543000A88B4FF240010840A88302202884B5F8C9
:105440001C90A068022801D100BF38E0A08810B9E4
:105450004FF0010B01E04FF0020B8D48854200D167
:1054600000E000BF6846FEF720FDDDF800A0E08800
:10547000B0F5007F0AD14FEA1A2000EB800040000F
:10548000A168B0FBF1F0401D86B20BE04FEA4B1073
:10549000BAFBF0F000EB80004000A168B0FBF1F037
:1054A000401D86B20A20B6FBF0F606F00108A6EB16
:1054B0000800C0F34F074FF6FF7000EA0828022FDC
:1054C00001DBFF2F02DD02274FF00008E08840EAF1
:1054D000080038432884A088A189084361880843CC
:1054E0002188084340F4006040EA0909A5F81C90AF
:1054F00005B0BDE8F08F0021018041808180C1802E
:10550000018141818181C181072101827047002190
:10551000018041808180C1800221816000218181E0
:10552000704721B1028842F04002028004E0028804
:105530004FF6BF731A400280704721B1828B42F44C
:105540008062828304E0828B4FF6FF331A408283AD
:10555000704730B5002400230C110125A540ABB2E3
:105560001AB185881D43858002E085889D4385802A
:1055700030BD1AB183880B43838002E083888B435C
:1055800083807047818170470146888970474FF654
:10559000FF62914204D0028842F48072028004E0EB
:1055A00002884FF6FF631A400280704721B182885B
:1055B00042F00402828004E082884FF6FB731A40B6
:1055C0008280704702884FF2FF731A40028002887F
:1055D0000A4302807047018841F48051018070477E
:1055E00021B1028842F40052028004E002884DF6A4
:1055F000FF731A400280704702460020012901D043
:10560000108B00E0908A70470146088A7047B1F518
:10561000804F04D1028842F48042028004E0028874
:105620004BF6FF731A400280704702460020138930
:105630000B400BB1012000E000207047CA430281FB
:105640007047F0B50246002000240023002501F039
:105650000F070126BE40B4B20B1101269E40B3B223
:10566000968806EA03051689264016B10DB1012079
:1056700000E00020F0BD10B5002201F00F0401236E
:10568000A3409AB2D343038110BD00000030014013
:1056900000380040003C004070B503460C4603E073
:1056A00014F8015B03F8015B151EA2F10102F7D1AA
:1056B00070BD30B5034601E003F8011B141EA2F1D2
:1056C0000102F9D130BD00B557498022C8680021D8
:1056D000FFF7EFFF54494FF4006288680021FFF79D
:1056E000E8FF01205049087400BD0022002106E0B7
:1056F0004D48C06830F8110000B1521C491C4029C7
:10570000F6D364205043C0F3871070472DE9F04171
:1057100006460024A0464448007C10B94249086867
:1057200080471EB94FF0FF30BDE8F081C6F34F153A
:1057300006F01F0008B1681C85B23F241AE03A4801
:10574000C06830F8140020B908F101001FFA80F891
:1057500001E04FF00008A8450BD1002705E03248D2
:10576000C068E11920F811507F1CAF42F7D36001E7
:10577000DAE7641E002CE2DA4FF0FF30D4E770B5B0
:1057800005462948007C20B9274908688047012040
:1057900070BDB5F5006F11D269092348C06830F8B3
:1057A0001120002406E000201F4BDB680E1923F8AF
:1057B0001600641C9442F6DB0020E9E70220E7E7CC
:1057C00070B5044604B970BD17488068251A28468C
:1057D000FFF7D5FF00BFF6E770B505462846FFF78F
:1057E00095FF0446601C08B9002070BD0E48806813
:1057F0002044FAE770B506460C462046FFF786FFC0
:105800000546681C08B9002070BD07498968481919
:1058100022463146FFF740FF3046FFF7D1FF0248EE
:1058200080682844F0E700009001002070470000E5
:105830000FB4044910B503AA029800F067FC10BC2D
:105840005DF814FB700100200FB41CB5084B06AACC
:105850007B4469460090059800F029FC044600202E
:10586000694600F037FC20461CBC5DF814FB0000C4
:105870008108000070B50C460546012A05D028783D
:10588000800600D5EA69002302E0012305E05B1CE5
:10589000934202D2E05C0028F9D1A869E618C01A48
:1058A000A861286A184428622846AFF3008004E003
:1058B000D5E9012114F8010B9047B442F8D32846EA
:1058C000AFF3008070BD00002DE9F04106460024D2
:1058D00010687529314616A510D0AFF30080002856
:1058E00002DA404213A507E031688A0701D512A504
:1058F00002E0490704D511A5012401E0AFF30080BF
:1059000000210A2206F1240709E0B0FBF2FCB0FBFB
:10591000F2F302FB1C00303078541846491C002872
:10592000F3D123462A463046BDE8F04100F054B991
:10593000000000002D0000002B00000020000000EF
:1059400070B504460D4621461068AFF300802188EB
:10595000090502D50F4A7A4402E00E4A7A440E3213
:10596000002104F1240305E000F00F060009965D14
:105970005E54491C0028F7D120780023000704D585
:10598000702D02D009B1022311322046BDE87040CB
:1059900000F022B93C4B00002DE9F0474FF0000A1F
:1059A00089460446C0F820A02046E16888470028C0
:1059B00076D0252806D0D4E901219047206A401CE2
:1059C0002062F1E7E168204600258847C4F81CA062
:1059D00006460027C4F818A02A2E09D0304601F048
:1059E000A4FF38B304EB8708303EC8F8186019E00C
:1059F00059F8041B204604EB87029161E16888474F
:105A0000012F064618D1E069002820DA25F020058C
:105A10001DE0D8F8180000EB800006EB400030389D
:105A2000C8F818002046E1688847064601F07DFF67
:105A30000028EED1012F0AD02E2E08D12046E16891
:105A400088477F1C0646022F45F02005C4DBA0696D
:105A5000002803DA404245F00105A061E80701D0C3
:105A600025F01005B6B1A6F14100192802D820365C
:105A700045F400654A463146204625604D46FAF712
:105A8000B1FB58B1012806D0ED1D25F0070000F14B
:105A9000080989E704E005F1040985E730468AE74B
:105AA000206ABDE8F0870000014A00F093BB0000C7
:105AB000A401002030B505460B462A4613F8014BD9
:105AC00012F8010B08B1A042F8D01CB1002802D096
:105AD0006D1CF1E7284630BD10B5431C02E010F8FC
