:040000006F00F02C71
:100004000000000000000000620300006403000020
:1000140000000000CC0A0000000000000000000006
:10002400CC0A0000CC0A0000000000000000000020
:10003400CC0A000000000000CC0A00000000000010
:10004400CC0A0000CC0A0000CC0A0000CC0A000054
:10005400CC0A0000CC0A0000CC0A0000CC0A000044
:10006400CC0A0000CC0A0000CC0A0000CC0A000034
:10007400CC0A0000CC0A0000CC0A0000CC0A000024
:10008400CC0A0000CC0A0000CC0A0000CC0A000014
:10009400CC0A000000000000CC0A0000CC0A0000DA
:1000A400CC0A0000CC0A0000CC0A0000CC0A0000F4
:1000B4006A060000CC0A0000CC0A0000CC0A00004A
:1000C400CC0A0000CC0A0000CC0A0000CC0A0000D4
:1000D400CC0A0000EE05000028060000CC0A00004F
:1000E400CC0A0000C6050000CC0A0000CC0A0000BF
:1000F400CC0A0000CC0A0000CC0A0000CC0A0000A4
:10010400CC0A0000CC0A000000000000CC0A000069
:10011400CC0A000000000000000000000000000005
:1001240000000000000000000000000000000000CB
:0C013400000000000000000000000000BF
:10014000397101436EC619A0397141536AC866CA34
:1001500062CC5ECE19A0397101535AD056D252D416
:100160004ED64AD826DA22DC06DE3301614082828E
:1001700041114AC026C222C406C68282B24D410144
:10018000024D924C224CB24B4101024B924A224A00
:10019000B2494101024992442244B2404101828065
:1001A0003367B500FD530D8B79E7B7877F7F938762
:1001B000F7F710419441B372F6003363F600BE9234
:1001C000B3E262006395720C6318D6065041D441C5
:1001D000B372F6003363F600BE92B3E26200639638
:1001E000720A631BD60410459445B372F60033635C
:1001F000F600BE92B3E26200639F7208631ED602ED
:100200005045D445B372F6003363F600BE92B3E2B4
:100210006200639872086311D60210499449B37260
:10022000F6003363F600BE92B3E262006391720897
:100230005105D105E30FD6F6131706019397060172
:10024000631CF7001357060193D706013305F740E7
:100250009375F50F91E982804183C1833305F7409F
:100260009375F50F91E182801377F70F93F7F70FEE
:100270003305F7408280102194210505850563131D
:10028000D60075FA3305D640828011059105E31436
:10029000D6FE014582802105A105E31ED6FC01455D
:1002A00082803105B105E318D6FC01458280410505
:1002B000C105E312D6FC014582803D432A87637362
:1002C000C3029377F700BDEFADE5937606FF3D8A55
:1002D000BA960CC34CC30CC74CC74107E36BD7FE9F
:1002E00011E28280B306C3408A0697020000969608
:1002F0006780A6002307B700A306B7002306B70050
:10030000A305B7002305B700A304B7002304B70073
:10031000A303B7002303B700A302B7002302B7006B
:10032000A301B7002301B700A300B7002300B70063
:10033000828093F5F50F93968500D58D93960501F0
:10034000D58D61B793962700970200009696868216
:10035000E78086FA9680C1171D8F3E96E374C3F836
:10036000A5B701A0B707EFBE37E700E093870708FE
:100370003CC701A0EFF2DFDF0545EF00D067C164A5
:10038000EF00C06AEF30D016EF20F033EF20F054CA
:10039000EF3060701387F4FF9306000F130680128E
:1003A00081450145EF30800837D400009386F4FF83
:1003B000930784A561471306F01C8145130540038C
:1003C000EF30405337D900009386F4FF930749A7D5
:1003D000130700021306F01C930580040145EF305B
:1003E0006051B7D700009386F4FF938707A9614750
:1003F0001306F01C9305800613050003EF30804FB1
:10040000716513050520EF2070580965130505581F
:10041000EF207067A284EF108051EF20C06663194F
:100420000518EF10F06783A5C182138581ACEF90AA
:10043000401B19C1EF20704AEF1050724164EF2049
:100440000076EF10C0721307F4FF9306000F130637
:10045000801281450145EF20707D61479306F4FFCE
:100460001306F01C938784A5B14513053002EF30C5
:10047000604803A5418DEF808032B7D700002A88FD
:10048000AE8861479306F4FF1306F01C938787AA92
:100490009305000313053002EF30C04503A5018525
:1004A000EF80E02FB7D70000AE882A88938707AC8B
:1004B00061479306F4FF1306F01C930580041305AF
:1004C0003002EF30204303C8A187B7D7000061474F
:1004D0009306F4FF1306F01C938747AD93050006BF
:1004E00013053002EF30004103D58188A947330559
:1004F000F502EF70001EB7D7000003A687A483A6FD
:10050000C7A4EF60A04DB7D7000003A607A583A638
:1005100047A5EF6040416352050A03A88181B7D720
:100520000000C166938787AE6147FD161306F01C75
:100530009305800713053002EF30C03B83C7518C11
:10054000C1C303A881814164B7D700009306F4FFBB
:10055000938787AF61471306F01C930500091305C5
:100560003002EF3020399306F4FF930749A71307B1
:1005700000021306F01C9305400B2945EF3080372D
:10058000C52EEF206074EF20207BEF30606FEF10FE
:10059000E035EF20C06083A5018903A5C188EF2065
:1005A000806FEF10C05CEF20B017EF20207FD5B731
:1005B00013054006EF30C0758DB503A8418185B79E
:1005C00003A8418149B70945EF10E00419CD37056B
:1005D0000200EF00F004EF00907F0945EF10A00546
:1005E000EF00F07EEF20407561267300203041114E
:1005F00022C6374401409305404213050480EF10A2
:10060000202B8547631EF500238DA184930540426E
:1006100013050480EF10C02913050480EF10202873
:100620003244410173002030411122C6374400405A
:100630009305404213050440EF108027854763125D
:10064000F502238CA18A138581ACEF20D054930549
:10065000404213050440EF10A02513050440EF109D
:10066000002432444101730020303971854537053B
:10067000004022DE26DC4ADA4ED852D656D45AD270
:100680005ED062CE66CC6ACAEF10200D6305052AE3
:10069000138781851E239384D1848507C207C18374
:1006A0001EA303C7D184B7090020631F0710138559
:1006B000D184EF10906337150140A16513050580C3
:1006C000EF00B0029307F5FF93B71700A382F18CF8
:1006D00083C7B18503CCA187A387F184370A0020A3
:1006E0009547AA8B1384B185938AF184130A2A1F34
:1006F0001389C1849384A18463F28707B7D700006C
:1007000083A507A403A50185EF70C0716358050494
:10071000B7D7000083A547A403A5418DEF70807073
:10072000635E050203D58188A9473305F502EF60B2
:10073000507AB7D7000003A687A483A6C7A4EF60AA
:10074000E029B7D7000003A607A583A647A5EF6059
:10075000801D634505008547639DFB10834B0A00A0
:1007600085471CA08547639AFB1003AD418D83AC80
:10077000018503D58188A9473305F502EF607075BF
:10078000B7D7000003A687A483A6C7A4EF600025FF
:10079000B7D7000003A607A583A647A5EF60A0185A
:1007A0000548938761851307803EEA866686E28561
:1007B00013250500EF10107923000A0023007901AA
:1007C0009E2085079EA07DA81307007DB3F7E70252
:1007D000BDE703C8B18503D58188A94723800400FC
:1007E0003305F50242C6EF60D06EB7D7000003A60E
:1007F00087A483A6C7A4EF60601EB7D7000003A636
:1008000007A583A647A5EF600012324883C5A187DC
:1008100003A6018583A6418D132505006308080002
:10082000370700200347071F11E3014893876185BD
:100830001307803EEF1010719C20E38A07E603C780
:10084000818B3E84E30907E61385391FEF101036CC
:100850008147138781AC930600193386E700230094
:1008600006008507E39BD7FE238C018AEF20502DDD
:1008700099B5230004002300FA00034709008547C7
:10088000E300F7F49A209307301F63F5E706930718
:10089000E01F9EA01C20B9EF03AC418D83AB018506
:1008A00003D58188A94703CAA1873305F502EF6004
:1008B0005062B7D7000003A687A483A6C7A4EF6041
:1008C000E011B7D7000003A607A583A647A5EF60F0
:1008D00080050148938761851307803EE2865E8626
:1008E000D28513250500EF10F06523000900239041
:1008F000040021A083470900FDDB9389391F83C7CA
:100900000900B70400209384041FA9CB1C20B1C3A5
:100910009C20B1C3EF20005E182083C70A006387C4
:10092000E7009387E18439C3054798A385453705D8
:100930000040EF0010647254E2545259C259325AC6
:10094000A25A125B825B724CE24C524D21617300E1
:10095000203085479CA0EF20405B7DBFEF20E05A10
:1009600085472380F900238004007DB7094775BFC0
:10097000EFF21F80371402401C403707FF0893E74F
:1009800017001CC05C40F98F5CC01C403707F7FEA5
:100990006D17F98F1CC01C403707FCFF7D17F98FBE
:1009A0001CC05C40370701FF7D17F98F5CC0B7079B
:1009B0009F001CC4BD2DB7270240094798C3374785
:1009C00002408327078093E707012320F7805C40DC
:1009D0003707C1FF7D175CC05C405CC05C4093E79B
:1009E00007405CC05C40F98F5CC05C403707280062
:1009F000D98F5CC01C4037070001D98F1CC0B717C6
:100A00000240984393166700E3DD06FED843B7160D
:100A10000240719BD8C3D84313672700D8C321472E
:100A2000DC42B18BE39EE7FE6FF0CFF6B7160240D3
:100A3000DC421146B18B13874180638FC702214688
:100A40006381C70495EB9C42918B9DC7B7470F000C
:100A5000938707241CC3B7170240DC43918393F6A6
:100A6000F700B707002093870700B69794231C432D
:100A7000B3D7D7001CC38280B7177A0093870720AB
:100A8000D1BFDC42D4424166C983BD8BF18E890758
:100A900045466393C700C94781EEB746024083A627
:100AA0000680C18A89CEB7167A009386062021A8CF
:100AB000B7160240D4421396E600E35606FEB71678
:100AC0003D0093860690B387D70269B701A09701CE
:100AD0000020938121F2174100201301A15217E554
:100AE00000001305E57997F5FF1F9385A55113863F
:100AF000818463FAC5008322050023A055001105F7
:100B00009105E3EAC5FE138581849385C1C56377AA
:100B1000B500232005001105E36DB5FEFD4273907D
:100B200002BC8D4273904280930280087390023021
:100B300097F2FFFF9382424D93E23200739052305E
:100B4000EFF01FE397020000938202837390123448
:100B5000730020305C413707F1E01307F7EF944D45
:100B60007D8F9C41D58FD44DD58FD441A206D58F92
:100B7000D98F5CC11C4537F7F1FF1307D77FD445E8
:100B80007D8F9C49D58F94458606D58FD98F1CC5FE
:100B90005C55370710FF7D177D8FDC29FD1793F714
:100BA000F70FD207D98F5CD582801C4589C593E7A2
:100BB00017001CC58280F99BEDBF1C4589C593E7D2
:100BC00007101CC5828093F7F7EFE5BF1C4593E73C
:100BD00087001CC5828008450D81058982801C45DF
:100BE00093E747001CC582800845098105898280FA
:100BF0001C4591C537075000D98F1CC58280370727
:100C0000B0FF7D17F98FD5BFA54763F7B7048D47B0
:100C1000138765FF3307F7020328C5009D47B39785
:100C2000E70093C7F7FFB3F70701B396E600DD8E41
:100C300054C5994763E3C70495477D163306F6020A
:100C40005859FD47B397C70093C7F7FFF98F3396FD
:100C5000C5005D8E50D982800D473387E502032899
:100C600005019D47B397E70093C7F7FFB3F7070167
:100C7000B396E600DD8E14C96DBFB14763E2C702CB
:100C8000954765163306F6021859FD47B397C70016
:100C900093C7F7FFF98F3396C5005D8E10D9828018
:100CA00095474D163306F6025855FD47B397C700D2
:100CB00093C7F7FFF98FB395C500DD8D4CD58280C2
:100CC0005C4191C537070004D98F5CC1828037072A
:100CD00000FC7D17F98FD5BFB7066745B7270240DF
:100CE000938636123797EFCDD4C31307B79AD8C37C
:100CF000D4D398C7D85B9386470313162700E34BDA
:100D000006FED85713670720D8D7DC5B37070020CB
:100D1000D98F9CC2372702405C5B93962700E3DDA6
:100D200006FE3C4989C593E707043CC9828093F7D6
:100D3000F7FBE5BF4111B777004002C6938707C0B4
:100D40003EC6B2473E952AC6B2478CC34101828057
:100D50001C4161773D0794517D8F9C45D58F944907
:100D6000D58FD449D58F944DD58FD44DD58FD451AF
:100D7000D58F9455D58FD98F1CC1DC455CC19C4162
:100D80001CC5DC415CC582801C4189C593E7170006
:100D90001CC1828041677917F98FDDBF4CC1828009
:100DA000B70702409C437D8D3335A0008280B70792
:100DB0000240C8C382805841032805004C453706CD
:100DC0000140930706403E979346F8FFB1C583253F
:100DD0000640F58D2320B640D043F18ED4C3144392
:100DE000B3E6060114C3184190479346F7FF758E8A
:100DF00090C7D047F18ED4C7144541466399C600C9
:100E00009447D98E94C7D447558FD8C78280B69758
:100E10009443558F98C382801C43F58F1CC38280F6
:100E2000B707014023AAA74082809C4513F707011A
:100E300013F8F70001C7D8413368E8008E2113F793
:100E4000F50F39C318418146854E3D4F930F8002FF
:100E500093028004214E3396DE00B3F8C50063117F
:100E600016039398260033131F011343F3FF3377C0
:100E7000E300B318180133E7E800639FF70550C992
:100E80008506E39AC6FD18C11307F00F6375B70412
:100E900054412146854E3D4F930F800293028004BA
:100EA000414EB398CE0033F715016392E802131751
:100EB000260001173313EF001343F3FFB376D3007B
:100EC0003317E800D98E639DF701232A1501050623
:100ED000E319C6FD54C18280E39457FA10C94DB797
:100EE000E39757FE23281501DDB708456D8D33358F
:100EF000A00082800CC982804CC9828019C20CC9B2
:100F000082804CC98280370700C0B377E5006395C3
:100F1000E708370701405C439356B501584F9D8A57
:100F20009DE6F99BB70600FFFD16758F89C99316DC
:100F30000501C182D58FB706FF01758D498FB706B0
:100F40000007D58FB7060140DCC2D8CE82800546A7
:100F50006396C600F59BB70680FFF9B7094663960E
:100F6000C600ED9BB706E8FFC1B70D466396C60005
:100F7000DD9BB706FCFF4DBF11466397C60093F794
:100F8000F7F3B706C0FF4DB71546E391C6FA93F7DE
:100F9000F7CFB706E0FF49BF370700406391E7028C
:100FA000B7070140D84F4205B367A70089E513454D
:100FB000F5FFB377E500370701405CCF8280A9E3F6
:100FC00037080140B7073000032648001317050112
:100FD000B376F50041836396F602B70600F9FD1675
:100FE000B377D60003264800F18E2322D80091C59E
:100FF000558112053315A700C98F370701405CC31F
:1010000082809317B50063D007029357050193F6CA
:10101000F7008D47B397D70093C7F7FFF18FB70657
:101020000007D58FE9B7935755019207B317F7001B
:10103000E5B7EFF2EF9337F4FF1F0327447237064B
:10104000003E4111931797019346F7FFF18F060772
:1010500037063E00718FD98F37060001139796002F
:10106000718FD98FBD824167F98E02C202C402C658
:10107000D58F23A2F186035784728545239EE18490
:10108000032704721305D00323A4E18603274470C9
:1010900023A0E186035704732396E1865D2E832700
:1010A000447037073A101307077093F7F7F063841B
:1010B000E710636BF7003707321013070770638080
:1010C000E70841016FF00F8D37073B1013070770DA
:1010D000638BE70837073D1013070770E393E7FEBC
:1010E000854521650D3537140140E177930480046F
:1010F0004C00130504807C8226C6053B85679387D8
:1011000087334C00130504C07C8226C6393B9147C7
:101110007C824C0093078002130504C03EC6313325
:10112000F9774C00371501407C8226C6FD398D4782
:101130007C8226C64C0013050440C53959B7E177B7
:101140003715014093C707C0130480044C001305F2
:1011500005C07C8222C6D13989677C8222C64C00B8
:1011600037150140D9BF85452165713B37140140D2
:10117000E177930480044C00130504807C8226C62A
:101180006D31930700214C00130504C07C8226C6F4
:10119000693991477C824C0093078002130504C093
:1011A0003EC66131F9774C00371501407C8226C676
:1011B000AD398947B5BFB7140140E1779387077010
:1011C000130480044C00138504807C8222C6B1394C
:1011D000930790E34C00138504C07C8222C6B13192
:1011E00091477C824C0093078002138504C03EC661
:1011F0002D39F9779DB723A8A186828003A701879F
:10120000854714216310F7021C31639CE7023C21DF
:10121000960793E707F837E700E093F7F70F36975D
:101220002300F740054793D756003317D7005441A2
:1012300089CE938707048A07B7E600E0B69798C37C
:101240008280EDF33C219607F9B793870706B7E64E
:1012500000E08A07B69798C30F10000082803777A6
:1012600000401C4309C593E707101CC3828093F715
:10127000F7EFE5BFB77700409C430547F19BC98F67
:10128000631AE5007D771307F73FF98F05671307AA
:101290000780D98F377700401CC3B7F700E003A75A
:1012A00007D11367470023A8E7D005476391E502FC
:1012B00003A707D15D9B23A8E7D07300501037F731
:1012C00000E0832707D1ED9B2328F7D0828083A6F7
:1012D00007D103A707D193F606021367870223A855
:1012E000E7D003A707D11377F7FD558F23A8E7D0E1
:1012F00003A707D11367870023A8E7D07300501016
:1013000003A707D1136787007DB7B7160240DC42F9
:101310003747FF7F7D17F98F5D8DC8C282803717F1
:1013200002405C5309C593E717005CD38280F99BA8
:10133000EDBF371702401C535D8D08D3828001C971
:10134000371702401C53A166D58F1CD38280B71675
:1013500002409C5261777D17F98F9CD282803717AB
:1013600002405C439146B18B638CD706A146638EE5
:10137000D706BDE71C43918BA5C7B7470F009387DE
:1013800007241CC1371602405C42370700201307B0
:1013900007019183BD8BBA9794231C41B3D7D70023
:1013A0005CC15442A1829D8ABA969422B3D6D700DA
:1013B00014C55442AD829D8A36971423B3D6D70004
:1013C00054C55842634C07005C42B98313F7370099
:1013D00093878180BA979C23B3D7F6021CC9828079
:1013E000B7177A009387072069BF5C435843C166EB
:1013F000C983BD8B758F8907C5466393D700C947DD
:1014000001EF3747024003270780418B09CF371789
:101410007A001307072021A8371702405843931674
:10142000E700E3D606FE37173D0013070790B387A2
:10143000E70281BF99C5371702405C4B5D8D48CBF1
:101440008280B7170240D84B1345F5FF798DC8CB82
:10145000828099C5371702401C4F5D8D08CF82806E
:10146000B7170240984F1345F5FF798D88CF8280DA
:1014700099C5371702405C4F5D8D48CF8280B71702
:101480000240D84F1345F5FF798DC8CF828099C5AA
:10149000371702405C475D8D48C78280B71702400E
:1014A000D8471345F5FF798DC8C7828093575500FB
:1014B00005476399E700B71702409C4333D5A7005F
:1014C0000589828009476396E700B71702409C535D
:1014D000F5B7B7170240DC53D5B7B737004003D78D
:1014E000078089C5598D2390A78082801345F5FF19
:1014F000798DD5BFB737004003D747801367070101
:101500002392E78082803737004083574780C207A5
:10151000C183BD9BC207C1832312F7808280B73687
:10152000004083D7868103D5C68103D78681C20751
:10153000131605014207C1834183418293860680C9
:101540006386E700CA2E4207598D828013950701F2
:10155000518D8280EFE2DFC141112AC6613F3245E1
:10156000B7370040135705014205239CE7804181AE
:10157000239EA780493F41016FE0DFC1EFE25FBFDB
:1015800041112AC6853F3245B73700401357050140
:101590003D8B42052394E78041812396A780A537A0
:1015A00041016FE03FBFEFE2BFBC41112AC699374E
:1015B0003245B73700401357050142052390E782B3
:1015C00041812392A782813741016FE0BFBC373749
:1015D00000408357478093F70702E5DF8280373763
:1015E000004083574780C207C183DD9BC207C18388
:1015F0002312F7803737004083574780A18BEDDFF8
:101600008280B737004003D747801345F5FF798DB7
:101610002392A78082803737004083574780035743
:101620000780C207698FC18309C77D8D3335A0004C
:10163000828001458280EFE2BFB3E1376FE09FB562
:101640001A218D6793870704B6217D8F9E21D58F40
:10165000D621D58FF621D58F9625D58FB625D58F56
:10166000D625D58FF625D58FD98F1EA19E291EA9E7
:1016700082801E2189C593E707041EA18280C207CC
:10168000C18393F7F7FBC207C183C5BF4EA5828014
:101690004A2582800A256D8D3335A00082801E2167
:1016A00037370140130707C0C207C1836300E50253
:1016B00037070040630CE500130707406308E500A7
:1016C00037170040130707806316E500FA2193F7E8
:1016D000F7F8D98F9A2593F7F7CFC207C183D98F2F
:1016E000371700401EA1130707809C416310E502D5
:1016F0005CD5DE211EB5B7370140938707C0631460
:10170000F500BC251EB985475EA98280C207C1834A
:101710005EB5C5B71E2189C593E717001EA182805B
:10172000C207C183F99BC207C183CDBF5E2501C635
:10173000DD8D4EA5828093C5F5FFFD8DDDBF1E2595
:10174000C207C183E19BC207C1831EA5828093C5E6
:10175000F5FFC205C1810EA982801E294A25ED8FA1
:101760004205418189C76D8D3335A00082800145D6
:10177000828093C5F5FFC205C1810EA98280EFE288
:101780003F9F1629F577FD17F58FF621DA25797138
:10179000D58F1EA95625FD779387379FF58FD621C4
:1017A0002A842EC6D58F9625D58FB625D58F5EA5D2
:1017B0005E29C207C18393F7F7CFD98F5EA9680866
:1017C000793EB747014093870780B245631AF40416
:1017D000A25756246547B387E702C206C1869841DF
:1017E00063D20604060752244206B3D7E702130762
:1017F00040064186B3D6E702B3F7E7029206635587
:1018000006028E0793872703B3D7E70213F7770003
:10181000B367D700C207C1831EA445616FE09F97DD
:10182000925745BF0A07C1B7920793872703B3D7DB
:10183000E702BD8BD58FF9BF91C55E250967D98FAA
:101840005EA582805A25F977FD17F98FD5BF13F76A
:10185000F50F85471583B395B7006319F700930714
:10186000C500984301CED98D8CC3828089469307E9
:101870004501E318D7FE93070501E5B793C5F5FFCA
:10188000F98DDDB75E2901C6DD8D4EA9828093C535
:10189000F5FFFD8DDDBF93F5F51F4EA182804A2136
:1018A0001375F51F82800A216D8D3335A00082806B
:1018B00013F7F50F85461583B397B6006311D7026A
:1018C0005A25F98F1A2101454207418381CB0545ED
:1018D000A181B315B5006D8F3335E0008280894654
:1018E0006314D7001A29F1BF5A29E1BFEFE25F88DC
:1018F000411185452145B13EC1473EC68D6737142C
:101900000140938707C07C824C008947130504C0BF
:101910003EC423130100EFF04FD18D65938505C0C0
:10192000130504C0EFF04FDD41016FE0BF86EFE229
:101930003F841D7185451145293E85452145113E50
:10194000371401408547130504802C007C8423153F
:101950000100231601002317010023180100231999
:101960000100EFF08FCC8944130504802C006484BF
:1019700002C8EFF08FCB130504C02C00648402C8AA
:10198000EFF0AFCAC1473EC8A147130504C07C842D
:101990002C0089473EC6EFF04FC98545130500204E
:1019A000EFF03FAB85450545EFF0DFA83165372403
:1019B0000140EFF09F959D46054681451305044083
:1019C000EFF08FA49D460946854513050440EFF0CE
:1019D000AFA39D460D46A54513050440EFF0CFA2E9
:1019E00037070E0085473AD04C080D4713050440D1
:1019F0002304E1023ECC3ED802CE02CA02D202D675
:101A0000EFF04F959307C4443EDA93070010BEC62B
:101A1000938741873EDC93070040BEC893070008C8
:101A2000B7040240BEC48D4713858400BEC04C1865
:101A30008967BECC82C202DE82CA82CEEFF04FB18D
:101A4000138584008545EFF02FB4854513050440C8
:101A5000EFF0AF96854513050440EFF00F958545EF
:101A600013050440EFF04FA7814513050440EFF044
:101A70002FA513050440EFF06F951309044085442A
:101A80004A85EFF04F95E30D95FE1305044037248A
:101A90000140EFF0CF941304044085442285EFF019
:101AA000AF94E30D95FE25616FE0CFEEEFE24FECD2
:101AB00037040240814513058400EFF0EFAC8D45FB
:101AC00013058400EFF08FAD854513058400EFF01A
:101AD000AFAB37250140854513050540EFF04F9129
:101AE0000945EFF0EFAB6DDD0945EFF04FAC6FE06E
:101AF0006FEAEFE24FE683D9C1872A891384C18751
:101B0000B307354193D6F741B58F958FC207C1878B
:101B1000954663C9F604B7D7000083A4C7B023A6CF
:101B20009180B7D7000003A507B1A685EF60E069F3
:101B30002A8A4E85EF60702DAA855285EF60A03FFE
:101B4000AA894A85EF60702CA685EF60C03EAA8501
:101B50004E85EF50B045EF60F025420541810AA067
:101B60006FE0AFE2B7D7000083A487B04DBFEFE2CC
:101B70008FDE83C6018105479389C18E1389418712
:101B8000938401886395E602138A01811384C18ED0
:101B9000938A4901213F035709009C400904231FF0
:101BA000E4FEBA979CC0E3978AFE23000A00FD3D3D
:101BB000035549003D3F2394A18803552900153F53
:101BC0001386B1871822239FA1861315170083550A
:101BD00009009C40AA9903D50900AE972390B9004B
:101BE0000507A945898F3367B7029CC037150140A7
:101BF0009384E187130505C0B3D7B70218A23A84CE
:101C0000A1452394F184B707002003C6171F854719
:101C10006319F606EFF04FAE8A20B7D40000EF60EC
:101C2000D01E83A544B1EF50106FB7D7000083A535
:101C300087B1EF60403023A8A18403D58184138449
:101C4000A187EF60F028B7D7000083A5C7B1EF6088
:101C5000802E83A544B1EF50106CAA85EF5010354B
:101C600023A2A188B7D7000003A907B2AA84CA8516
:101C7000EF60401B635AA000930740061CA06FE072
:101C8000CFD0EFF02FA749BFB7D7000083A547B249
:101C90002685EF60201963450504A6854A85EF6017
:101CA000C052EF60D02FB7D9000003A609B483A6B5
:101CB00049B4EF20C017B7D7000003A687B483A6A6
:101CC000C7B4EF40B051B7D700002A86AE8603A54F
:101CD00007B583A547B5EF50E01BEF50D01999A089
:101CE000B7D7000003A987B22685CA85EF608013A5
:101CF000634C0502CA852685EF60204DB7D70000EA
:101D000083A5C7B2EF602023B7D7000083A507B330
:101D1000EF507060B7D7000083A547B3EF5010298C
:101D2000EF60500908A0A1BFB7D7000003A987B38F
:101D30002685CA85EF60000F634B0502CA8526859C
:101D4000EF60A048B7D7000083A5C7B3EF50B05CE1
:101D5000EF60F0242A86AE86EF405048B7D70000E7
:101D600003A687B583A6C7B5EF405047BDB723008C
:101D7000040031B7EFE2CFBC01112ACA2ECC368560
:101D8000BA853E8D32CEB68C3A8CEF60C01AEA85A9
:101D9000EF60601A93050000EF6000036302054ADC
:101DA000E6856685EF602019AA8DE2856285EF6081
:101DB0008018AA856E85EF50701FAA8DEA856A8506
:101DC000EF606017AA856E85EF50501E9384C18125
:101DD0001384C18A1389418A9389818AEF60301CF8
:101DE00083AB0400032B090083AA0900032A040023
:101DF000EF204036EF607025AA8DAA856685EF50EA
:101E00009051AA8CEE856285EF50F0502A8CEE85B9
:101E10006A85EF505050AA8DD2855A85EF60A01187
:101E20002A8DD6855E85EF600011AA856A85EF60F0
:101E3000C039AA85EF509017DA852AC45E85EF6015
:101E4000800F2A8DD2855685EF60E00EAA856A85BF
:101E5000EF50D015AA85EF5070152A8DDE855E856E
:101E6000EF60600DAA8BDA855A85EF60C00CAA85F9
:101E70005E85EF6080352A8BD6855685EF60A00B96
:101E8000AA855A85EF606034AA8AD2855285EF60B0
:101E9000800AAA855685EF507011AA8AAA856285A4
:101EA000EF6060092A8AEA856E85EF60C008AA851E
:101EB0005285EF608031A2452A8A6E85EF60A007C7
:101EC0002A8BD6856685EF600007AA855A85EF6064
:101ED000C02FAA8AEA856685EF60E005A2452A8BB5
:101EE0006285EF604005AA855A85EF60002E2A8B37
:101EF000930500005285EF600004938B818983A5D0
:101F00000B0037DC0000EF50700AAA8D23A0AB0055
:101F1000930500005685EF600002938BC18983A56D
:101F20000B00EF50B008AA8C23A0AB009305000073
:101F30005A85EF604000938B018A83A50B00EF5018
:101F4000F00683250CB72A8D23A0AB005285EF50F5
:101F5000907ED245EF509005AA856E85EF50100512
:101F600083250CB7AA8B5685EF50F07CE245EF50E5
:101F7000F003AA856685EF50700383250CB7AA8C01
:101F80005A85EF50507B7246B285EF503002AA85D9
:101F90006A85EF50B001032D09002A8A03AC0900BD
:101FA00037050080DE853345A501EF50D078AA8A39
:101FB000E2856685032B0400EF50F077AA855685ED
:101FC000EF60A020AA8ADA855285EF50D076AA85E4
:101FD0005685EF60801FB7DA000083A54AB783AD4E
:101FE0000400EF505075EE85EF50407C88C0EE85C0
:101FF0002ACC5E85EF503074E2852AC45285EF50BA
:102000009073A247AA853E85EF50407ADA852AC4AC
:102010006685EF505072A247AA853E85EF60E01AB0
:1020200083A54AB7EF503071EA85EF50207823201E
:10203000A900EE852ACA6685EF50F06FEA852AC4AA
:102040005285EF50506FA247AA853E85EF60E0179A
:10205000DA852AC45E85EF50106EA247AA853E85B8
:10206000EF50C07483A54AB7EF50F06CE285EF5093
:10207000E07323A0A900EE852AC45285EF50B06B0F
:10208000EA85AA8D6685EF50106BAA856E85EF50A4
:10209000E071AA8CE2855E85EF50F069AA856685BD
:1020A000EF60A01283A54AB7EF50F068DA85EF50D1
:1020B000E06FE2462A8B08C0B6853685EF50B067E0
:1020C0005247AA8BBA853A85EF50F066AA855E859D
:1020D000EF50C06DA247AA8BBE853E85EF50B0651C
:1020E000AA855E85EF50806CAA8BDA855A85EF5001
:1020F0009064AA855E85EF50606BEF60406AEF20C8
:102100006005EF6080742A8BAA858840EF50B0206C
:102110002A8C88C003250900DA85EF50D01F2320C0
:10212000A9002A8D03A50900DA85EF50D01E23A04F
:10213000A900AA8B0840DA85EF50F01D83A54AB7A5
:1021400008C0AA8C5285EF50105FAA85EF50006638
:10215000B7D7000083A587B7138B4189EF50B05DD7
:1021600083250B00EF5080642320AB0037DB000099
:102170008325CBB76A85EF50105CE685EF50B05BE6
:102180002A8AE2856285EF506062DE85EF50B05AA0
:10219000AA855285EF508061EF606060EF10103DBE
:1021A00037DA000003260AB883264AB8EF40100346
:1021B000EF60A06983A9090023A8A188CE854E8578
:1021C000EF50C05E032909008325CBB7AA8A4A8550
:1021D000EF507056CA85EF5010562A8BD6854E8523
:1021E000EF507055AA855A85EF50307EB7D7000062
:1021F00083A507B1EF50805BEF60605A2EC68C401C
:102200002AC42E85EF50805ACA85EF50D0520C4018
:10221000AA845685EF503052AA852685EF50005982
:10222000EF60E0572246B246EF10304003260AB86E
:1022300083264AB8EF40807AEF60206123A6A18808
:1022400005616FD0BFF3EFD21FF12E84328A368939
:10225000EF10801803C7818B85479384818B6318A7
:10226000F700D285138581ACEF70A03701CD4A8588
:10227000EF10102A23800400EF10800C333580000B
:102280006FD0BFF00545EF10B0289C2089C7238090
:102290000400EF10E00A61DC7D1442044180D1B7F4
:1022A000EFD21FED1945EF60207993844182904071
:1022B000056423A8A18C37D50000930584389306C4
:1022C000401F130505BC4137904037D500009305EA
:1022D00084389306401F130585BCB537904037D529
:1022E0000000930584389306401F130545BDA13FA8
:1022F000904037D50000930584389306803E13053F
:1023000005BE9137904037D5000093058438930679
:10231000803E130505BF053F904037D5000093056B
:1023200084389306803E1305C5BF313F03A6018361
:1023300037D50000930584389306803E130585C188
:10234000193703A6C18237D500009306803E930556
:102350008438130585C4C53D6FD0DFE3EFD25FE15C
:10236000138441821040856437D5000093858438FA
:102370009306C05D130545DBEFF0FFEC104037D549
:102380000000938584389306C05D130545DDEFF0AA
:102390009FEB104037D500009306C05D93858438CD
:1023A000130505E0EFF03FEA6FD0DFDEEFD25FDC30
:1023B0002A84B7D50000938505C9138581ACEF70D9
:1023C00040221DC9B7D500009385C5CBAA84EF7004
:1023D000402111C585471CA01545EF107013B7D5D6
:1023E0000000938545CC2685EF70A01F11C5230002
:1023F00004001545EF10D0116FD0DFD9B5658146C7
:1024000011431386C192938585B813850190138873
:10241000C18B1387C1909388418C194E9387F6FF27
:1024200093F7F70F636BF3028A07AE979C4382879B
:102430008507E20723800E00E187B30EF600038FC5
:102440000E00E3170FFE9387160093F7F70F93968E
:102450008701E186E394C7FD82808147F9BF850744
:10246000E20723800E00E187B38EF800038F0E0091
:10247000E3170FFEC9BF8147C5BF8507E207238069
:102480000E00E187B30EF700038F0E00E3170FFE77
:102490005DBF8147C5BF8507E207A3870E00E187BF
:1024A000B30EF700038FFE00E3170FFE69BF8147ED
:1024B000C5BF8507E20723800E00E187B30EF80051
:1024C000038F0E00E3170FFEBDBF8147C5BF850711
:1024D000E20723800E00E187B30EF500038F0E00A4
:1024E000E3170FFE8DB78147C5BF9387818B982374
:1024F000630F070EEFD2DFC7411123800700AA84C4
:10250000EF001064370500201305351FEFF01FEAB8
:10251000B7D500009385C5C7138581ACEF70600CFB
:102520002AC639C1EFF09FED3245B5688147814534
:10253000A942930FC002A1439388C8B913830190A5
:10254000138EC18B1388C190938E418C138FC192CF
:1025500083060500639956028387418C9306100415
:102560006390D70885479CA08147138781AC930669
:1025700040063386E700230006008507E39BD7FE6D
:1025800041016FD03FC16396F601850593F5F50FC4
:102590008147050583060500E38CF6FB1387F5FFED
:1025A0001377F70FE3E6E3FA0A0746971843028723
:1025B0003307FF0014A3850793F7F70F51BF338745
:1025C000FE00CDBF3307F800F5B73306F80074B648
:1025D000DDB73306FE0014A2F9BF3306F300E5BFF2
:1025E00093066005E392D7F823800400B5BF82808C
:1025F000EFD29FB513850190EF60004323A8A18A15
:102600001385C192EF604042D1679387078837B73F
:102610000300AA971307F7971384018B9385C18C46
:10262000636BF7109CC1144003A6018D930740060D
:1026300033F7F6029384C1901385C1901384818C83
:1026400037D9000018A233D7F6023377F70218B251
:10265000096713070771B3D6E602B3F6F60234A290
:10266000944133D7E6023377F70238B233D7F60214
:102670003377F702B3F7F60258A25CB2EF60603A24
:10268000EF60A01C08C01385F400EF6080392A8A2F
:10269000AE8A0840832589B1EF50E047AA84EF5005
:1026A0007071AA89EF60C002AA852685EF50F031CB
:1026B000EF60E00EB7D4000003A684C883A6C4C8A8
:1026C000EF30B0392A8B4E85AE8BEF50A0072A86AB
:1026D000AE865A85DE85EF304045EF60001708C0B2
:1026E000D6855285EF606016832589B1EF50A042F0
:1026F0002A89EF50306C2A8AEF50907DAA854A854E
:10270000EF50B02CEF60A00903A684C883A6C4C80C
:10271000EF30B0342A895285AE89EF50A0022A8664
:10272000AE864A85CE85EF304040EF60001223AA86
:10273000A18A6FD0FFA4B797FDFF938707F03E955E
:1027400088C1D5B5EFD2DF9F5D71B2C2B6C042DE9F
:10275000AAC6AEC43A84BE89238C018AEF00503EDB
:10276000EFF01FE983A7018D9384818B983303C910
:10277000070003CA270083CA370003CD470083CD73
:10278000570003A5818C3ADC1309097DEF60200115
:102790002A8B03A5418BAE8BEF60600083C7518C01
:1027A0002A8CAE8C725886461646A6483643D1C748
:1027B00083A781826306030803A781823685BAC096
:1027C0003EDE42D646D4B2C2EF50707D16462AD0C5
:1027D0002ED23285EF50B07C0647F25762562ACC93
:1027E00037D500002ECE3ACA3EC85687D286CA8553
:1027F00062C466C65AC05EC26E88EA871305C5CC3D
:10280000EF00103FB7DA00004A8A93858AD9138512
:1028100081ACEF60105D05C9B7D50000938545DA3E
:10282000138581ACEF60F05B814719E1B33780001D
:102830002380F90061616FD07F9483A701829DBFDF
:1028400003A70182A5BF0545EF10804C9C2089C7D6
:1028500023800400EF00D02E61D07D14420441801B
:102860006DB7EFD2FF902A84B304B50063149400CF
:102870006FD05F9208200504EF00E060A30FA4FE74
:10288000F5B7EFD2FF8E0111C887A30F0100EF004B
:10289000805C9C871305F100854593E707F8DC878A
:1028A000EFF03FFC1305F1018545EFF09FFBEF00D2
:1028B000005C0345F10105616FD0DF8DEFD25F8BC6
:1028C0004111C8874C87EF0000591305F100854579
:1028D000EFF03FF91305E1008545EFF09FF8EF00B9
:1028E0000059014541016FD0FF8AEFD27F88411125
:1028F000136505F82E8432C4C887B12B1305F10087
:102900008545EFF01FF6224622859375F60FEFF00E
:102910005FF5B12B41016FD0FF87EFD27F851305A3
:102920005007EFF01FF681452A8413056007EFF08A
:10293000FFF885454545EFF07FF813054006EF1099
:10294000203D1945EF60400F23ACA18C1945EF6085
:10295000A00E23AEA18C930770047D556313F4126F
:10296000854513056007EFF07FF589451305A0073E
:10297000EFF0DFF4814513056007EFF03FF49305B6
:1029800000045945EFF09FF313055006EFF07FEF79
:102990002A84814513055006EFF05FF28145130547
:1029A0000006EFF0BFF1894513051006EFF01FF1A7
:1029B000A28513055006EFF07FF09305300613054E
:1029C000F005EFF0BFEF814513056007EFF01FEF53
:1029D000930560035145EFF07FEE814513056007D5
:1029E000EFF0DFED13055006EFF0BFE9936545000A
:1029F00093F5F50F13055006EFF05FEC37D70000A5
:102A0000032707E881451305600723AAE182EFF059
:102A1000FFEA13050005EFF0DFE69365950293F5F5
:102A2000F50F13050005EFF07FE937D70000032706
:102A300007EA81451305600723ACE182EFF01FE848
:102A40001305F004EFF0FFE39365950293F5F50F9E
:102A50001305F004EFF09FE6814513056007EFF0E2
:102A6000FFE51305E004EFF0DFE19375F50D93E565
:102A7000F5001305E004EFF07FE40545EF10402971
:102A800001456FD02FF1EFD2AFEE25261545EF109F
:102A90002028EFF09FE86FD0EFEFEFD26FED4111FC
:102AA00031462A84AE847D454C0002C202C402C66F
:102AB000EFF0BFE31C829882A207D98F1EA01C836F
:102AC0009883A207D98F3EA01C849884A207D98F2F
:102AD0005EA01C859885A207D98F9EA01C8698862B
:102AE00003150400A207D98FBEA01C879887A207F0
:102AF000D98FDEA003A94183EF503031CA85EF5052
:102B00008043EF5010250AA003152400EF50F02F4A
:102B1000CA85EF504042EF50D0232AA0031544004D
:102B2000EF50B02ECA85EF500041EF5090224AA0DE
:102B30000395040003A98183EF50302DCA85EF501F
:102B4000803FEF5010218AA003952400EF50F02B16
:102B5000CA85EF50403EEF50D01FAAA00395440015
:102B6000EF50B02ACA85EF50003DEF50901E1E2056
:102B7000CAA0B307F0401EA03E20B307F0403EA01D
:102B80005E20B307F0405EA09E20B307F0409EA0F9
:102B9000BE20B307F040BEA041016FD0AFDFEFD23F
:102BA0008FDB9384C18D1384818D8C40084041114B
:102BB000EFF0BFEE0329040083A90400B7D400009E
:102BC0000315490037D40000EF50302483A584E674
:102BD000EF5060368325C4E6EF50E0352AC6031572
:102BE0002900EF50902283A584E6EF50C03483255E
:102BF000C4E6EF5040342AC40315090037D9000059
:102C0000EF50B02083A584E6B7D40000EF50A03287
:102C10008325C4E637D40000EF50E0312AC2039583
:102C20004900EF50901E832509E7EF50C03083A57F
:102C300084B7EF40506E832544E7EF50C02F2AC081
:102C400003952900EF50701C832509E7EF50A02E53
:102C500083A584B7EF40306C832544E7EF50A02D67
:102C60002A8A03950900EF50501A832509E7EF508F
:102C7000802C83A584B7EF40106A832544E7EF508A
:102C8000802BB247224792460246D285EFF08F8EC4
:102C900041016FD08FCFEFD2AFCDAE84AA85EF5078
:102CA00080292A84A6852685EF50E028AA852285DA
:102CB000EF40D02FEF50B02EEF10C049EF50F0385A
:102CC00023AAA18C6FD00FCDEFD28FCA85453705CF
:102CD0000010EFE0EFF9854537050008EFE04FF908
:102CE0000545EFE0CFD70545EFE06FE30544130559
:102CF0001006EFE0AFFBE31C85FE13050020EFE0BC
:102D00004FE30545EFE0AFE3EFE07F8DEFE03F8C71
:102D100025651305F546EFE07F86EFE05F8B014503
:102D2000EFE05F83EFE0BF8AA9659385555A1145AF
:102D3000EFE04F806FD00FC6EFD28FC30111EFE0ED
:102D40001F89EFE0CFFD239AA184EFE05F8803D5D0
:102D50004185510542054181239AA184EFE0BF845A
:102D6000EFE0FF8685450945EFE02FF7EFE03F866E
:102D7000B707020005443EC80808A1473ECC22CE52
:102D800002CAEFE04F839307900328007C844085BC
:102D900022C6EFE0AFC605616FD0CFBFEFD24FBD07
:102DA0000945EFE01F8685450145EFE0AFCC6FD0C8
:102DB0006FBEEFD2EFBB0565011185451105EFE050
:102DC0004FE937140140C1478D448A8513050480BB
:102DD0003EC47C8026C2EFE04F85E1473EC48A8531
:102DE0009307000A130504807C8026C2EFE0EF837E
:102DF000930780043EC48A8593070004130504806A
:102E00007C8026C2EFE06F8285450565EFE02FE804
:102E100081450565EFE0AFE7B70704013EC6B70798
:102E200000023ECA930780033ECC6C009D473735B5
:102E30000140FC8602C8EFE0BF8085453735014080
:102E4000EFE03F830546C14513050480EFE00F8B9B
:102E500005616FD02FB4EFD2AFB1371501400146F5
:102E6000C14513050580EFE06F896FD0AFB2EFD297
:102E70002FB0371501400546C14513050580EFE029
:102E8000EF876FD02FB1EFD2AFAE2A84854489454A
:102E900037350140EFE01F80E31B95FEA2853735F3
:102EA0000140EFE0AFFE854537350140EFE08FFE92
:102EB0008547E31AF5FE37350140EFE06FFD1375E6
:102EC000F50F6FD02FADEFD2AFAA41118545214547
:102ED000EFE02FD8C1473EC63715014085677C8299
:102EE0004C008D47130505C03EC4EFD01FF44101CF
:102EF0006FD04FAAEFD2CFA73715014085651305D4
:102F000005C0EFD03FFF6FD0EFA8EFD26FA6371507
:102F100001408565130505C0EFD01FFE6FD08FA758
:102F2000EFD20FA583A4418D011137D4000026856F
:102F3000EF50F0062ECE832504B72ACC2685EF402D
:102F4000D076E1473EC06246F246635E0512C16438
:102F50001308F01C89470547930500031305000972
:102F60009388F4FFEF0060660148E1471387F4FFA0
:102F70009306F01C13060002930500031305000CD2
:102F8000FD2983A401852685EF5070012ECE83256F
:102F900004B72ACC2685EF405071E1473EC041641A
:102FA0006246F2469308F4FF1308F01C8947635801
:102FB000050E0547930580041305800A392501484D
:102FC000E1471307F4FF9306F01C13065002930524
:102FD00080041305800D65210148E1471307F4FFC4
:102FE0009306F01C13060002930580041305400E9F
:102FF000792103D58188A9473305F502EF40606D3B
:10300000B7D7000003A687A483A6C7A4EF30101D7E
:10301000B7D7000083A647A503A607A5EF30B010D9
:103020004167E1477D179306F01C6359050837D6C1
:103030000000130646EA930580071305300BEF00E6
:10304000C06F83C7518CC1C3416737D60000E147C9
:103050007D179306F01C130646EA93050009130535
:10306000700AEF00806D03C6A187C1676148FD1734
:103070001307F01C8D46930500061305B00CDD21E7
:1030800005616FD02F91C168FD181308F01C8947A6
:1030900009479305000313050009052BDDB5094712
:1030A000930580041305800A0D230148E1471307A7
:1030B000F4FF9306F01C130650023DB737D600000C
:1030C000130606B68DBF416737D60000E1477D176E
:1030D0009306F01C130606B649B7EFD26F89371472
:1030E000014005468565130504C0EFD03FE1130597
:1030F0006009EF00F04101468565130504C0EFD07B
:10310000FFDF13052003EF00B0400546856513057A
:1031100004C0EFD0BFDE13054006EF00703F01464C
:103120008565130504C0EFD07FDD6FD0AF86EFD289
:103130002F84411185451145EFE0AFB137140140AF
:10314000930780043EC68D44930700404C0013054E
:1031500004807C8226C4EFD05FCDE1473EC64C00A0
:1031600093070020130504807C8226C4EFD0FFCB98
:1031700091473EC6E1777C824C0089471305048065
:103180003EC4EFD09FCA41016FD0CF80EFC25FFE37
:103190005D712A84EFF0BFF985451165EFE06FABF3
:1031A00085450545EFE00FA922CA37440140B7071E
:1031B0000C004C08130504803ECE02CC2310010203
:1031C000EFE0EFDB930744803ED2938781933ED4B8
:1031D000930700083EDCB7040240930700193ED86D
:1031E0004C108D6713858405BEC402DE82C002DAEE
:1031F00002D682C682C2EFD0BFB5054693054042D3
:1032000013050480EFE0AFE485471307500368001F
:103210003EC878865C87EFD07FFE054613050480A4
:1032200093050004EFE00FE6130504808545EFE009
:10323000AFE0854513858405EFD01FB561616FC090
:103240007FF5EFC2FFF2411185451145EFE06FA018
:1032500037140140930780043EC68D44A1474C00BB
:10326000130504807C8226C4EFD03FBCE1473EC6F4
:103270004C009147130504807C8226C4EFD0FFBA2E
:1032800041016FC03FF1EFC2BFEE5D712A84EFF0E4
:103290005FFB854537050200EFE08F9D85450545BD
:1032A000EFE04F9922CA37440040B7070C004C08A2
:1032B000130504403ECE02CC23100102EFE02FCCD8
:1032C000930744403ED2938781AC3ED493070008D5
:1032D0003EDCB7040240930700193ED84C108D67BE
:1032E0001385C406BEC402DE82C002DA02D682C6DC
:1032F00082C2EFD0FFA50546930540421305044066
:10330000EFE0EFD485473EC86800930760037C86F2
:1033100023070100EFD09FEE0546130504409305F7
:103320000004EFE02FD6130504408545EFE0CFD031
:1033300085451385C406EFD03FA561616FC09FE549
:10334000EFC21FE3370402401305C4068145EFD0E6
:10335000BFA31305C40693050019EFD03FA485450C
:103360001305C406EFD05FA26FC0DFE2EFC25FE0DB
:10337000931505013744014013050480C181EFE036
:103380008FD113040480930500082285EFE0AFD1AC
:103390007DD96FC03FE0EFC2BFDD2A840305040082
:1033A00019E16FC03FDFEFF07FFC0504C5BFEFC23E
:1033B0003FDC931505013744004013050440C181EB
:1033C000EFE06FCD13040440930500082285EFE081
:1033D0008FCD7DD96FC01FDCEFC29FD92A84030532
:1033E000040019E16FC01FDBEFF07FFC0504C5BFCF
:1033F0004571232AB11A232CC11AAA85501B08082B
:103400002326111A232ED11A2320E11C2322F11C7A
:103410002324011D2326111D32C6EF7080050808E4
:10342000EFF09FFB8320C11A79618280EFC2BFD287
:10343000B28936897D16FD16C2064206C1824182D6
:103440002A8A2E84BA8AED2B636F24016FC0FFD3C2
:1034500085045685C2045D23C180E3EB34FF050477
:1034600042044180D5B7D284CDBFEFC27FD0328431
:10347000AE862A86F123228551236FC0BFD1EFC2C9
:103480003FCC41113AC413D717003E8AB68B9396AE
:1034900007019377770042C6B337F00013584A000C
:1034A000C182C297B387F60201161374F60F130692
:1034B000F5FF3A9642064182AA89AE8462043EC074
:1034C0009387F5FFBE96C206C1829D2B61841306C9
:1034D0000003B307C402356BCE8C01490144130BC2
:1034E000CBEA314C214D3EC282471317090141837B
:1034F0006365F70041016FC07FC8E147E31CFAFE36
:103500009247814A3307F9005A97834D0700B24723
:1035100033D75D41058B89EF5E8511E322450504B4
:10352000F1291374F40F337784030DEB01442DA0BC
:1035300011C75E86A6856685EFF03FF393871C0072
:10354000939C070193DC0C0133873C41631887018E
:103550008504C204C180CE8C050979B7850AE39839
:10356000AAFBDDBFEFC25FBEFD16AA842E8BB28B15
:103570003A8CBE8CC289935A180013F4F60F1309C3
:10358000F00F294A631424016FC09FBFA28705462C
:10359000FD1793F7F70F6397270333D6CB022685E2
:1035A000D6940148CE876687E286DA85C2047D1408
:1035B000C1801374F40F3376460313060603EFF04D
:1035C0001FECC9B733064603E1B7EFC27FB78349A3
:1035D0000104AA842E8B3285B685B68A3A893E8C40
:1035E000328AC28BC68CEF40000913D41900AA8D11
:1035F000E287054D1307F00FA946FD1793F7F70F64
:103600006396E70813960D014E88E6875E87CA86A3
:10361000DA85268541824204EFF0DFF441803305EC
:1036200024030509CE8766870148DE861306E0027B
:10363000DA8526954205418133042403EFF03FE407
:103640006E85EF4020102A86AE865285D685EF30F3
:1036500070042A8A6A85AE8AEF40C00E2A86AE863A
:103660005285D685EF308037EF40E0002694131660
:103670000501131504014E88E6875E87E2864182C4
:10368000DA854181EFF01FEE6FC05FAF330DDD02D1
:10369000ADB7EFC2FFAA13543600137A760041117A
:1036A0002A8CAE84BA8CBE8D1374F40F814B6306E2
:1036B0000A0005041374F40F854BA6969397060130
:1036C000C1833EC4130DF4FFA247639097064101E6
:1036D0006FC0DFAA83C7090033852A014205B3D72B
:1036E0002741858B42C64181668691E36E86A68519
:1036F000EFF0BFD7324805091379F90F63860B0045
:10370000B33749016304AB0193378900E1F78509B9
:10371000050B9377FB0F63FD8700931A3B00E29A3A
:10372000C20A93DA0A010149D1BFC289014BD5B758
:103730008504C2042298C18041BFEFC27FA0396ACC
:10374000B96ABE8913DD170001112A8BAE8B32894D
:10375000368CBA8C01448147130ACA07938A4A639C
:103760003307F9000306070001E605616FC01FA1DA
:1037700093841700C204C1806345060233056401C7
:1037800042050148CE876687E286DE854181230CAB
:10379000C100A30C01006A94EFF07FCE4204418087
:1037A0002DA8330799009376060E9305000C0307A6
:1037B00007006396B602230CC10045DB890793948A
:1037C0000701C180A30CE100230D0100E147638BD9
:1037D000F90C93070002638DF910A68751B7937611
:1037E000060F9305000E6398B602230CC10035DF67
:1037F000A30CE10013872700420741834A97030780
:10380000070025D78D0793940701C180230DE100A0
:10381000A30D010065BF9376860F9305000FE39E0D
:10382000B6FA230CC10031D3A30CE10013872700A3
:10383000420741834A970307070005DB230DE10098
:1038400013873700420741834A970307070011DFB8
:10385000910793940701C180A30DE100230E01009D
:10386000B5B72C0842C6EFC0BF93324809CD850DCD
:10387000C20D93DD0D011307D0043388ED0233052B
:103880000A011C21F9FF330564011508420552980D
:10389000E6876287E1466146DE854181EFF07FDFA2
:1038A0006104EDBD814DC1BF2C0842C6EFC05F8FE2
:1038B000324809CD850DC20D93DD0D011307500867
:1038C0003388ED0233850A011C21F9FF33056401B9
:1038D000150842055698E68762879306000213068C
:1038E0000002DE854181EFF0DFDA130404027DB5CA
:1038F000814DE9B7297123248112232291122320BB
:1039000021132A84AE843289BE85301A08102326FA
:10391000111236C63AC4232C0113232E111332CEB2
:10392000EF6030352247B246939504011315040128
:10393000BA8710103687C181CA864181EFF0FFDF58
:103940008320C1120324811283244112032901120E
:1039500031618280EFC2DF81411185452145EFD081
:103960005FAF9307003F371401407C82C1473EC6DA
:103970004C008D47130504C03EC4EFD00FCB930518
:10398000003F130504C0EFD0EFD641016FC09F8008
:10399000EFC26FFCAA843715014093050020130580
:1039A00005C0B7190140EFD02FD52144138909C0B4
:1039B000930500104A85EFD02FD493978401E187B7
:1039C000930500084A8563D80702EFD0AFD27D1473
:1039D000930500104A8586041374F40FEFD08FD13D
:1039E00093F4F40F71F493050020138509C0EFD010
:1039F0006FD06FC08FF9EFD02FD0D1BFEFC24FF78C
:103A00002A842181EFF0DFF81375F40FEFF05FF8EF
:103A10006FC04FF8EFC2CFF537140140AA84930569
:103A20000004130504C0EFD02FCD2685EFF05FF61C
:103A300093050004130504C0EFD0CFCB6FC08FF502
:103A4000EFC20FF341112A841305A00236C22EC61D
:103A500032C4EFF03FFC1305C40042054181EFF092
:103A6000FFF922463106131506014181EFF01FF9D7
:103A70001305B002EFF01FFAB2452E85EFF01FF8E4
:103A800092463685EFF09FF71305C002EFF09FF8DE
:103A900041016FC02FF0EFC2AFEDEFF0BFEB371475
:103AA000014093050002130504C0EFD0EFC41305D5
:103AB0004006B92C93050002130504C0EFD08FC354
:103AC00013054006B124C145130504C0EFD0CFC291
:103AD00013054006352C4545EFF0DFF3130580074D
:103AE000052C13056003EFF0FFF21305000AEFF059
:103AF0003FEA1305A003EFF0FFF11545EFF05FE992
:103B00001305200BEFF01FF13145EFF07FE8314551
:103B1000EFF01FE80145EFF0BFE713053003EFF0CA
:103B20003FE713053003EFF0BFE61305700BEFF02E
:103B30007FEE13055003EFF0BFE51305B00BEFF078
:103B40007FED13052003EFF0BFE41305200CEFF029
:103B50007FEC0545EFF0DFE31305300CEFF09FEB52
:103B60005545EFF0FFE21305400CEFF0BFEA1305F7
:103B70000002EFF0FFE11305600CEFF0BFE93D45F7
:103B8000EFF01FE11305000DEFF0DFE81305400A29
:103B9000EFF01FE01305100AEFF09FDF1305000E92
:103BA000EFF05FE71305000DEFF09FDE2145EFF02A
:103BB0003FDE3945EFF0DFDD2545EFF07FDD2545C0
:103BC000EFF01FDD1545EFF0BFDC13051003EFF03C
:103BD0003FDC13053003EFF0BFDB13058004EFF08B
:103BE0003FDB5D45EFF0DFDA5145EFF07FDA554519
:103BF000EFF01FDA13051003EFF09FD91305400310
:103C0000EFF01FD91305100EEFF0DFE01305000DE4
:103C1000EFF01FD82145EFF0BFD73945EFF05FD760
:103C20002545EFF0FFD62545EFF09FD65545EFF03F
:103C30003FD613051003EFF0BFD513053003EFF0A7
:103C40003FD513058004EFF0BFD45D45EFF05FD49E
:103C50005145EFF0FFD35545EFF09FD31305100307
:103C6000EFF01FD313054003EFF09FD213051002AE
:103C7000EFF05FDA13059002EFF0DFD96FC08FD15C
:103C8000EFC20FCF011185450545EFD06FFE370517
:103C90000040EFD0DFAA930730063ECA89679387BA
:103CA000F7574C08370500403ECC231E0100230F78
:103CB0000100EFD0DF9E854537050040EFD03FA9DA
:103CC0000546854537050040EFD05FA685473EC8CD
:103CD00068009307C0127C8623070100EFD00FD243
:103CE000854537050040EFD0FFA205616FC08FCA40
:103CF000B707002083A7471F0967130707F4B3D747
:103D0000E702C207C1832391F18E2390F18E828056
:103D1000B7F700E0D8438146799BD8C303D7018E1B
:103D20003306A70290CBD4CB98431367070198C3FF
:103D300098431367170298C3D843058B75DF9843E0
:103D4000799B98C382801387C1831C439386C1C526
:103D50003E95636BD500B75600209386068063E5D9
:103D6000A60008C33E858280FD57EDBF5D71A2C4E9
:103D7000A6C2CAC04EDE52DC86C6138A01842A84DB
:103D8000AE84712103270A00FD572A89AE89630793
:103D9000F7022286A6862285A685EF30900319EDCC
:103DA0002285A685EF10702897970000938787CA11
:103DB0009043D443EF20502C634CA000B6402644DF
:103DC0004A85CE8596440649F259625A61618280DD
:103DD00085473EC4179500001305850297B700007C
:103DE000938707C83EC602D422CC26CE22C826CA54
:103DF000EF10302503270A002AD02ED28947630B03
:103E0000F7002800EF10B02311C5A25791EB02591B
:103E100092596DB7EF40D041930710021CC1F5B71E
:103E2000EF401041A2571CC1DDB76F00D0041D71D7
:103E30005EDE938B0184A2CCA6CACAC8CEC6D2C409
:103E4000D6C2DAC086CE2A89AE893284B684EF0023
:103E5000D02003AB0B00FD57AA8A2E8A6307FB060E
:103E60002286A6862285A685EF30A07639ED4A8681
:103E7000CE864A85CE85EF30C07501468146631BEC
:103E800005104A85CE85EF20901829ED0146814620
:103E90002285A685EF20B0174DE185473EC497B730
:103EA00000009387A7BE3EC602D44AC84ECA22CCA1
:103EB00026CE02D002D2630D0B1097970000938795
:103EC00067B983AA070003AA4700F64066445685EF
:103ED000D285D6444649B649264A964A064BF25BF5
:103EE000256182805685D285EF109014630F050EF0
:103EF0005685D28501468146EF20701179F54A85B5
:103F0000CE85EF10F01271D12285A685EF105012E8
:103F10004DDD914703A70B003EC497B70000938780
:103F2000E7B63EC602D44AC84ECA22CC26CE02D03C
:103F300002D28947631BF71235AA2285A685EF10A6
:103F4000300F41D5014681462285A685EF20B01D60
:103F5000E35D05F6054783A70B003AC417B70000D9
:103F60001307C7B23AC602D44AC84ECA22CC26CEDC
:103F70006398071002D002D22800EF10500C630C97
:103F80000510A25789C7EF40B02AA2571CC1825A18
:103F9000125A25BF2285A685EF2070071DF5979739
:103FA0000000938727AB03AA470083AA0700854632
:103FB00036C497B60000938666AD36C602D44AC8AA
:103FC0004ECA22CC26CE56D052D28947E30FFBEE02
:103FD0002800EF10D00671C5A257D5DBEF40502561
:103FE000A257825A125A1CC1CDB54A85CE85EF1010
:103FF0003004E30F05EE2285A685EF107003E30978
:1040000005EED286D2855686568503AA0B00EF3080
:10401000405C63170510979700009387A7B2904301
:10402000D4438D472285A6853EC497B70000938769
:10403000E7A522CC26CE3EC602D44AC84ECAEF20FF
:10404000F0192A84AE8463140A0697B70000938798
:1040500067A29843DC43014681464A85CE853AD023
:104060003ED2EF20500C634805062800EF10207D5B
:10407000E31905F0EF40D01B930720021CC111B7D4
:1040800097B600009386869E9042D442094732D06C
:1040900036D2E393E7EEEF40B019930710021CC14C
:1040A000CDB5EF40F018930710021CC135B797B794
:1040B00000009387279D9843DC43014681464A854B
:1040C000CE853AD03ED2EF201006634A05028947DA
:1040D000E302FAFA59BF2285A685EF10607722869F
:1040E000A686EF20C07215C997B70000938707997D
:1040F0009843DC4303AA0B003AD03ED2C9BF2285C5
:10410000A685EF10E0742286A686EF20407011C5C8
:1041100097B7000093878795E1BF03AA0B0045BFBF
:1041200085473EC497B70000938747963EC602D4A2
:104130004AC84ECA22CC26CEE30E0AE20146814688
:104140003285B685EF2060112AD02ED28947E3044C
:10415000FAF41DB55D71A2C4A6C2CAC052DE56DC17
:1041600086C62A84AE84EF10C01C9387018403A9FD
:104170000700FD572A8AAE8A6301F9022286A686C5
:104180002285A685EF30E04409E901468146228573
:10419000A685EF204079634C0500B6402644528541
:1041A000D68596440649725AE25A616182808547F3
:1041B0003EC497B700009387A78D3EC602D422CC99
:1041C00026CE22C826CA63070902014681463285E7
:1041D000B685EF2080082AD02ED28947631EF900C9
:1041E000EF401005930710021CC1A25781EF025A3D
:1041F000925A65B702D002D22800EF1040646DD108
:10420000A257F5D7EF40D002A2571CC1CDB73971E4
:104210004AD81399150022DC26DA06DE4ED652D48F
:1042200056D25AD05ECE62CC66CA6AC86EC61359E0
:104230001900B707F03F2E84AA84634DF9063309AD
:10424000F9403369A900630B09022A86AE86EF2084
:1042500070442A86AE86EF204000AA84F250625451
:1042600026854259D254B259225A925A025BF24BD5
:10427000624CD24C424DB24D2161828097B7000012
:104280009387C7819043D443EF20407597B70000D0
:10429000938747819043D4432A89AE892685A28596
:1042A000EF20C0732A86AE864A85CE85EF10F007D0
:1042B000AA846DB7B707E03FAE89178B0000130BD8
:1042C0006B79635AF902B707403E6354F92897A700
:1042D00000009387A77D9043D443178B0000130BF6
:1042E0006B77EF10900403260B0083264B00EF2022
:1042F000A058634EA0242685A285EF1000532A867D
:10430000AE8603250B0083254B00EF20B03897972E
:104310000000938727839043D443EF20206C97A716
:104320000000938727799043D4432A84AE84EF20FA
:10433000E06A97A70000938767789043D443EF1013
:10434000C07E2286A686EF20606997A7000093872B
:1043500067779043D443EF20F0332286A686EF2080
:10436000E06797A70000938767769043D443EF10E8
:10437000C07B2286A686EF20606697A70000938701
:1043800067759043D443EF20F0302286A686EF2055
:10439000E06497A70000938767749043D443EF10BD
:1043A000C0782286A686EF20606397A700009387D7
:1043B0006773D44390432A8AAE8A2285A685EF206C
:1043C000E06197A70000938767729043D443EF2082
:1043D000702C2286A686EF20606097A70000938746
:1043E00067719043D443EF1040742286A686EF2075
:1043F000E05E97A70000938767709043D443EF2057
:1044000070292286A686EF20605D03260B00832696
:104410004B00EF1080712A8BAE8B2285A685EF00B2
:104420005071B737EF3F93872733AA8C2E8C63DD0B
:1044300027055A86DE865285D685EF10106266867D
:10444000E286EF20A0596686E286EF10006E2A868B
:10445000AE86EF10806D97A700009387A764904306
:10446000D443EF20302397A70000938727632A8641
:10447000AE868843CC43EF20F021AA84E34030DFAE
:10448000B7070080BD8DD9BB2A86AE86EF10E069E4
:104490005A86DE862A8DAE8D5285D685EF10F05B6A
:1044A0002A86AE866A85EE85EF204053014A2A8B24
:1044B000AE8B5286E2865285E285EF2020522A8614
:1044C000AE862285A685EF20F01C2A84AE84528613
:1044D000E2866685E285EF1040652A86AE862285F3
:1044E000A685EF1090572A86AE86EF10006497A736
:1044F00000009387275B2A86AE868843CC4317A4A7
:10450000000013042460EF20F0182A86AE865A8536
:10451000DE85EF2030182A8BAE8B5286E2865285DC
:10452000E285EF1080602A86AE8608404C40EF207E
:1045300070162A86AE865A85DE85EF20B0152A864B
:10454000AE8608404C40EF20F014AA8405BFA28537
:1045500031B32A86AE86EF20604897A70000938784
:1045600067559043D4432A89AE89EF20204797A707
:1045700000009387A7549043D443EF10005B4A8612
:10458000CE86EF20A04597A700009387A7539043BE
:10459000D443EF2030104A86CE86EF20204497A7E0
:1045A00000009387A7529043D443EF1000584A86E7
:1045B000CE86EF20A04297A700009387A751904393
:1045C000D443EF20300D4A86CE86EF20204197A7B6
:1045D00000009387A7509043D443EF1000554A86BC
:1045E000CE86EF20A03F97A700009387A74F904368
:1045F000D4432A8AAE8A4A85CE85EF20203E97A7EB
:1046000000009387A74E9043D443EF20B0084A861A
:10461000CE86EF20A03C97A700009387A74D90433C
:10462000D443EF1080504A86CE86EF20203B97A7D8
:1046300000009387A74C9043D443EF20B0054A86EF
:10464000CE86EF20A039978700009387A74090433C
:10465000D443EF10804D2A86AE865285D685EF1062
:10466000D03F2686A286EF2060372686A286EF10EE
:10467000C04BAA84E5B6B307C04037070080134794
:10468000F7FFD18F4111337ED700FD8306C622C4C8
:10469000B3E7C7013703F07FAA882E886367F30466
:1046A000B307A040C98F6D8FFD83D98F2E8F636EA6
:1046B000F302B70710C0B697D18FF1C713D4E64104
:1046C00093752400B367A7001354F8014D8C85EB54
:1046D0008947630FF40A8D476312F40A97A7000015
:1046E000938747438843CC4339A03285B6854686B5
:1046F000C286EF108043B240224441018280B367FA
:10470000CE00A5C763046E0A630167063307C7417D
:1047100051879307C00363C4E70863D80600930773
:1047200040FC01458145634AF7004685C285EF108C
:10473000D032EF10800FEF00105D85476300F40C5E
:104740008947630AF40845D897A700009387873FF5
:104750009043D443EF20007497A700009387073B52
:104760009043D443EF20007379B7634F0F0497A7AA
:1047700000009387A7328843CC43B5BFB2402244A0
:10478000C285410182802244B24041016F00B0578E
:1047900097A70000938787378843CC43A9BF97A783
:1047A00000009387A72F8843CC4341BF8947630B01
:1047B000C705E30FF4FC8D47E302F4F2854763027B
:1047C000F4060145814505BF97A70000938787350B
:1047D0008843CC430DB797A700009387A736904333
:1047E000D443EF20206B97A70000938727322A86B7
:1047F000AE868843CC43EF20E069F5BDB707008063
:10480000BD8DD5BD6304F4048D47630AF40285476A
:104810006300F40297A700009387C72E8843CC4318
:10482000D9BD97A700009387672F8843CC43E1B594
:1048300097A70000938787308843CC436DBD97A727
:1048400000009387272F8843CC4375B597A70000B6
:104850009387C72D8843CC4379BD370800801971F1
:104860001348F8FFCAD833F9060186DEA2DCA6DABF
:10487000CED6D2D4D6D2DAD0DECEE2CCE6CAEAC8E0
:10488000EEC6B367C900DDC73374B800B707F07F61
:10489000AE8A2A8A63DB8702370810C02298336801
:1048A000A800B705F03F0145631D0808F65066549F
:1048B000D6544659B659265A965A065BF64B664C5C
:1048C000D64C464DB64D096182806309F406E3C5B6
:1048D00027FDB707F07F630FF91AAE84AA89B28C5F
:1048E000B68D014D63C30A0863900C0CB706F07FC8
:1048F0006301D914B706F03F630FD914B70600401F
:10490000E384DD18B706E03F6390DD0A63CE0A0852
:104910006654F6504659265A965A065BF64B664C34
:10492000D64C464DB64D4E85A685B659D65409612E
:104930006F0030200145B705F03F8DBF19E1E35A04
:1049400024F96654F650D6544659B659265A965A02
:10495000065BF64B664CD64C464DB64D17850000AF
:104960001305054A09616F00D06DB70640436356D1
:10497000D912B706F03F6347D9029356494193864F
:1049800016C05146E35AD61013064003B306D6406C
:1049900033D6DC00B316D60063969601058A094328
:1049A000330DC340E3880CF44E85A685EF00F06715
:1049B00063050A0413DEF4017D1EB366CD01E5C272
:1049C000B706E04163D8260FB706F04363D9267BCC
:1049D0003707F03F6350E40A63DC0D0697A7000039
:1049E0009387C70C9043D4433285B685EF10107F70
:1049F00075BDEF00906363140A0A01C89396240002
:104A000089823706F03FE397C6FA63C80D06E3DFF5
:104A10000AE8B70710C0A297B3E7A701E39C070A0B
:104A20002A86AE86EF2000472A86AE86EF10F00277
:104A3000B5BD370510C0229533653501E30C05EE91
:104A40003707F03F634FE470EE850145E3D00DE694
:104A500001458145A1BD4E85A685E3D90DE4978723
:104A60000000938727FF8843CC434E86A686EF102D
:104A7000C07E2DBDE344B0F7E1BF178700001307E8
:104A800067FDAA8CAE8708434C436686BE86EF104E
:104A9000C07CB5BFE30306E401B5094DB1B54E8650
:104AA000A6864E85A685EF20E03E2A86AE86EF10CC
:104AB000C07AEDBBB706F07FF58C014691EC97A666
:104AC00000009386260D9042D44272C4EF101071FC
:104AD000224E2E841306B0FCB7051000935E4441AD
:104AE0001388F5FFB7A60300938E1EC03378040128
:104AF000370CF03F9386E688B29E336C880163DB07
:104B00000667B7B60B009386966763DD067D978AC6
:104B10000000938A2AF4850E330CBC4083A70A0058
:104B200003A84A0002C802CA02DC02DE81493EC470
:104B300042C62244B244E2852286A68676DA72D83C
:104B40002A89EF2020352A8BAE8B2286A6864A85BD
:104B5000E28522C426C6EF00507D2A86AE8603A5D4
:104B60000A0083A54A008144EF10206F2A86AE8692
:104B70002ACC2ECE5A85DE85EF105066135F1C407E
:104B8000B7060020336FDF00B7060800369FFA999A
:104B90002A8ACE86014626852E84EF1030642A8626
:104BA000AE865A85DE85EF20E02E2246B2462A8B5D
:104BB000AE8B0145CE85EF20E02D2A86AE864A8554
:104BC000E285EF20202D2686A286EF1030612A860E
:104BD000AE865A85DE85EF20E02B6248F24897AB1F
:104BE0000000938BABFE4286C686EF10305F528684
:104BF000A2862AC42EC65285A285EF10305E97A6E3
:104C000000009386A6F99042D4422A89AE89EF101B
:104C1000F05C97A600009386E6F89042D442014BE0
:104C2000014CEF0090704A86CE86EF10305B97A65D
:104C300000009386A6F79042D442EF00106F4A8698
:104C4000CE86EF10B05997A600009386A6F6904244
:104C5000D442EF00906D4A86CE86EF10305897A66A
:104C600000009386A6F59042D442EF00106C4A866D
:104C7000CE86EF10B05697A600009386A6F4904219
:104C8000D442EF00906A4A86CE862ACC2ECE4A8540
:104C9000CE85EF10B0546247F2472A86AE863A8539
:104CA000BE85EF10B0532A89AE892686A28652852A
:104CB000A285EF0090672246B246EF1030524A8636
:104CC000CE86EF0090662A89AE892686A286268542
:104CD000A285EF10B05003A60B0083A64B002AD488
:104CE0002ED6EF0090644A86CE864ACC4ECEEF0098
:104CF000D0632E895A86AE862685A285EF10104E87
:104D000003A60B0083A64B002AD02ED25A85CA8553
:104D1000EF204018225FB25F7A86FE86EF20801770
:104D20002A86AE866245F245EF20C0165286A286DC
:104D3000EF10D04A2A84AE842245B2455A86CA86EC
:104D4000EF10D0492A86AE862285A685EF00F05D59
:104D5000025B925B2A84AE842A86AE865A85DE8503
:104D6000EF00B05C97A600009386C6E69042D4425E
:104D700062852E8AEF1090462A89AE895A86DE8691
:104D80006285D285EF2000112A86AE862285A6850F
:104D9000EF20401097A60000938646E49042D4424C
:104DA000EF10D04397A600009386C6E39042D4420A
:104DB0002A84AE846285D285EF1050422A86AE8660
:104DC0002285A685EF0070566256F256EF00F05528
:104DD000D25E2A8BAE8B7685EF20B00F2A84AE840C
:104DE0005A86DE864A85CE85EF0030544246D2464A
:104DF000EF00B0532286A686EF003053014632857D
:104E0000A6862286AE842A84EF20C0084246D24677
:104E1000EF2040084A86CE86EF20C0072A86AE865D
:104E20005A85DE85EF200007425E2A89AE8913038A
:104E3000FDFF336EC301631F0E3097A600009386FB
:104E400066D29C4203A846003EC442C6014C62861C
:104E5000EE866685EE85EF20E0032286A686EF10BB
:104E6000F0372A8BAE8B6686EE864A85CE85EF10AC
:104E7000F0362A86AE865A85DE85EF00104B2A89E9
:104E8000AE896286EE862285A685EF1030352A86A9
:104E9000AE862A84AE844A85CE85EF001049B707D6
:104EA00090402A8A2E8BAE8B63CCF524B387F540D5
:104EB000C98F639C074097A70000938727D390432F
:104EC000D4434A85CE85EF0050462A8DAE8D22868A
:104ED000A6865285DA85EF10F07B2A86AE866A8533
:104EE000EE85EF1070196342A03E93D74B4193F7C4
:104EF000F77F37051000938727C0B357F540DE973B
:104F000013D747411377F77F130717C0130AF5FF2D
:104F1000B355EA4093C5F5FFFD8D33FA4701D147FC
:104F2000336AAA003387E7400146AE86335AEA4027
:104F300063D40B00330A40412285A685EF1090759B
:104F40002A86AE862A84AE844A85CE85EF00F03D5F
:104F50002E8B931D4A0117A70000130727CA104381
:104F60005443014C6285DA85EF1050275A8DAE8B81
:104F70002A8B2286A6866285EA85EF10B0712A8682
:104F8000AE864A85CE85EF10F07017A70000130794
:104F900067C710435443EF10702417A7000013078E
:104FA000E7C6104354432A84AE846285EA85EF1035
:104FB000F0222A86AE862285A685EF0010372A8940
:104FC000AE892A86AE865A85DE85EF0010365A866F
:104FD000DE862A84AE84EF10F06B2A86AE864A8580
:104FE000CE85EF10306B2A8BAE8B2286A68622856B
:104FF000A685EF10B01E97A700009387A7C1904326
:10500000D4432A89AE89EF10701D97A700009387BB
:10501000E7C09043D443EF10F0674A86CE86EF1086
:10502000F01B97A700009387E7BF9043D443EF009E
:10503000D02F4A86CE86EF10701A97A7000093876C
:10504000E7BE9043D443EF10F0644A86CE86EF105B
:10505000F01897A700009387E7BD9043D443EF0073
:10506000D02C4A86CE86EF1070172A86AE8622850F
:10507000A685EF1030622A86AE862A8CAE8C2285F9
:10508000A685EF10B01597A60000938626BB904228
:10509000D4422A89AE896285E685EF10B05F2A8600
:1050A000AE864A85CE85EF10401B2A89AE895A8686
:1050B000DE862285A685EF1070125A86DE86EF0006
:1050C000D0262A86AE864A85CE85EF10B05C228631
:1050D000A686EF10305CAE862A8683A54A0003A51B
:1050E0000A00EF10305BB387BD0093D64741635E83
:1050F000D022BE852246B246EF10500E6FF00FFB55
:1051000093971500B7D6904085839386F6BF63D6F4
:10511000F61AB7376F3F93870740AE97C98F99EB61
:105120002286A686EF1010574A86CE86EF10C074EE
:10513000E34D05DA17A400001304C4AB104054403B
:105140002245B245EF10900910405440EF1010096D
:105150006FF0CFF583A70A0003A84A003EC442C6F9
:10516000F5B1E3D70D8EB70500800145B3C5B50194
:105170006FF0CFF3978A0000938ACA8D45B2B706C5
:10518000F03F1386E6FFE3598684E3C5868E978A4F
:105190000000938A2A8C03A60A0083A64A0072C8DC
:1051A000EF10504F97A600009386469C9042D44241
:1051B0002A84AE84EF10900297A600009386869B07
:1051C0009042D4422A89AE892285A685EF1010012B
:1051D00097A600009386869A9042D4422AC42EC68F
:1051E0002285A685EF10807FAE8697A50000938567
:1051F00065992A868841CC41EF10D0492286A6863F
:10520000EF10C07DAE86978500009385A5932A8612
:105210008841CC41EF1010482A8BAE8B2286A6869F
:105220002285A685EF10807B2A86AE865A85DE858C
:10523000EF10C07A97A60000938646959042D4421C
:10524000EF10C0792247B2472A86AE863A85BE85DE
:10525000EF1050442A86AE862A8BAE8B4A85CE85C7
:10526000EF00B00C0146CE86328532844A86AE8489
:10527000EF1050422A86AE865A85DE85EF109041A7
:105280002A89AE89424E65B64E864E85A686A6858B
:10529000EF10C0746FF08FE1639D0CF4B306D6403D
:1052A0003356D940B316D600668D639526E5058A38
:1052B0000943330DC3406FF0EFE33707E03F814D03
:1052C000014AE35AF7C8D1872DB11794000013049F
:1052D000E47DADB58547631BFDDCB7070080BD8D60
:1052E0006FF0CFDC97A60000938646869C4203A809
:1052F000460097A600009386E6853EC842CA9C42B7
:1053000003A8460097A60000938646853EDC42DE51
:105310009C4203A84600B70904003EC442C6977ADF
:105320000000938A2A736FF0DF805286EF00A06A34
:10533000D1B341113707F07F22C426C206C63378A5
:10534000B7002E84AA84630DE816AE87AA86635F31
:10535000B00E13DE454163000E1A37071000130626
:10536000F7FFF18FD98F130E1EC013971700137616
:105370001E0093D7F601BA971397160011C67D83C6
:105380008607BA9713972600135E1E40D945814EB3
:105390008146370620003385C6001358F701FD15F6
:1053A00063C6A700898FB306C500B29E8607C29761
:1053B00006070582EDF11305000201438148370617
:1053C000008019A86385D70E9355F70186077D15D0
:1053D000AE97060705820DC9B3051601E3D4F6FEA4
:1053E000B388C500368863CE050A958FB336B700FB
:1053F000958F0D8F9355F70186077D153293C286E1
:10540000AE970607058269F9D98F9354130089CBAB
:1054100093041300FD5785806314F300850E8144C7
:1054200013D71E403704E03F93FE1E003A94638575
:105430000E00B7070080DD8C13174E012297B24093
:1054400022442685BA859244410182801397150033
:1054500005833368A7002E87E30308FED1E193D5C7
:10546000B600AD172E87D606FDD913D6450159E6ED
:10547000014611A02A8606079315B70013051600EA
:10548000E3DA05FE930800023688B388A840BA859F
:10549000B396A60033571801338EC740B367B700E1
:1054A0006DBD13C8F8FF1358F80136983DBFE36D82
:1054B000B7F0B388C500E3C605FE3E88814715BF37
:1054C0002A86AE86EF1080512686A286B92DB2407C
:1054D0002244AA842E872685BA859244410182807F
:1054E0002A86AE86EF10101B2A86AE86EF00F05695
:1054F000AA842E87A9B72E8781479DBF3688930837
:1055000000027D5641BF79714AD01399150022D40B
:1055100026D256CA06D64ECE52CC5AC85EC61359AB
:105520001900B70710442E84AA84AE8A6346F90492
:10553000B707F07F63CE2701630BF9006353501F59
:1055400097970000938787558443C04309A87DD56A
:1055500026862685A286A285C92BAA842E84A285AA
:10556000B2502254268502599254F249624AD24AD4
:10557000424BB24B45618280B707DC3F6351F91C57
:10558000B707203E634DF9167D5A2686A2862685EA
:10559000A285EF10A0442A86AE862A8BAE8BEF1030
:1055A000E043979700009387E7699043D4432A89A3
:1055B000AE89EF10A0429797000093872769904328
:1055C000D443A5234A86CE86EF104041979700002A
:1055D000938747689043D443892B4A86CE86EF1041
:1055E000E03F97970000938767679043D443352B3C
:1055F0004A86CE86EF10803E979700009387876695
:105600009043D4431D234A86CE86EF10203D9797C2
:1056100000009387A7659043D443012B5A86DE860A
:10562000EF10C03B979700009387C7649043D44323
:105630002A8BAE8B4A85CE85EF10403A97970000B3
:105640009387C7639043D443EF10D0044A86CE8635
:10565000EF10C038979700009387C7629043D443F8
:10566000EF1050034A86CE86EF1040379797000020
:105670009387C7619043D443EF10D0014A86CE860A
:10568000EF10C035979700009387C7609043D443CD
:10569000EF1050004A86CE86EF1040342A86AE8640
:1056A0005A85DE8559212686A286EF102033FD57C4
:1056B0002A86AE86630EFA060E0A97970000938735
:1056C000E75FD2979043D443979700009387075D95
:1056D0003E9AEF10207C2686A286EF10A07B2A86B9
:1056E000AE8603250A0083254A00EF10A07AAA841B
:1056F0002E84E3D60AE6370400802D8C8DB597976B
:1057000000009387A73A9043D44305219777000080
:10571000938747349043D443EF100016E356A0E636
:105720003DBD979700009387E73F8443C04305BD85
:105730002685A285EF100076AA842E840DB5F5206B
:10574000B707F33F2A84AE846356F904B707E63FF0
:105750006359F90A2A86AE86C92E97770000938787
:10576000672F9043D443014AEF10C072979700000F
:105770009387C74C9043D4432A89AE892285A68556
:105780006D262A86AE864A85CE85EF00102DAA8426
:105790002E84E5BBB78703406357F90417990000CF
:1057A0001309C93B0326090083264900094AEF1063
:1057B000606E03260900832649002A8BAE8B228562
:1057C000A685EF10A021977700009387A728904324
:1057D000D443A12E2A86AE865A85DE85EF00F027B7
:1057E000AA842E845DB3979700009387A7378843D8
:1057F000CC432286A686EF0050260D4AAA842E842A
:1058000069B3177900001309E924032609008326E8
:105810004900054AEF1000682A8BAE8B0326090069
:10582000832649002285A6856DB7860585818280FD
:1058300086058581370510802E957D818280014502
:10584000828097970000938767498843CC43828082
:1058500013D7454179711377F77F22D406D626D224
:105860004AD04ECE130617C0CD48AE87AA862E8EDC
:1058700013D4F50163C6C810634A0608B7051000C3
:10588000FD15B3D5C54033F5F500558DB6883E837B
:105890002DC5858133F8F5003368D800630508020B
:1058A0009306E7BE370E040093B6160093C5F5FFC6
:1058B00037080080B306D040ED8F3356CE403378A2
:1058C000D80033EEC700979700009387A7411313C2
:1058D00034003E9303240300832443004286F2866F
:1058E0002285A68599242AC42EC62245B245228641
:1058F000A686EF10205AAA882E83B25022549254C2
:105900000259F24946859A8545618280B704008034
:1059100093C4F4FF33F7B400498FAA882E8371DF54
:105920009397C500B18333E7A700B307E040D98F51
:10593000979600009386063B13173400BA96B183FE
:1059400003A9060083A946000177370308006D8F7D
:1059500033F367003363E3009A862A86CE854A854F
:10596000E9222AC42EC62245B2454A86CE86EF10C9
:105970006052ED8C1313F40133E36400AA88B5BFC1
:105980009308300363DEC80013070040AA882E8303
:10599000E315E6F62A86F286492AAA882E83B1BF45
:1059A0001307D7BE7D563356E600B375A600AA8806
:1059B0003E83A1D50582B377A6002A88E38507F048
:1059C000370800401346F6FFB376A6003357E84089
:1059D00033E8E600CDBD411193D7454122C406C648
:1059E00026C293F7F77F2E87AA863284C1E7939762
:1059F00015008583C98FA5CB979700009387872FC4
:105A0000D4439043EF00907DD177938707CBAA864C
:105A10002E876340F40E93D7454193F7F77F2E8688
:105A20009387A7FCA2979305E07F63C2F50A6345BD
:105A3000F00A9305B0FC63D0B706B16793870735CA
:105A400063C78708979700009387C71A8043C443AA
:105A500036862285BA86A6857528A6862286EF0018
:105A6000F077AA862E87B240224492443685BA85C2
:105A7000410182801308F07F2E86E39507FBAE86F6
:105A80002A866520B2402244AA862E879244368513
:105A9000BA8541018280370710807D17938767039D
:105AA000798ED2071797000013074725B685D18F47
:105AB000544310432E85BE85EF005072B2402244FD
:105AC000AA862E8792443685BA85410182809797AF
:105AD00000009387A7FD9DBF37071080B240224486
